{
  "_format": "hh-sol-artifact-1",
  "contractName": "MockDpos",
  "sourceName": "contracts/mocks/MockDpos.sol",
  "abi": [
    {
      "inputs": [
        {
          "internalType": "address[]",
          "name": "_internalValidators",
          "type": "address[]"
        }
      ],
      "stateMutability": "payable",
      "type": "constructor"
    },
    {
      "anonymous": false,
      "inputs": [
        {
          "indexed": true,
          "internalType": "address",
          "name": "account",
          "type": "address"
        },
        {
          "indexed": true,
          "internalType": "address",
          "name": "validator",
          "type": "address"
        }
      ],
      "name": "CommissionRewardsClaimed",
      "type": "event"
    },
    {
      "anonymous": false,
      "inputs": [
        {
          "indexed": true,
          "internalType": "address",
          "name": "validator",
          "type": "address"
        },
        {
          "indexed": false,
          "internalType": "uint16",
          "name": "comission",
          "type": "uint16"
        }
      ],
      "name": "CommissionSet",
      "type": "event"
    },
    {
      "anonymous": false,
      "inputs": [
        {
          "indexed": true,
          "internalType": "address",
          "name": "delegator",
          "type": "address"
        },
        {
          "indexed": true,
          "internalType": "address",
          "name": "validator",
          "type": "address"
        },
        {
          "indexed": false,
          "internalType": "uint256",
          "name": "amount",
          "type": "uint256"
        }
      ],
      "name": "Delegated",
      "type": "event"
    },
    {
      "anonymous": false,
      "inputs": [
        {
          "indexed": true,
          "internalType": "address",
          "name": "delegator",
          "type": "address"
        },
        {
          "indexed": true,
          "internalType": "address",
          "name": "from",
          "type": "address"
        },
        {
          "indexed": true,
          "internalType": "address",
          "name": "to",
          "type": "address"
        },
        {
          "indexed": false,
          "internalType": "uint256",
          "name": "amount",
          "type": "uint256"
        }
      ],
      "name": "Redelegated",
      "type": "event"
    },
    {
      "anonymous": false,
      "inputs": [
        {
          "indexed": true,
          "internalType": "address",
          "name": "account",
          "type": "address"
        },
        {
          "indexed": true,
          "internalType": "address",
          "name": "validator",
          "type": "address"
        }
      ],
      "name": "RewardsClaimed",
      "type": "event"
    },
    {
      "anonymous": false,
      "inputs": [
        {
          "indexed": true,
          "internalType": "address",
          "name": "delegator",
          "type": "address"
        },
        {
          "indexed": true,
          "internalType": "address",
          "name": "validator",
          "type": "address"
        },
        {
          "indexed": false,
          "internalType": "uint256",
          "name": "amount",
          "type": "uint256"
        }
      ],
      "name": "UndelegateCanceled",
      "type": "event"
    },
    {
      "anonymous": false,
      "inputs": [
        {
          "indexed": true,
          "internalType": "address",
          "name": "delegator",
          "type": "address"
        },
        {
          "indexed": true,
          "internalType": "address",
          "name": "validator",
          "type": "address"
        },
        {
          "indexed": false,
          "internalType": "uint256",
          "name": "amount",
          "type": "uint256"
        }
      ],
      "name": "UndelegateConfirmed",
      "type": "event"
    },
    {
      "anonymous": false,
      "inputs": [
        {
          "indexed": true,
          "internalType": "address",
          "name": "delegator",
          "type": "address"
        },
        {
          "indexed": true,
          "internalType": "address",
          "name": "validator",
          "type": "address"
        },
        {
          "indexed": false,
          "internalType": "uint256",
          "name": "amount",
          "type": "uint256"
        }
      ],
      "name": "Undelegated",
      "type": "event"
    },
    {
      "anonymous": false,
      "inputs": [
        {
          "indexed": true,
          "internalType": "address",
          "name": "validator",
          "type": "address"
        }
      ],
      "name": "ValidatorInfoSet",
      "type": "event"
    },
    {
      "anonymous": false,
      "inputs": [
        {
          "indexed": true,
          "internalType": "address",
          "name": "validator",
          "type": "address"
        }
      ],
      "name": "ValidatorRegistered",
      "type": "event"
    },
    {
      "inputs": [
        {
          "internalType": "address",
          "name": "validator",
          "type": "address"
        }
      ],
      "name": "delegate",
      "outputs": [],
      "stateMutability": "payable",
      "type": "function"
    },
    {
      "inputs": [
        {
          "internalType": "address",
          "name": "validator",
          "type": "address"
        }
      ],
      "name": "getValidator",
      "outputs": [
        {
          "components": [
            {
              "internalType": "uint256",
              "name": "total_stake",
              "type": "uint256"
            },
            {
              "internalType": "uint256",
              "name": "commission_reward",
              "type": "uint256"
            },
            {
              "internalType": "uint16",
              "name": "commission",
              "type": "uint16"
            },
            {
              "internalType": "uint64",
              "name": "last_commission_change",
              "type": "uint64"
            },
            {
              "internalType": "address",
              "name": "owner",
              "type": "address"
            },
            {
              "internalType": "string",
              "name": "description",
              "type": "string"
            },
            {
              "internalType": "string",
              "name": "endpoint",
              "type": "string"
            }
          ],
          "internalType": "struct MockIDPOS.ValidatorBasicInfo",
          "name": "",
          "type": "tuple"
        }
      ],
      "stateMutability": "view",
      "type": "function"
    },
    {
      "inputs": [
        {
          "internalType": "address",
          "name": "validator",
          "type": "address"
        }
      ],
      "name": "isValidatorRegistered",
      "outputs": [
        {
          "internalType": "bool",
          "name": "",
          "type": "bool"
        }
      ],
      "stateMutability": "view",
      "type": "function"
    },
    {
      "inputs": [
        {
          "internalType": "address",
          "name": "validator",
          "type": "address"
        },
        {
          "internalType": "bytes",
          "name": "proof",
          "type": "bytes"
        },
        {
          "internalType": "bytes",
          "name": "vrf_key",
          "type": "bytes"
        },
        {
          "internalType": "uint16",
          "name": "commission",
          "type": "uint16"
        },
        {
          "internalType": "string",
          "name": "description",
          "type": "string"
        },
        {
          "internalType": "string",
          "name": "endpoint",
          "type": "string"
        }
      ],
      "name": "registerValidator",
      "outputs": [],
      "stateMutability": "payable",
      "type": "function"
    },
    {
      "inputs": [
        {
          "internalType": "address",
          "name": "validator",
          "type": "address"
        },
        {
          "internalType": "uint256",
          "name": "amount",
          "type": "uint256"
        }
      ],
      "name": "undelegate",
      "outputs": [],
      "stateMutability": "nonpayable",
      "type": "function"
    },
    {
      "inputs": [
        {
          "internalType": "address",
          "name": "",
          "type": "address"
        }
      ],
      "name": "validators",
      "outputs": [
        {
          "internalType": "address",
          "name": "account",
          "type": "address"
        },
        {
          "components": [
            {
              "internalType": "uint256",
              "name": "total_stake",
              "type": "uint256"
            },
            {
              "internalType": "uint256",
              "name": "commission_reward",
              "type": "uint256"
            },
            {
              "internalType": "uint16",
              "name": "commission",
              "type": "uint16"
            },
            {
              "internalType": "uint64",
              "name": "last_commission_change",
              "type": "uint64"
            },
            {
              "internalType": "address",
              "name": "owner",
              "type": "address"
            },
            {
              "internalType": "string",
              "name": "description",
              "type": "string"
            },
            {
              "internalType": "string",
              "name": "endpoint",
              "type": "string"
            }
          ],
          "internalType": "struct MockIDPOS.ValidatorBasicInfo",
          "name": "info",
          "type": "tuple"
        }
      ],
      "stateMutability": "view",
      "type": "function"
    }
  ],
  "bytecode": "0x6080604052604051620015cc380380620015cc833981016040819052620000269162000329565b60005b8151811015620002425760006040518060e001604052808451346200004f919062000411565b815260200160008152602001606461ffff168152602001436001600160401b03168152602001336001600160a01b031681526020016040518060400160405280601281526020017129b0b6b83632903232b9b1b934b83a34b7b760711b81525081526020016040518060400160405280601581526020017f68747470733a2f2f656e64706f696e742e736f6d65000000000000000000000081525081525090506000604051806040016040528085858151811062000111576200011162000434565b60200260200101516001600160a01b031681526020018381525090508060008086868151811062000146576200014662000434565b6020908102919091018101516001600160a01b039081168352828201939093526040918201600020845181549085166001600160a01b03199091161781558482015180516001830190815592810151600283015592830151600382018054606086015160808701519097166a010000000000000000000002600160501b600160f01b03196001600160401b0390981662010000026001600160501b031990921661ffff9094169390931717959095161790935560a082015160048401906200020f9082620004d9565b5060c08201516004820190620002269082620004d9565b5050509050505050806200023a90620005a5565b905062000029565b5060006001600160a01b03166000808360018551620002629190620005c1565b8151811062000275576200027562000434565b6020908102919091018101516001600160a01b03908116835290820192909252604001600020541603620002ef5760405162461bcd60e51b815260206004820152601c60248201527f4661696c656420746f20736574206f776e2076616c696461746f727300000000604482015260640160405180910390fd5b50620005dd565b634e487b7160e01b600052604160045260246000fd5b80516001600160a01b03811681146200032457600080fd5b919050565b600060208083850312156200033d57600080fd5b82516001600160401b03808211156200035557600080fd5b818501915085601f8301126200036a57600080fd5b8151818111156200037f576200037f620002f6565b8060051b604051601f19603f83011681018181108582111715620003a757620003a7620002f6565b604052918252848201925083810185019188831115620003c657600080fd5b938501935b82851015620003ef57620003df856200030c565b84529385019392850192620003cb565b98975050505050505050565b634e487b7160e01b600052601160045260246000fd5b6000826200042f57634e487b7160e01b600052601260045260246000fd5b500490565b634e487b7160e01b600052603260045260246000fd5b600181811c908216806200045f57607f821691505b6020821081036200048057634e487b7160e01b600052602260045260246000fd5b50919050565b601f821115620004d457600081815260208120601f850160051c81016020861015620004af5750805b601f850160051c820191505b81811015620004d057828155600101620004bb565b5050505b505050565b81516001600160401b03811115620004f557620004f5620002f6565b6200050d816200050684546200044a565b8462000486565b602080601f8311600181146200054557600084156200052c5750858301515b600019600386901b1c1916600185901b178555620004d0565b600085815260208120601f198616915b82811015620005765788860151825594840194600190910190840162000555565b5085821015620005955787850151600019600388901b60f8161c191681555b5050505050600190811b01905550565b600060018201620005ba57620005ba620003fb565b5060010190565b81810381811115620005d757620005d7620003fb565b92915050565b610fdf80620005ed6000396000f3fe6080604052600436106100655760003560e01c8063d04a68c711610043578063d04a68c7146100d5578063d6fdc12714610120578063fa52c7d81461013357600080fd5b80631904bb2e1461006a5780634d99dd16146100a05780635c19a95c146100c2575b600080fd5b34801561007657600080fd5b5061008a610085366004610b16565b610161565b6040516100979190610bfe565b60405180910390f35b3480156100ac57600080fd5b506100c06100bb366004610c11565b610360565b005b6100c06100d0366004610b16565b61045e565b3480156100e157600080fd5b506101106100f0366004610b16565b6001600160a01b0390811660009081526020819052604090205416151590565b6040519015158152602001610097565b6100c061012e366004610d39565b61057b565b34801561013f57600080fd5b5061015361014e366004610b16565b6108fb565b604051610097929190610e13565b6101b86040518060e001604052806000815260200160008152602001600061ffff168152602001600067ffffffffffffffff16815260200160006001600160a01b0316815260200160608152602001606081525090565b6001600160a01b0380831660009081526020818152604091829020825160e0810184526001820180548252600283015493820193909352600382015461ffff81169482019490945267ffffffffffffffff6201000085041660608201526a010000000000000000000090930490931660808301526004909201805491929160a08401919061024590610e3d565b80601f016020809104026020016040519081016040528092919081815260200182805461027190610e3d565b80156102be5780601f10610293576101008083540402835291602001916102be565b820191906000526020600020905b8154815290600101906020018083116102a157829003601f168201915b505050505081526020016004820180546102d790610e3d565b80601f016020809104026020016040519081016040528092919081815260200182805461030390610e3d565b80156103505780601f1061032557610100808354040283529160200191610350565b820191906000526020600020905b81548152906001019060200180831161033357829003601f168201915b5050505050815250509050919050565b6001600160a01b03828116600090815260208190526040902054166103cc5760405162461bcd60e51b815260206004820152601760248201527f56616c696461746f7220646f65736e277420657869737400000000000000000060448201526064015b60405180910390fd5b6001600160a01b0382166000908152602081905260408120805473ffffffffffffffffffffffffffffffffffffffff1916815560018101828155600282018390556003820180547fffff000000000000000000000000000000000000000000000000000000000000169055909190816104486004850182610aa4565b610456600483016000610aa4565b505050505050565b6001600160a01b03808216600090815260208190526040902080549091166104c85760405162461bcd60e51b815260206004820152601760248201527f56616c696461746f7220646f65736e277420657869737400000000000000000060448201526064016103c3565b600034116105185760405162461bcd60e51b815260206004820152601d60248201527f44656c65676174696f6e2076616c7565206e6f742070726f766964656400000060448201526064016103c3565b3481600101600001600082825461052f9190610e77565b909155505080546040513481526001600160a01b039091169033907fe5541a6b6103d4fa7e021ed54fad39c66f27a76bd13d374cf6240ae6bd0bb72b9060200160405180910390a35050565b86516000036105cc5760405162461bcd60e51b815260206004820152600d60248201527f496e76616c69642070726f6f660000000000000000000000000000000000000060448201526064016103c3565b855160000361061d5760405162461bcd60e51b815260206004820152601b60248201527f565246205075626c6963206b6579206e6f7420706f727669646564000000000060448201526064016103c3565b6001600160a01b0388811660009081526020819052604090205416156106905760405162461bcd60e51b815260206004820152602260248201527f44504f533a2056616c696461746f7220616c7265616479207265676973746572604482015261195960f21b60648201526084016103c3565b683635c9adc5dea000003410156106f45760405162461bcd60e51b815260206004820152602260248201527f426173652064656c65676174696f6e2076616c7565206e6f742070726f766964604482015261195960f21b60648201526084016103c3565b60006040518060e00160405280348152602001600081526020018761ffff1681526020014367ffffffffffffffff168152602001336001600160a01b0316815260200186868080601f016020809104026020016040519081016040528093929190818152602001838380828437600092019190915250505090825250604080516020601f87018190048102820181019092528581529181019190869086908190840183828082843760009201829052509390945250506040805180820182526001600160a01b03808f168083526020808401888152918652858152948490208351815490841673ffffffffffffffffffffffffffffffffffffffff19909116178155905180516001830190815595810151600283015593840151600382018054606087015160808801519095166a0100000000000000000000027fffff0000000000000000000000000000000000000000ffffffffffffffffffff67ffffffffffffffff909616620100000269ffffffffffffffffffff1990921661ffff9094169390931717939093161790915560a0830151959650909485945090929060048401906108a19082610ee9565b5060c082015160048201906108b69082610ee9565b50506040516001600160a01b038e1693507fd09501348473474a20c772c79c653e1fd7e8b437e418fe235d277d2c88853251925060009150a250505050505050505050565b600060208181529181526040908190208054825160e0810184526001830180548252600284015495820195909552600383015461ffff81169482019490945267ffffffffffffffff6201000085041660608201526a01000000000000000000009093046001600160a01b03908116608085015260048301805491909216949293929160a084019161098b90610e3d565b80601f01602080910402602001604051908101604052809291908181526020018280546109b790610e3d565b8015610a045780601f106109d957610100808354040283529160200191610a04565b820191906000526020600020905b8154815290600101906020018083116109e757829003601f168201915b50505050508152602001600482018054610a1d90610e3d565b80601f0160208091040260200160405190810160405280929190818152602001828054610a4990610e3d565b8015610a965780601f10610a6b57610100808354040283529160200191610a96565b820191906000526020600020905b815481529060010190602001808311610a7957829003601f168201915b505050505081525050905082565b508054610ab090610e3d565b6000825580601f10610ac0575050565b601f016020900490600052602060002090810190610ade9190610ae1565b50565b5b80821115610af65760008155600101610ae2565b5090565b80356001600160a01b0381168114610b1157600080fd5b919050565b600060208284031215610b2857600080fd5b610b3182610afa565b9392505050565b6000815180845260005b81811015610b5e57602081850181015186830182015201610b42565b506000602082860101526020601f19601f83011685010191505092915050565b805182526020810151602083015261ffff604082015116604083015267ffffffffffffffff60608201511660608301526001600160a01b036080820151166080830152600060a082015160e060a0850152610bdc60e0850182610b38565b905060c083015184820360c0860152610bf58282610b38565b95945050505050565b602081526000610b316020830184610b7e565b60008060408385031215610c2457600080fd5b610c2d83610afa565b946020939093013593505050565b634e487b7160e01b600052604160045260246000fd5b600082601f830112610c6257600080fd5b813567ffffffffffffffff80821115610c7d57610c7d610c3b565b604051601f8301601f19908116603f01168101908282118183101715610ca557610ca5610c3b565b81604052838152866020858801011115610cbe57600080fd5b836020870160208301376000602085830101528094505050505092915050565b803561ffff81168114610b1157600080fd5b60008083601f840112610d0257600080fd5b50813567ffffffffffffffff811115610d1a57600080fd5b602083019150836020828501011115610d3257600080fd5b9250929050565b60008060008060008060008060c0898b031215610d5557600080fd5b610d5e89610afa565b9750602089013567ffffffffffffffff80821115610d7b57600080fd5b610d878c838d01610c51565b985060408b0135915080821115610d9d57600080fd5b610da98c838d01610c51565b9750610db760608c01610cde565b965060808b0135915080821115610dcd57600080fd5b610dd98c838d01610cf0565b909650945060a08b0135915080821115610df257600080fd5b50610dff8b828c01610cf0565b999c989b5096995094979396929594505050565b6001600160a01b0383168152604060208201526000610e356040830184610b7e565b949350505050565b600181811c90821680610e5157607f821691505b602082108103610e7157634e487b7160e01b600052602260045260246000fd5b50919050565b80820180821115610e9857634e487b7160e01b600052601160045260246000fd5b92915050565b601f821115610ee457600081815260208120601f850160051c81016020861015610ec55750805b601f850160051c820191505b8181101561045657828155600101610ed1565b505050565b815167ffffffffffffffff811115610f0357610f03610c3b565b610f1781610f118454610e3d565b84610e9e565b602080601f831160018114610f4c5760008415610f345750858301515b600019600386901b1c1916600185901b178555610456565b600085815260208120601f198616915b82811015610f7b57888601518255948401946001909101908401610f5c565b5085821015610f995787850151600019600388901b60f8161c191681555b5050505050600190811b0190555056fea26469706673582212204ba3465906035ec2883de2f2bde2879665f4f4f9b8229341bdebac5af833161664736f6c63430008120033",
  "linkReferences": {},
  "deployedLinkReferences": {}
}