{
  "_format": "hh-sol-artifact-1",
  "contractName": "MockDpos",
  "sourceName": "contracts/mocks/MockDpos.sol",
  "abi": [
    {
      "inputs": [
        {
          "internalType": "address[]",
          "name": "_internalValidators",
          "type": "address[]"
        }
      ],
      "stateMutability": "payable",
      "type": "constructor"
    },
    {
      "anonymous": false,
      "inputs": [
        {
          "indexed": true,
          "internalType": "address",
          "name": "account",
          "type": "address"
        },
        {
          "indexed": true,
          "internalType": "address",
          "name": "validator",
          "type": "address"
        }
      ],
      "name": "CommissionRewardsClaimed",
      "type": "event"
    },
    {
      "anonymous": false,
      "inputs": [
        {
          "indexed": true,
          "internalType": "address",
          "name": "validator",
          "type": "address"
        },
        {
          "indexed": false,
          "internalType": "uint16",
          "name": "comission",
          "type": "uint16"
        }
      ],
      "name": "CommissionSet",
      "type": "event"
    },
    {
      "anonymous": false,
      "inputs": [
        {
          "indexed": true,
          "internalType": "address",
          "name": "delegator",
          "type": "address"
        },
        {
          "indexed": true,
          "internalType": "address",
          "name": "validator",
          "type": "address"
        },
        {
          "indexed": false,
          "internalType": "uint256",
          "name": "amount",
          "type": "uint256"
        }
      ],
      "name": "Delegated",
      "type": "event"
    },
    {
      "anonymous": false,
      "inputs": [
        {
          "indexed": true,
          "internalType": "address",
          "name": "delegator",
          "type": "address"
        },
        {
          "indexed": true,
          "internalType": "address",
          "name": "from",
          "type": "address"
        },
        {
          "indexed": true,
          "internalType": "address",
          "name": "to",
          "type": "address"
        },
        {
          "indexed": false,
          "internalType": "uint256",
          "name": "amount",
          "type": "uint256"
        }
      ],
      "name": "Redelegated",
      "type": "event"
    },
    {
      "anonymous": false,
      "inputs": [
        {
          "indexed": true,
          "internalType": "address",
          "name": "account",
          "type": "address"
        },
        {
          "indexed": true,
          "internalType": "address",
          "name": "validator",
          "type": "address"
        }
      ],
      "name": "RewardsClaimed",
      "type": "event"
    },
    {
      "anonymous": false,
      "inputs": [
        {
          "indexed": true,
          "internalType": "address",
          "name": "delegator",
          "type": "address"
        },
        {
          "indexed": true,
          "internalType": "address",
          "name": "validator",
          "type": "address"
        },
        {
          "indexed": false,
          "internalType": "uint256",
          "name": "amount",
          "type": "uint256"
        }
      ],
      "name": "UndelegateCanceled",
      "type": "event"
    },
    {
      "anonymous": false,
      "inputs": [
        {
          "indexed": true,
          "internalType": "address",
          "name": "delegator",
          "type": "address"
        },
        {
          "indexed": true,
          "internalType": "address",
          "name": "validator",
          "type": "address"
        },
        {
          "indexed": false,
          "internalType": "uint256",
          "name": "amount",
          "type": "uint256"
        }
      ],
      "name": "UndelegateConfirmed",
      "type": "event"
    },
    {
      "anonymous": false,
      "inputs": [
        {
          "indexed": true,
          "internalType": "address",
          "name": "delegator",
          "type": "address"
        },
        {
          "indexed": true,
          "internalType": "address",
          "name": "validator",
          "type": "address"
        },
        {
          "indexed": false,
          "internalType": "uint256",
          "name": "amount",
          "type": "uint256"
        }
      ],
      "name": "Undelegated",
      "type": "event"
    },
    {
      "anonymous": false,
      "inputs": [
        {
          "indexed": true,
          "internalType": "address",
          "name": "validator",
          "type": "address"
        }
      ],
      "name": "ValidatorInfoSet",
      "type": "event"
    },
    {
      "anonymous": false,
      "inputs": [
        {
          "indexed": true,
          "internalType": "address",
          "name": "validator",
          "type": "address"
        }
      ],
      "name": "ValidatorRegistered",
      "type": "event"
    },
    {
      "inputs": [
        {
          "internalType": "address",
          "name": "validator",
          "type": "address"
        }
      ],
      "name": "delegate",
      "outputs": [],
      "stateMutability": "payable",
      "type": "function"
    },
    {
      "inputs": [
        {
          "internalType": "address",
          "name": "validator",
          "type": "address"
        }
      ],
      "name": "getValidator",
      "outputs": [
        {
          "components": [
            {
              "internalType": "address",
              "name": "account",
              "type": "address"
            },
            {
              "components": [
                {
                  "internalType": "uint256",
                  "name": "total_stake",
                  "type": "uint256"
                },
                {
                  "internalType": "uint256",
                  "name": "commission_reward",
                  "type": "uint256"
                },
                {
                  "internalType": "uint16",
                  "name": "commission",
                  "type": "uint16"
                },
                {
                  "internalType": "uint64",
                  "name": "last_commission_change",
                  "type": "uint64"
                },
                {
                  "internalType": "address",
                  "name": "owner",
                  "type": "address"
                },
                {
                  "internalType": "string",
                  "name": "description",
                  "type": "string"
                },
                {
                  "internalType": "string",
                  "name": "endpoint",
                  "type": "string"
                }
              ],
              "internalType": "struct MockIDPOS.ValidatorBasicInfo",
              "name": "info",
              "type": "tuple"
            }
          ],
          "internalType": "struct MockIDPOS.ValidatorData",
          "name": "",
          "type": "tuple"
        }
      ],
      "stateMutability": "view",
      "type": "function"
    },
    {
      "inputs": [
        {
          "internalType": "address",
          "name": "validator",
          "type": "address"
        }
      ],
      "name": "isValidatorRegistered",
      "outputs": [
        {
          "internalType": "bool",
          "name": "",
          "type": "bool"
        }
      ],
      "stateMutability": "view",
      "type": "function"
    },
    {
      "inputs": [
        {
          "internalType": "address",
          "name": "validator",
          "type": "address"
        },
        {
          "internalType": "bytes",
          "name": "proof",
          "type": "bytes"
        },
        {
          "internalType": "bytes",
          "name": "vrf_key",
          "type": "bytes"
        },
        {
          "internalType": "uint16",
          "name": "commission",
          "type": "uint16"
        },
        {
          "internalType": "string",
          "name": "description",
          "type": "string"
        },
        {
          "internalType": "string",
          "name": "endpoint",
          "type": "string"
        }
      ],
      "name": "registerValidator",
      "outputs": [],
      "stateMutability": "payable",
      "type": "function"
    },
    {
      "inputs": [
        {
          "internalType": "address",
          "name": "",
          "type": "address"
        }
      ],
      "name": "validators",
      "outputs": [
        {
          "internalType": "address",
          "name": "account",
          "type": "address"
        },
        {
          "components": [
            {
              "internalType": "uint256",
              "name": "total_stake",
              "type": "uint256"
            },
            {
              "internalType": "uint256",
              "name": "commission_reward",
              "type": "uint256"
            },
            {
              "internalType": "uint16",
              "name": "commission",
              "type": "uint16"
            },
            {
              "internalType": "uint64",
              "name": "last_commission_change",
              "type": "uint64"
            },
            {
              "internalType": "address",
              "name": "owner",
              "type": "address"
            },
            {
              "internalType": "string",
              "name": "description",
              "type": "string"
            },
            {
              "internalType": "string",
              "name": "endpoint",
              "type": "string"
            }
          ],
          "internalType": "struct MockIDPOS.ValidatorBasicInfo",
          "name": "info",
          "type": "tuple"
        }
      ],
      "stateMutability": "view",
      "type": "function"
    }
  ],
  "bytecode": "0x60806040526040516200148c3803806200148c833981016040819052620000269162000329565b60005b8151811015620002425760006040518060e001604052808451346200004f919062000411565b815260200160008152602001606461ffff168152602001436001600160401b03168152602001336001600160a01b031681526020016040518060400160405280601281526020017129b0b6b83632903232b9b1b934b83a34b7b760711b81525081526020016040518060400160405280601581526020017f68747470733a2f2f656e64706f696e742e736f6d65000000000000000000000081525081525090506000604051806040016040528085858151811062000111576200011162000434565b60200260200101516001600160a01b031681526020018381525090508060008086868151811062000146576200014662000434565b6020908102919091018101516001600160a01b039081168352828201939093526040918201600020845181549085166001600160a01b03199091161781558482015180516001830190815592810151600283015592830151600382018054606086015160808701519097166a010000000000000000000002600160501b600160f01b03196001600160401b0390981662010000026001600160501b031990921661ffff9094169390931717959095161790935560a082015160048401906200020f9082620004d9565b5060c08201516004820190620002269082620004d9565b5050509050505050806200023a90620005a5565b905062000029565b5060006001600160a01b03166000808360018551620002629190620005c1565b8151811062000275576200027562000434565b6020908102919091018101516001600160a01b03908116835290820192909252604001600020541603620002ef5760405162461bcd60e51b815260206004820152601c60248201527f4661696c656420746f20736574206f776e2076616c696461746f727300000000604482015260640160405180910390fd5b50620005dd565b634e487b7160e01b600052604160045260246000fd5b80516001600160a01b03811681146200032457600080fd5b919050565b600060208083850312156200033d57600080fd5b82516001600160401b03808211156200035557600080fd5b818501915085601f8301126200036a57600080fd5b8151818111156200037f576200037f620002f6565b8060051b604051601f19603f83011681018181108582111715620003a757620003a7620002f6565b604052918252848201925083810185019188831115620003c657600080fd5b938501935b82851015620003ef57620003df856200030c565b84529385019392850192620003cb565b98975050505050505050565b634e487b7160e01b600052601160045260246000fd5b6000826200042f57634e487b7160e01b600052601260045260246000fd5b500490565b634e487b7160e01b600052603260045260246000fd5b600181811c908216806200045f57607f821691505b6020821081036200048057634e487b7160e01b600052602260045260246000fd5b50919050565b601f821115620004d457600081815260208120601f850160051c81016020861015620004af5750805b601f850160051c820191505b81811015620004d057828155600101620004bb565b5050505b505050565b81516001600160401b03811115620004f557620004f5620002f6565b6200050d816200050684546200044a565b8462000486565b602080601f8311600181146200054557600084156200052c5750858301515b600019600386901b1c1916600185901b178555620004d0565b600085815260208120601f198616915b82811015620005765788860151825594840194600190910190840162000555565b5085821015620005955787850151600019600388901b60f8161c191681555b5050505050600190811b01905550565b600060018201620005ba57620005ba620003fb565b5060010190565b81810381811115620005d757620005d7620003fb565b92915050565b610e9f80620005ed6000396000f3fe60806040526004361061005a5760003560e01c8063d04a68c711610043578063d04a68c7146100aa578063d6fdc127146100f5578063fa52c7d81461010857600080fd5b80631904bb2e1461005f5780635c19a95c14610095575b600080fd5b34801561006b57600080fd5b5061007f61007a3660046109e1565b610136565b60405161008c9190610ac9565b60405180910390f35b6100a86100a33660046109e1565b6102f8565b005b3480156100b657600080fd5b506100e56100c53660046109e1565b6001600160a01b0390811660009081526020819052604090205416151590565b604051901515815260200161008c565b6100a8610103366004610bfd565b61041a565b34801561011457600080fd5b506101286101233660046109e1565b6107a5565b60405161008c929190610cd7565b61013e61094e565b6001600160a01b038083166000908152602081815260409182902082518084018452815485168152835160e0810185526001830180548252600284015482860152600384015461ffff81169683019690965267ffffffffffffffff6201000087041660608301526a0100000000000000000000909504909516608086015260048201805491959294938601939160a0840191906101da90610cf9565b80601f016020809104026020016040519081016040528092919081815260200182805461020690610cf9565b80156102535780601f1061022857610100808354040283529160200191610253565b820191906000526020600020905b81548152906001019060200180831161023657829003601f168201915b5050505050815260200160048201805461026c90610cf9565b80601f016020809104026020016040519081016040528092919081815260200182805461029890610cf9565b80156102e55780601f106102ba576101008083540402835291602001916102e5565b820191906000526020600020905b8154815290600101906020018083116102c857829003601f168201915b5050509190925250505090525092915050565b6001600160a01b03808216600090815260208190526040902080549091166103675760405162461bcd60e51b815260206004820152601760248201527f56616c696461746f7220646f65736e277420657869737400000000000000000060448201526064015b60405180910390fd5b600034116103b75760405162461bcd60e51b815260206004820152601d60248201527f44656c65676174696f6e2076616c7565206e6f742070726f7669646564000000604482015260640161035e565b348160010160000160008282546103ce9190610d33565b909155505080546040513481526001600160a01b039091169033907fe5541a6b6103d4fa7e021ed54fad39c66f27a76bd13d374cf6240ae6bd0bb72b9060200160405180910390a35050565b865160000361046b5760405162461bcd60e51b815260206004820152600d60248201527f496e76616c69642070726f6f6600000000000000000000000000000000000000604482015260640161035e565b85516000036104bc5760405162461bcd60e51b815260206004820152601b60248201527f565246205075626c6963206b6579206e6f7420706f7276696465640000000000604482015260640161035e565b6001600160a01b03888116600090815260208190526040902054161561052f5760405162461bcd60e51b815260206004820152602260248201527f44504f533a2056616c696461746f7220616c7265616479207265676973746572604482015261195960f21b606482015260840161035e565b683635c9adc5dea000003410156105935760405162461bcd60e51b815260206004820152602260248201527f426173652064656c65676174696f6e2076616c7565206e6f742070726f766964604482015261195960f21b606482015260840161035e565b60006040518060e00160405280348152602001600081526020018761ffff1681526020014367ffffffffffffffff168152602001336001600160a01b0316815260200186868080601f016020809104026020016040519081016040528093929190818152602001838380828437600092019190915250505090825250604080516020601f87018190048102820181019092528581529181019190869086908190840183828082843760009201829052509390945250506040805180820182526001600160a01b03808f16808352602080840188815291865285815294849020835181549084167fffffffffffffffffffffffff0000000000000000000000000000000000000000909116178155905180516001830190815595810151600283015593840151600382018054606087015160808801519095166a0100000000000000000000027fffff0000000000000000000000000000000000000000ffffffffffffffffffff67ffffffffffffffff909616620100000269ffffffffffffffffffff1990921661ffff9094169390931717939093161790915560a08301519596509094859450909290600484019061074b9082610da9565b5060c082015160048201906107609082610da9565b50506040516001600160a01b038e1693507fd09501348473474a20c772c79c653e1fd7e8b437e418fe235d277d2c88853251925060009150a250505050505050505050565b600060208181529181526040908190208054825160e0810184526001830180548252600284015495820195909552600383015461ffff81169482019490945267ffffffffffffffff6201000085041660608201526a01000000000000000000009093046001600160a01b03908116608085015260048301805491909216949293929160a084019161083590610cf9565b80601f016020809104026020016040519081016040528092919081815260200182805461086190610cf9565b80156108ae5780601f10610883576101008083540402835291602001916108ae565b820191906000526020600020905b81548152906001019060200180831161089157829003601f168201915b505050505081526020016004820180546108c790610cf9565b80601f01602080910402602001604051908101604052809291908181526020018280546108f390610cf9565b80156109405780601f1061091557610100808354040283529160200191610940565b820191906000526020600020905b81548152906001019060200180831161092357829003601f168201915b505050505081525050905082565b604051806040016040528060006001600160a01b031681526020016109c06040518060e001604052806000815260200160008152602001600061ffff168152602001600067ffffffffffffffff16815260200160006001600160a01b0316815260200160608152602001606081525090565b905290565b80356001600160a01b03811681146109dc57600080fd5b919050565b6000602082840312156109f357600080fd5b6109fc826109c5565b9392505050565b6000815180845260005b81811015610a2957602081850181015186830182015201610a0d565b506000602082860101526020601f19601f83011685010191505092915050565b805182526020810151602083015261ffff604082015116604083015267ffffffffffffffff60608201511660608301526001600160a01b036080820151166080830152600060a082015160e060a0850152610aa760e0850182610a03565b905060c083015184820360c0860152610ac08282610a03565b95945050505050565b602081526001600160a01b03825116602082015260006020830151604080840152610af76060840182610a49565b949350505050565b634e487b7160e01b600052604160045260246000fd5b600082601f830112610b2657600080fd5b813567ffffffffffffffff80821115610b4157610b41610aff565b604051601f8301601f19908116603f01168101908282118183101715610b6957610b69610aff565b81604052838152866020858801011115610b8257600080fd5b836020870160208301376000602085830101528094505050505092915050565b803561ffff811681146109dc57600080fd5b60008083601f840112610bc657600080fd5b50813567ffffffffffffffff811115610bde57600080fd5b602083019150836020828501011115610bf657600080fd5b9250929050565b60008060008060008060008060c0898b031215610c1957600080fd5b610c22896109c5565b9750602089013567ffffffffffffffff80821115610c3f57600080fd5b610c4b8c838d01610b15565b985060408b0135915080821115610c6157600080fd5b610c6d8c838d01610b15565b9750610c7b60608c01610ba2565b965060808b0135915080821115610c9157600080fd5b610c9d8c838d01610bb4565b909650945060a08b0135915080821115610cb657600080fd5b50610cc38b828c01610bb4565b999c989b5096995094979396929594505050565b6001600160a01b0383168152604060208201526000610af76040830184610a49565b600181811c90821680610d0d57607f821691505b602082108103610d2d57634e487b7160e01b600052602260045260246000fd5b50919050565b80820180821115610d5457634e487b7160e01b600052601160045260246000fd5b92915050565b601f821115610da457600081815260208120601f850160051c81016020861015610d815750805b601f850160051c820191505b81811015610da057828155600101610d8d565b5050505b505050565b815167ffffffffffffffff811115610dc357610dc3610aff565b610dd781610dd18454610cf9565b84610d5a565b602080601f831160018114610e0c5760008415610df45750858301515b600019600386901b1c1916600185901b178555610da0565b600085815260208120601f198616915b82811015610e3b57888601518255948401946001909101908401610e1c565b5085821015610e595787850151600019600388901b60f8161c191681555b5050505050600190811b0190555056fea264697066735822122028ee13d3ff80f203ccd97a811359309c1f5b15e89c826dcff10d2bf2f50593eb64736f6c63430008130033",
  "linkReferences": {},
  "deployedLinkReferences": {}
}