{
  "_format": "hh-sol-artifact-1",
  "contractName": "MockDpos",
  "sourceName": "contracts/mocks/MockDpos.sol",
  "abi": [
    {
      "inputs": [
        {
          "internalType": "address[]",
          "name": "_internalValidators",
          "type": "address[]"
        }
      ],
      "stateMutability": "payable",
      "type": "constructor"
    },
    {
      "anonymous": false,
      "inputs": [
        {
          "indexed": true,
          "internalType": "address",
          "name": "account",
          "type": "address"
        },
        {
          "indexed": true,
          "internalType": "address",
          "name": "validator",
          "type": "address"
        }
      ],
      "name": "CommissionRewardsClaimed",
      "type": "event"
    },
    {
      "anonymous": false,
      "inputs": [
        {
          "indexed": true,
          "internalType": "address",
          "name": "validator",
          "type": "address"
        },
        {
          "indexed": false,
          "internalType": "uint16",
          "name": "comission",
          "type": "uint16"
        }
      ],
      "name": "CommissionSet",
      "type": "event"
    },
    {
      "anonymous": false,
      "inputs": [
        {
          "indexed": true,
          "internalType": "address",
          "name": "delegator",
          "type": "address"
        },
        {
          "indexed": true,
          "internalType": "address",
          "name": "validator",
          "type": "address"
        },
        {
          "indexed": false,
          "internalType": "uint256",
          "name": "amount",
          "type": "uint256"
        }
      ],
      "name": "Delegated",
      "type": "event"
    },
    {
      "anonymous": false,
      "inputs": [
        {
          "indexed": true,
          "internalType": "address",
          "name": "delegator",
          "type": "address"
        },
        {
          "indexed": true,
          "internalType": "address",
          "name": "from",
          "type": "address"
        },
        {
          "indexed": true,
          "internalType": "address",
          "name": "to",
          "type": "address"
        },
        {
          "indexed": false,
          "internalType": "uint256",
          "name": "amount",
          "type": "uint256"
        }
      ],
      "name": "Redelegated",
      "type": "event"
    },
    {
      "anonymous": false,
      "inputs": [
        {
          "indexed": true,
          "internalType": "address",
          "name": "account",
          "type": "address"
        },
        {
          "indexed": true,
          "internalType": "address",
          "name": "validator",
          "type": "address"
        }
      ],
      "name": "RewardsClaimed",
      "type": "event"
    },
    {
      "anonymous": false,
      "inputs": [
        {
          "indexed": true,
          "internalType": "address",
          "name": "delegator",
          "type": "address"
        },
        {
          "indexed": true,
          "internalType": "address",
          "name": "validator",
          "type": "address"
        },
        {
          "indexed": false,
          "internalType": "uint256",
          "name": "amount",
          "type": "uint256"
        }
      ],
      "name": "UndelegateCanceled",
      "type": "event"
    },
    {
      "anonymous": false,
      "inputs": [
        {
          "indexed": true,
          "internalType": "address",
          "name": "delegator",
          "type": "address"
        },
        {
          "indexed": true,
          "internalType": "address",
          "name": "validator",
          "type": "address"
        },
        {
          "indexed": false,
          "internalType": "uint256",
          "name": "amount",
          "type": "uint256"
        }
      ],
      "name": "UndelegateConfirmed",
      "type": "event"
    },
    {
      "anonymous": false,
      "inputs": [
        {
          "indexed": true,
          "internalType": "address",
          "name": "delegator",
          "type": "address"
        },
        {
          "indexed": true,
          "internalType": "address",
          "name": "validator",
          "type": "address"
        },
        {
          "indexed": false,
          "internalType": "uint256",
          "name": "amount",
          "type": "uint256"
        }
      ],
      "name": "Undelegated",
      "type": "event"
    },
    {
      "anonymous": false,
      "inputs": [
        {
          "indexed": true,
          "internalType": "address",
          "name": "validator",
          "type": "address"
        }
      ],
      "name": "ValidatorInfoSet",
      "type": "event"
    },
    {
      "anonymous": false,
      "inputs": [
        {
          "indexed": true,
          "internalType": "address",
          "name": "validator",
          "type": "address"
        }
      ],
      "name": "ValidatorRegistered",
      "type": "event"
    },
    {
      "inputs": [
        {
          "internalType": "address",
          "name": "validator",
          "type": "address"
        }
      ],
      "name": "delegate",
      "outputs": [],
      "stateMutability": "payable",
      "type": "function"
    },
    {
      "inputs": [
        {
          "internalType": "address",
          "name": "validator",
          "type": "address"
        }
      ],
      "name": "getValidator",
      "outputs": [
        {
          "components": [
            {
              "internalType": "uint256",
              "name": "total_stake",
              "type": "uint256"
            },
            {
              "internalType": "uint256",
              "name": "commission_reward",
              "type": "uint256"
            },
            {
              "internalType": "uint16",
              "name": "commission",
              "type": "uint16"
            },
            {
              "internalType": "uint64",
              "name": "last_commission_change",
              "type": "uint64"
            },
            {
              "internalType": "address",
              "name": "owner",
              "type": "address"
            },
            {
              "internalType": "string",
              "name": "description",
              "type": "string"
            },
            {
              "internalType": "string",
              "name": "endpoint",
              "type": "string"
            }
          ],
          "internalType": "struct MockIDPOS.ValidatorBasicInfo",
          "name": "",
          "type": "tuple"
        }
      ],
      "stateMutability": "view",
      "type": "function"
    },
    {
      "inputs": [
        {
          "internalType": "uint32",
          "name": "batch",
          "type": "uint32"
        }
      ],
      "name": "getValidators",
      "outputs": [
        {
          "components": [
            {
              "internalType": "address",
              "name": "account",
              "type": "address"
            },
            {
              "components": [
                {
                  "internalType": "uint256",
                  "name": "total_stake",
                  "type": "uint256"
                },
                {
                  "internalType": "uint256",
                  "name": "commission_reward",
                  "type": "uint256"
                },
                {
                  "internalType": "uint16",
                  "name": "commission",
                  "type": "uint16"
                },
                {
                  "internalType": "uint64",
                  "name": "last_commission_change",
                  "type": "uint64"
                },
                {
                  "internalType": "address",
                  "name": "owner",
                  "type": "address"
                },
                {
                  "internalType": "string",
                  "name": "description",
                  "type": "string"
                },
                {
                  "internalType": "string",
                  "name": "endpoint",
                  "type": "string"
                }
              ],
              "internalType": "struct MockIDPOS.ValidatorBasicInfo",
              "name": "info",
              "type": "tuple"
            }
          ],
          "internalType": "struct MockIDPOS.ValidatorData[]",
          "name": "validatorsOut",
          "type": "tuple[]"
        },
        {
          "internalType": "bool",
          "name": "end",
          "type": "bool"
        }
      ],
      "stateMutability": "view",
      "type": "function"
    },
    {
      "inputs": [
        {
          "internalType": "address",
          "name": "owner",
          "type": "address"
        },
        {
          "internalType": "uint32",
          "name": "batch",
          "type": "uint32"
        }
      ],
      "name": "getValidatorsFor",
      "outputs": [
        {
          "components": [
            {
              "internalType": "address",
              "name": "account",
              "type": "address"
            },
            {
              "components": [
                {
                  "internalType": "uint256",
                  "name": "total_stake",
                  "type": "uint256"
                },
                {
                  "internalType": "uint256",
                  "name": "commission_reward",
                  "type": "uint256"
                },
                {
                  "internalType": "uint16",
                  "name": "commission",
                  "type": "uint16"
                },
                {
                  "internalType": "uint64",
                  "name": "last_commission_change",
                  "type": "uint64"
                },
                {
                  "internalType": "address",
                  "name": "owner",
                  "type": "address"
                },
                {
                  "internalType": "string",
                  "name": "description",
                  "type": "string"
                },
                {
                  "internalType": "string",
                  "name": "endpoint",
                  "type": "string"
                }
              ],
              "internalType": "struct MockIDPOS.ValidatorBasicInfo",
              "name": "info",
              "type": "tuple"
            }
          ],
          "internalType": "struct MockIDPOS.ValidatorData[]",
          "name": "validatorsOut",
          "type": "tuple[]"
        },
        {
          "internalType": "bool",
          "name": "end",
          "type": "bool"
        }
      ],
      "stateMutability": "view",
      "type": "function"
    },
    {
      "inputs": [
        {
          "internalType": "address",
          "name": "validator",
          "type": "address"
        }
      ],
      "name": "isValidatorRegistered",
      "outputs": [
        {
          "internalType": "bool",
          "name": "",
          "type": "bool"
        }
      ],
      "stateMutability": "view",
      "type": "function"
    },
    {
      "inputs": [
        {
          "internalType": "address",
          "name": "validator",
          "type": "address"
        },
        {
          "internalType": "bytes",
          "name": "proof",
          "type": "bytes"
        },
        {
          "internalType": "bytes",
          "name": "vrf_key",
          "type": "bytes"
        },
        {
          "internalType": "uint16",
          "name": "commission",
          "type": "uint16"
        },
        {
          "internalType": "string",
          "name": "description",
          "type": "string"
        },
        {
          "internalType": "string",
          "name": "endpoint",
          "type": "string"
        }
      ],
      "name": "registerValidator",
      "outputs": [],
      "stateMutability": "payable",
      "type": "function"
    },
    {
      "inputs": [
        {
          "internalType": "address",
          "name": "validator",
          "type": "address"
        },
        {
          "internalType": "uint256",
          "name": "amount",
          "type": "uint256"
        }
      ],
      "name": "undelegate",
      "outputs": [],
      "stateMutability": "nonpayable",
      "type": "function"
    },
    {
      "inputs": [
        {
          "internalType": "address",
          "name": "",
          "type": "address"
        }
      ],
      "name": "validators",
      "outputs": [
        {
          "internalType": "address",
          "name": "account",
          "type": "address"
        },
        {
          "components": [
            {
              "internalType": "uint256",
              "name": "total_stake",
              "type": "uint256"
            },
            {
              "internalType": "uint256",
              "name": "commission_reward",
              "type": "uint256"
            },
            {
              "internalType": "uint16",
              "name": "commission",
              "type": "uint16"
            },
            {
              "internalType": "uint64",
              "name": "last_commission_change",
              "type": "uint64"
            },
            {
              "internalType": "address",
              "name": "owner",
              "type": "address"
            },
            {
              "internalType": "string",
              "name": "description",
              "type": "string"
            },
            {
              "internalType": "string",
              "name": "endpoint",
              "type": "string"
            }
          ],
          "internalType": "struct MockIDPOS.ValidatorBasicInfo",
          "name": "info",
          "type": "tuple"
        }
      ],
      "stateMutability": "view",
      "type": "function"
    }
  ],
  "bytecode": "0x608060405260405162003e3d38038062003e3d8339818101604052810190620000299190620008d8565b6200004567bbb98ec0e060045760c01b620006e760201b60201c565b62000061676effb5438e36cfed60c01b620006e760201b60201c565b6200007d67a6eba6baf0bb8c8560c01b620006e760201b60201c565b60005b81518110156200057057620000a6676ebdad014b16854060c01b620006e760201b60201c565b620000c2674f9350c0f8eeae9460c01b620006e760201b60201c565b60006040518060e00160405280845134620000de919062000991565b815260200160008152602001606461ffff1681526020014367ffffffffffffffff1681526020013373ffffffffffffffffffffffffffffffffffffffff1681526020016040518060400160405280601281526020017f53616d706c65206465736372697074696f6e000000000000000000000000000081525081526020016040518060400160405280601581526020017f68747470733a2f2f656e64706f696e742e736f6d6500000000000000000000008152508152509050620001b367d46214dd8ccd9a4960c01b620006e760201b60201c565b620001cf6708b02f971313797c60c01b620006e760201b60201c565b60006040518060400160405280858581518110620001f257620001f1620009c9565b5b602002602001015173ffffffffffffffffffffffffffffffffffffffff1681526020018381525090506200023767be90360148a8b9db60c01b620006e760201b60201c565b80600080868681518110620002515762000250620009c9565b5b602002602001015173ffffffffffffffffffffffffffffffffffffffff1673ffffffffffffffffffffffffffffffffffffffff16815260200190815260200160002060008201518160000160006101000a81548173ffffffffffffffffffffffffffffffffffffffff021916908373ffffffffffffffffffffffffffffffffffffffff160217905550602082015181600101600082015181600001556020820151816001015560408201518160020160006101000a81548161ffff021916908361ffff16021790555060608201518160020160026101000a81548167ffffffffffffffff021916908367ffffffffffffffff160217905550608082015181600201600a6101000a81548173ffffffffffffffffffffffffffffffffffffffff021916908373ffffffffffffffffffffffffffffffffffffffff16021790555060a0820151816003019081620003a7919062000c39565b5060c0820151816004019081620003bf919062000c39565b505050905050620003e1671c07e9f9ab8df4f960c01b620006e760201b60201c565b620003fd67b7a840da6f60f7cb60c01b620006e760201b60201c565b600181908060018154018082558091505060019003906000526020600020906006020160009091909190915060008201518160000160006101000a81548173ffffffffffffffffffffffffffffffffffffffff021916908373ffffffffffffffffffffffffffffffffffffffff160217905550602082015181600101600082015181600001556020820151816001015560408201518160020160006101000a81548161ffff021916908361ffff16021790555060608201518160020160026101000a81548167ffffffffffffffff021916908367ffffffffffffffff160217905550608082015181600201600a6101000a81548173ffffffffffffffffffffffffffffffffffffffff021916908373ffffffffffffffffffffffffffffffffffffffff16021790555060a08201518160030190816200053d919062000c39565b5060c082015181600401908162000555919062000c39565b5050505050505080620005689062000d20565b905062000080565b506200058d675e78d92706b54bff60c01b620006e760201b60201c565b620005a9673d38e16fbbebdcb560c01b620006e760201b60201c565b620005c567aa0b4fb52a5bfc9f60c01b620006e760201b60201c565b600073ffffffffffffffffffffffffffffffffffffffff166000808360018551620005f1919062000d6d565b81518110620006055762000604620009c9565b5b602002602001015173ffffffffffffffffffffffffffffffffffffffff1673ffffffffffffffffffffffffffffffffffffffff16815260200190815260200160002060000160009054906101000a900473ffffffffffffffffffffffffffffffffffffffff1673ffffffffffffffffffffffffffffffffffffffff1603620006c4576040517f08c379a0000000000000000000000000000000000000000000000000000000008152600401620006bb9062000e09565b60405180910390fd5b620006e0675b067f1d7bb41de060c01b620006e760201b60201c565b5062000e2b565b50565b6000604051905090565b600080fd5b600080fd5b600080fd5b6000601f19601f8301169050919050565b7f4e487b7100000000000000000000000000000000000000000000000000000000600052604160045260246000fd5b6200074e8262000703565b810181811067ffffffffffffffff8211171562000770576200076f62000714565b5b80604052505050565b600062000785620006ea565b905062000793828262000743565b919050565b600067ffffffffffffffff821115620007b657620007b562000714565b5b602082029050602081019050919050565b600080fd5b600073ffffffffffffffffffffffffffffffffffffffff82169050919050565b6000620007f982620007cc565b9050919050565b6200080b81620007ec565b81146200081757600080fd5b50565b6000815190506200082b8162000800565b92915050565b600062000848620008428462000798565b62000779565b905080838252602082019050602084028301858111156200086e576200086d620007c7565b5b835b818110156200089b57806200088688826200081a565b84526020840193505060208101905062000870565b5050509392505050565b600082601f830112620008bd57620008bc620006fe565b5b8151620008cf84826020860162000831565b91505092915050565b600060208284031215620008f157620008f0620006f4565b5b600082015167ffffffffffffffff811115620009125762000911620006f9565b5b6200092084828501620008a5565b91505092915050565b6000819050919050565b7f4e487b7100000000000000000000000000000000000000000000000000000000600052601260045260246000fd5b7f4e487b7100000000000000000000000000000000000000000000000000000000600052601160045260246000fd5b60006200099e8262000929565b9150620009ab8362000929565b925082620009be57620009bd62000933565b5b828204905092915050565b7f4e487b7100000000000000000000000000000000000000000000000000000000600052603260045260246000fd5b600081519050919050565b7f4e487b7100000000000000000000000000000000000000000000000000000000600052602260045260246000fd5b6000600282049050600182168062000a4b57607f821691505b60208210810362000a615762000a6062000a03565b5b50919050565b60008190508160005260206000209050919050565b60006020601f8301049050919050565b600082821b905092915050565b60006008830262000acb7fffffffffffffffffffffffffffffffffffffffffffffffffffffffffffffffff8262000a8c565b62000ad7868362000a8c565b95508019841693508086168417925050509392505050565b6000819050919050565b600062000b1a62000b1462000b0e8462000929565b62000aef565b62000929565b9050919050565b6000819050919050565b62000b368362000af9565b62000b4e62000b458262000b21565b84845462000a99565b825550505050565b600090565b62000b6562000b56565b62000b7281848462000b2b565b505050565b5b8181101562000b9a5762000b8e60008262000b5b565b60018101905062000b78565b5050565b601f82111562000be95762000bb38162000a67565b62000bbe8462000a7c565b8101602085101562000bce578190505b62000be662000bdd8562000a7c565b83018262000b77565b50505b505050565b600082821c905092915050565b600062000c0e6000198460080262000bee565b1980831691505092915050565b600062000c29838362000bfb565b9150826002028217905092915050565b62000c4482620009f8565b67ffffffffffffffff81111562000c605762000c5f62000714565b5b62000c6c825462000a32565b62000c7982828562000b9e565b600060209050601f83116001811462000cb1576000841562000c9c578287015190505b62000ca8858262000c1b565b86555062000d18565b601f19841662000cc18662000a67565b60005b8281101562000ceb5784890151825560018201915060208501945060208101905062000cc4565b8683101562000d0b578489015162000d07601f89168262000bfb565b8355505b6001600288020188555050505b505050505050565b600062000d2d8262000929565b91507fffffffffffffffffffffffffffffffffffffffffffffffffffffffffffffffff820362000d625762000d6162000962565b5b600182019050919050565b600062000d7a8262000929565b915062000d878362000929565b925082820390508181111562000da25762000da162000962565b5b92915050565b600082825260208201905092915050565b7f4661696c656420746f20736574206f776e2076616c696461746f727300000000600082015250565b600062000df1601c8362000da8565b915062000dfe8262000db9565b602082019050919050565b6000602082019050818103600083015262000e248162000de2565b9050919050565b6130028062000e3b6000396000f3fe60806040526004361061007b5760003560e01c8063724ac6b01161004e578063724ac6b014610140578063d04a68c71461017e578063d6fdc127146101bb578063fa52c7d8146101d75761007b565b80631904bb2e1461008057806319d8024f146100bd5780634d99dd16146100fb5780635c19a95c14610124575b600080fd5b34801561008c57600080fd5b506100a760048036038101906100a2919061213f565b610215565b6040516100b49190612307565b60405180910390f35b3480156100c957600080fd5b506100e460048036038101906100df9190612365565b61048c565b6040516100f292919061254f565b60405180910390f35b34801561010757600080fd5b50610122600480360381019061011d91906125ab565b610985565b005b61013e6004803603810190610139919061213f565b610c54565b005b34801561014c57600080fd5b50610167600480360381019061016291906125eb565b610f2f565b60405161017592919061254f565b60405180910390f35b34801561018a57600080fd5b506101a560048036038101906101a0919061213f565b6114fd565b6040516101b2919061262b565b60405180910390f35b6101d560048036038101906101d09190612807565b6115d4565b005b3480156101e357600080fd5b506101fe60048036038101906101f9919061213f565b611da8565b60405161020c92919061291d565b60405180910390f35b61021d611fd9565b61023167f1da374149b43baa60c01b611fd6565b6102456774babfaaacee353f60c01b611fd6565b6102596753da1bb984b9b0f260c01b611fd6565b6000808373ffffffffffffffffffffffffffffffffffffffff1673ffffffffffffffffffffffffffffffffffffffff1681526020019081526020016000206001016040518060e001604052908160008201548152602001600182015481526020016002820160009054906101000a900461ffff1661ffff1661ffff1681526020016002820160029054906101000a900467ffffffffffffffff1667ffffffffffffffff1667ffffffffffffffff16815260200160028201600a9054906101000a900473ffffffffffffffffffffffffffffffffffffffff1673ffffffffffffffffffffffffffffffffffffffff1673ffffffffffffffffffffffffffffffffffffffff1681526020016003820180546103719061297c565b80601f016020809104026020016040519081016040528092919081815260200182805461039d9061297c565b80156103ea5780601f106103bf576101008083540402835291602001916103ea565b820191906000526020600020905b8154815290600101906020018083116103cd57829003601f168201915b505050505081526020016004820180546104039061297c565b80601f016020809104026020016040519081016040528092919081815260200182805461042f9061297c565b801561047c5780601f106104515761010080835404028352916020019161047c565b820191906000526020600020905b81548152906001019060200180831161045f57829003601f168201915b5050505050815250509050919050565b606060006104a4676af114a322d2e8e560c01b611fd6565b6104b8678a103bded23e802960c01b611fd6565b6104cc6743fdf0346226550060c01b611fd6565b60008363ffffffff160361058b576104ee676915ac394205e99960c01b611fd6565b6105026765363be39c6a14fa60c01b611fd6565b610516676fc2a76053a58af660c01b611fd6565b6064600180549050101561055957610538670d9fda750d44f9bd60c01b611fd6565b61054c672831cf16cc2ff8c660c01b611fd6565b6001805490509250610586565b61056d675b7b9617e392658960c01b611fd6565b61058167615a06d58289a5b860c01b611fd6565b606492505b6105a0565b61059f674ac6b8f3f2c7439360c01b611fd6565b5b6105b4674da6e8228f8fe83160c01b611fd6565b6105c8675420360c6e6a6a6760c01b611fd6565b60008363ffffffff1667ffffffffffffffff8111156105ea576105e9612650565b5b60405190808252806020026020018201604052801561062357816020015b61061061203a565b8152602001906001900390816106085790505b50905061063a67344f4a7e2a26938e60c01b611fd6565b61064e676f4f23967d65a14160c01b611fd6565b60005b8463ffffffff168160ff16101561094f57610676674647b86fdd9ad97260c01b611fd6565b604051806040016040528060018360ff1681548110610698576106976129ad565b5b906000526020600020906006020160000160009054906101000a900473ffffffffffffffffffffffffffffffffffffffff1673ffffffffffffffffffffffffffffffffffffffff16815260200160018360ff16815481106106fc576106fb6129ad565b5b90600052602060002090600602016001016040518060e001604052908160008201548152602001600182015481526020016002820160009054906101000a900461ffff1661ffff1661ffff1681526020016002820160029054906101000a900467ffffffffffffffff1667ffffffffffffffff1667ffffffffffffffff16815260200160028201600a9054906101000a900473ffffffffffffffffffffffffffffffffffffffff1673ffffffffffffffffffffffffffffffffffffffff1673ffffffffffffffffffffffffffffffffffffffff1681526020016003820180546107e49061297c565b80601f01602080910402602001604051908101604052809291908181526020018280546108109061297c565b801561085d5780601f106108325761010080835404028352916020019161085d565b820191906000526020600020905b81548152906001019060200180831161084057829003601f168201915b505050505081526020016004820180546108769061297c565b80601f01602080910402602001604051908101604052809291908181526020018280546108a29061297c565b80156108ef5780601f106108c4576101008083540402835291602001916108ef565b820191906000526020600020905b8154815290600101906020018083116108d257829003601f168201915b505050505081525050815250828260ff1681518110610911576109106129ad565b5b6020026020010181905250610930671332b67fb6b8fb9460c01b611fd6565b61094467ab31e96b2c93329660c01b611fd6565b806001019050610651565b50610964674178ef77e54199f660c01b611fd6565b610978674e2d3b1ce8b3a56760c01b611fd6565b8060009250925050915091565b61099967517bd9b2a850a01460c01b611fd6565b6109ad6731605a1761a65a3d60c01b611fd6565b6109c167fa0a78439b3b0c6b60c01b611fd6565b6109d5673cb77cc71f8bbc3160c01b611fd6565b600073ffffffffffffffffffffffffffffffffffffffff166000808473ffffffffffffffffffffffffffffffffffffffff1673ffffffffffffffffffffffffffffffffffffffff16815260200190815260200160002060000160009054906101000a900473ffffffffffffffffffffffffffffffffffffffff1673ffffffffffffffffffffffffffffffffffffffff1603610aa5576040517f08c379a0000000000000000000000000000000000000000000000000000000008152600401610a9c90612a39565b60405180910390fd5b610ab9672dc408a74a4b3cc060c01b611fd6565b610acd678b576e2b6494512a60c01b611fd6565b6000808373ffffffffffffffffffffffffffffffffffffffff1673ffffffffffffffffffffffffffffffffffffffff168152602001908152602001600020600080820160006101000a81549073ffffffffffffffffffffffffffffffffffffffff02191690556001820160008082016000905560018201600090556002820160006101000a81549061ffff02191690556002820160026101000a81549067ffffffffffffffff021916905560028201600a6101000a81549073ffffffffffffffffffffffffffffffffffffffff0219169055600382016000610baf9190612070565b600482016000610bbf9190612070565b50505050610bd7678c9ddc588fd400fb60c01b611fd6565b610beb67b8c4d87cbf8c628360c01b611fd6565b8173ffffffffffffffffffffffffffffffffffffffff163373ffffffffffffffffffffffffffffffffffffffff167f4d10bd049775c77bd7f255195afba5088028ecb3c7c277d393ccff7934f2f92c83604051610c489190612a68565b60405180910390a35050565b610c6867b640fb6776cc96d760c01b611fd6565b610c7c67b16d9b4387c7b17860c01b611fd6565b610c9067ad4b78ea86797d4460c01b611fd6565b60008060008373ffffffffffffffffffffffffffffffffffffffff1673ffffffffffffffffffffffffffffffffffffffff1681526020019081526020016000209050610ce6670afc3022f02cb9cb60c01b611fd6565b610cfa67a845b0db435626ed60c01b611fd6565b610d0e67b2c49e497f40522b60c01b611fd6565b600073ffffffffffffffffffffffffffffffffffffffff168160000160009054906101000a900473ffffffffffffffffffffffffffffffffffffffff1673ffffffffffffffffffffffffffffffffffffffff1603610da1576040517f08c379a0000000000000000000000000000000000000000000000000000000008152600401610d9890612a39565b60405180910390fd5b610db567fe8ec07fb24c637a60c01b611fd6565b610dc96768fab90a3bb38a7d60c01b611fd6565b610ddd671e8ea791bc382feb60c01b611fd6565b610df167a355729da34068db60c01b611fd6565b60003411610e34576040517f08c379a0000000000000000000000000000000000000000000000000000000008152600401610e2b90612acf565b60405180910390fd5b610e4867a21d15c2c0eb59e160c01b611fd6565b610e5c67516f6ac3630ee96e60c01b611fd6565b34816001016000016000828254610e739190612b1e565b92505081905550610e8e677d736ba8205ffeac60c01b611fd6565b610ea26736cfbccc076fb7f460c01b611fd6565b8060000160009054906101000a900473ffffffffffffffffffffffffffffffffffffffff1673ffffffffffffffffffffffffffffffffffffffff163373ffffffffffffffffffffffffffffffffffffffff167fe5541a6b6103d4fa7e021ed54fad39c66f27a76bd13d374cf6240ae6bd0bb72b34604051610f239190612a68565b60405180910390a35050565b60606000610f4767919ea704657c955060c01b611fd6565b610f5b67c652ebbdacedd35460c01b611fd6565b610f6f676033a61c0e7333e160c01b611fd6565b60008363ffffffff160361102e57610f91674efb1883c962cf0c60c01b611fd6565b610fa567ac770514e198f5c360c01b611fd6565b610fb967499e5fc2c7976e4760c01b611fd6565b60646001805490501015610ffc57610fdb673e35d13004dffc9460c01b611fd6565b610fef6729af34e6badd0e5160c01b611fd6565b6001805490509250611029565b611010673041045eaceef33e60c01b611fd6565b61102467bd9d7f1e1b57a55760c01b611fd6565b606492505b611043565b61104267e1adea69d7792e5060c01b611fd6565b5b61105767b9fbf5e2a08cc8cb60c01b611fd6565b61106b67feb6a674d4b642de60c01b611fd6565b60008363ffffffff1667ffffffffffffffff81111561108d5761108c612650565b5b6040519080825280602002602001820160405280156110c657816020015b6110b361203a565b8152602001906001900390816110ab5790505b5090506110dd67199b69f8d820637960c01b611fd6565b6110f1674d901454cd4bb58a60c01b611fd6565b60005b8463ffffffff168160ff1610156114c5576111196727105d557c4a55e560c01b611fd6565b61112d67f9ef5b123c8c7f1b60c01b611fd6565b8573ffffffffffffffffffffffffffffffffffffffff1660018260ff168154811061115b5761115a6129ad565b5b9060005260206000209060060201600101600201600a9054906101000a900473ffffffffffffffffffffffffffffffffffffffff1673ffffffffffffffffffffffffffffffffffffffff160361147d576111bf6714ff2fd9b6083abd60c01b611fd6565b6111d2661ba2d07803ea8660c01b611fd6565b604051806040016040528060018360ff16815481106111f4576111f36129ad565b5b906000526020600020906006020160000160009054906101000a900473ffffffffffffffffffffffffffffffffffffffff1673ffffffffffffffffffffffffffffffffffffffff16815260200160018360ff1681548110611258576112576129ad565b5b90600052602060002090600602016001016040518060e001604052908160008201548152602001600182015481526020016002820160009054906101000a900461ffff1661ffff1661ffff1681526020016002820160029054906101000a900467ffffffffffffffff1667ffffffffffffffff1667ffffffffffffffff16815260200160028201600a9054906101000a900473ffffffffffffffffffffffffffffffffffffffff1673ffffffffffffffffffffffffffffffffffffffff1673ffffffffffffffffffffffffffffffffffffffff1681526020016003820180546113409061297c565b80601f016020809104026020016040519081016040528092919081815260200182805461136c9061297c565b80156113b95780601f1061138e576101008083540402835291602001916113b9565b820191906000526020600020905b81548152906001019060200180831161139c57829003601f168201915b505050505081526020016004820180546113d29061297c565b80601f01602080910402602001604051908101604052809291908181526020018280546113fe9061297c565b801561144b5780601f106114205761010080835404028352916020019161144b565b820191906000526020600020905b81548152906001019060200180831161142e57829003601f168201915b505050505081525050815250828260ff168151811061146d5761146c6129ad565b5b6020026020010181905250611492565b6114916712fe3b8ecce710a260c01b611fd6565b5b6114a66788ae34c3ec77704960c01b611fd6565b6114ba67f8cb916a4364440c60c01b611fd6565b8060010190506110f4565b506114da67a8f0c85871b5f0ce60c01b611fd6565b6114ee67a4f5cb928f13f54d60c01b611fd6565b80600092509250509250929050565b600061151367920b03665835eac160c01b611fd6565b611527670772aea7b73b231960c01b611fd6565b61153b6744860b8834cbda5560c01b611fd6565b600073ffffffffffffffffffffffffffffffffffffffff166000808473ffffffffffffffffffffffffffffffffffffffff1673ffffffffffffffffffffffffffffffffffffffff16815260200190815260200160002060000160009054906101000a900473ffffffffffffffffffffffffffffffffffffffff1673ffffffffffffffffffffffffffffffffffffffff1614159050919050565b6115e8673c4d3e048038c24d60c01b611fd6565b6115fc67c7bc6d72b0bcbc9760c01b611fd6565b61161067916b834b3e13c87460c01b611fd6565b61162467a5295d9572cf50fa60c01b611fd6565b6000875103611668576040517f08c379a000000000000000000000000000000000000000000000000000000000815260040161165f90612b9e565b60405180910390fd5b61167c67a3eb247ceb99160760c01b611fd6565b6116906785ba6d458ab2836760c01b611fd6565b6116a4677a3b44e3b823bf0460c01b611fd6565b6116b8677735dc116a7f000e60c01b611fd6565b60008651036116fc576040517f08c379a00000000000000000000000000000000000000000000000000000000081526004016116f390612c0a565b60405180910390fd5b611710673d299c8dd60233ad60c01b611fd6565b61172467d78c20bafb0996e360c01b611fd6565b61173867d6e9d8aa30371f5f60c01b611fd6565b61174c67502cc428443d2cbf60c01b611fd6565b600073ffffffffffffffffffffffffffffffffffffffff166000808a73ffffffffffffffffffffffffffffffffffffffff1673ffffffffffffffffffffffffffffffffffffffff16815260200190815260200160002060000160009054906101000a900473ffffffffffffffffffffffffffffffffffffffff1673ffffffffffffffffffffffffffffffffffffffff161461181c576040517f08c379a000000000000000000000000000000000000000000000000000000000815260040161181390612c9c565b60405180910390fd5b6118306744031ef3ab19503a60c01b611fd6565b61184467e01b328cfe17587160c01b611fd6565b61185867846a4838b995970160c01b611fd6565b61186c67c21067d54675ab1860c01b611fd6565b683635c9adc5dea000003410156118b8576040517f08c379a00000000000000000000000000000000000000000000000000000000081526004016118af90612d2e565b60405180910390fd5b6118cc6732137184e709914a60c01b611fd6565b6118e067aa624e0ad24e93ff60c01b611fd6565b6118f467bc3964a7c2f3e83260c01b611fd6565b60006040518060e00160405280348152602001600081526020018761ffff1681526020014367ffffffffffffffff1681526020013373ffffffffffffffffffffffffffffffffffffffff16815260200186868080601f016020809104026020016040519081016040528093929190818152602001838380828437600081840152601f19601f82011690508083019250505050505050815260200184848080601f016020809104026020016040519081016040528093929190818152602001838380828437600081840152601f19601f8201169050808301925050505050505081525090506119ec677b959804d0bada1860c01b611fd6565b611a00673fede4fe7e51c55460c01b611fd6565b600060405180604001604052808b73ffffffffffffffffffffffffffffffffffffffff168152602001838152509050611a4367a166f481d3ae9c8c60c01b611fd6565b806000808c73ffffffffffffffffffffffffffffffffffffffff1673ffffffffffffffffffffffffffffffffffffffff16815260200190815260200160002060008201518160000160006101000a81548173ffffffffffffffffffffffffffffffffffffffff021916908373ffffffffffffffffffffffffffffffffffffffff160217905550602082015181600101600082015181600001556020820151816001015560408201518160020160006101000a81548161ffff021916908361ffff16021790555060608201518160020160026101000a81548167ffffffffffffffff021916908367ffffffffffffffff160217905550608082015181600201600a6101000a81548173ffffffffffffffffffffffffffffffffffffffff021916908373ffffffffffffffffffffffffffffffffffffffff16021790555060a0820151816003019081611b949190612efa565b5060c0820151816004019081611baa9190612efa565b505050905050611bc467bcc576d79c2bce0d60c01b611fd6565b611bd867d9d0237e4caccd0f60c01b611fd6565b600181908060018154018082558091505060019003906000526020600020906006020160009091909190915060008201518160000160006101000a81548173ffffffffffffffffffffffffffffffffffffffff021916908373ffffffffffffffffffffffffffffffffffffffff160217905550602082015181600101600082015181600001556020820151816001015560408201518160020160006101000a81548161ffff021916908361ffff16021790555060608201518160020160026101000a81548167ffffffffffffffff021916908367ffffffffffffffff160217905550608082015181600201600a6101000a81548173ffffffffffffffffffffffffffffffffffffffff021916908373ffffffffffffffffffffffffffffffffffffffff16021790555060a0820151816003019081611d169190612efa565b5060c0820151816004019081611d2c9190612efa565b5050505050611d4567e9828446dad641b660c01b611fd6565b611d5967b487d6eb4ca6e7fd60c01b611fd6565b8973ffffffffffffffffffffffffffffffffffffffff167fd09501348473474a20c772c79c653e1fd7e8b437e418fe235d277d2c8885325160405160405180910390a250505050505050505050565b60006020528060005260406000206000915090508060000160009054906101000a900473ffffffffffffffffffffffffffffffffffffffff1690806001016040518060e001604052908160008201548152602001600182015481526020016002820160009054906101000a900461ffff1661ffff1661ffff1681526020016002820160029054906101000a900467ffffffffffffffff1667ffffffffffffffff1667ffffffffffffffff16815260200160028201600a9054906101000a900473ffffffffffffffffffffffffffffffffffffffff1673ffffffffffffffffffffffffffffffffffffffff1673ffffffffffffffffffffffffffffffffffffffff168152602001600382018054611ebd9061297c565b80601f0160208091040260200160405190810160405280929190818152602001828054611ee99061297c565b8015611f365780601f10611f0b57610100808354040283529160200191611f36565b820191906000526020600020905b815481529060010190602001808311611f1957829003601f168201915b50505050508152602001600482018054611f4f9061297c565b80601f0160208091040260200160405190810160405280929190818152602001828054611f7b9061297c565b8015611fc85780601f10611f9d57610100808354040283529160200191611fc8565b820191906000526020600020905b815481529060010190602001808311611fab57829003601f168201915b505050505081525050905082565b50565b6040518060e001604052806000815260200160008152602001600061ffff168152602001600067ffffffffffffffff168152602001600073ffffffffffffffffffffffffffffffffffffffff16815260200160608152602001606081525090565b6040518060400160405280600073ffffffffffffffffffffffffffffffffffffffff16815260200161206a611fd9565b81525090565b50805461207c9061297c565b6000825580601f1061208e57506120ad565b601f0160209004906000526020600020908101906120ac91906120b0565b5b50565b5b808211156120c95760008160009055506001016120b1565b5090565b6000604051905090565b600080fd5b600080fd5b600073ffffffffffffffffffffffffffffffffffffffff82169050919050565b600061210c826120e1565b9050919050565b61211c81612101565b811461212757600080fd5b50565b60008135905061213981612113565b92915050565b600060208284031215612155576121546120d7565b5b60006121638482850161212a565b91505092915050565b6000819050919050565b61217f8161216c565b82525050565b600061ffff82169050919050565b61219c81612185565b82525050565b600067ffffffffffffffff82169050919050565b6121bf816121a2565b82525050565b6121ce81612101565b82525050565b600081519050919050565b600082825260208201905092915050565b60005b8381101561220e5780820151818401526020810190506121f3565b60008484015250505050565b6000601f19601f8301169050919050565b6000612236826121d4565b61224081856121df565b93506122508185602086016121f0565b6122598161221a565b840191505092915050565b600060e08301600083015161227c6000860182612176565b50602083015161228f6020860182612176565b5060408301516122a26040860182612193565b5060608301516122b560608601826121b6565b5060808301516122c860808601826121c5565b5060a083015184820360a08601526122e0828261222b565b91505060c083015184820360c08601526122fa828261222b565b9150508091505092915050565b600060208201905081810360008301526123218184612264565b905092915050565b600063ffffffff82169050919050565b61234281612329565b811461234d57600080fd5b50565b60008135905061235f81612339565b92915050565b60006020828403121561237b5761237a6120d7565b5b600061238984828501612350565b91505092915050565b600081519050919050565b600082825260208201905092915050565b6000819050602082019050919050565b600060e0830160008301516123d66000860182612176565b5060208301516123e96020860182612176565b5060408301516123fc6040860182612193565b50606083015161240f60608601826121b6565b50608083015161242260808601826121c5565b5060a083015184820360a086015261243a828261222b565b91505060c083015184820360c0860152612454828261222b565b9150508091505092915050565b600060408301600083015161247960008601826121c5565b506020830151848203602086015261249182826123be565b9150508091505092915050565b60006124aa8383612461565b905092915050565b6000602082019050919050565b60006124ca82612392565b6124d4818561239d565b9350836020820285016124e6856123ae565b8060005b858110156125225784840389528151612503858261249e565b945061250e836124b2565b925060208a019950506001810190506124ea565b50829750879550505050505092915050565b60008115159050919050565b61254981612534565b82525050565b6000604082019050818103600083015261256981856124bf565b90506125786020830184612540565b9392505050565b6125888161216c565b811461259357600080fd5b50565b6000813590506125a58161257f565b92915050565b600080604083850312156125c2576125c16120d7565b5b60006125d08582860161212a565b92505060206125e185828601612596565b9150509250929050565b60008060408385031215612602576126016120d7565b5b60006126108582860161212a565b925050602061262185828601612350565b9150509250929050565b60006020820190506126406000830184612540565b92915050565b600080fd5b600080fd5b7f4e487b7100000000000000000000000000000000000000000000000000000000600052604160045260246000fd5b6126888261221a565b810181811067ffffffffffffffff821117156126a7576126a6612650565b5b80604052505050565b60006126ba6120cd565b90506126c6828261267f565b919050565b600067ffffffffffffffff8211156126e6576126e5612650565b5b6126ef8261221a565b9050602081019050919050565b82818337600083830152505050565b600061271e612719846126cb565b6126b0565b90508281526020810184848401111561273a5761273961264b565b5b6127458482856126fc565b509392505050565b600082601f83011261276257612761612646565b5b813561277284826020860161270b565b91505092915050565b61278481612185565b811461278f57600080fd5b50565b6000813590506127a18161277b565b92915050565b600080fd5b600080fd5b60008083601f8401126127c7576127c6612646565b5b8235905067ffffffffffffffff8111156127e4576127e36127a7565b5b602083019150836001820283011115612800576127ff6127ac565b5b9250929050565b60008060008060008060008060c0898b031215612827576128266120d7565b5b60006128358b828c0161212a565b985050602089013567ffffffffffffffff811115612856576128556120dc565b5b6128628b828c0161274d565b975050604089013567ffffffffffffffff811115612883576128826120dc565b5b61288f8b828c0161274d565b96505060606128a08b828c01612792565b955050608089013567ffffffffffffffff8111156128c1576128c06120dc565b5b6128cd8b828c016127b1565b945094505060a089013567ffffffffffffffff8111156128f0576128ef6120dc565b5b6128fc8b828c016127b1565b92509250509295985092959890939650565b61291781612101565b82525050565b6000604082019050612932600083018561290e565b81810360208301526129448184612264565b90509392505050565b7f4e487b7100000000000000000000000000000000000000000000000000000000600052602260045260246000fd5b6000600282049050600182168061299457607f821691505b6020821081036129a7576129a661294d565b5b50919050565b7f4e487b7100000000000000000000000000000000000000000000000000000000600052603260045260246000fd5b600082825260208201905092915050565b7f56616c696461746f7220646f65736e2774206578697374000000000000000000600082015250565b6000612a236017836129dc565b9150612a2e826129ed565b602082019050919050565b60006020820190508181036000830152612a5281612a16565b9050919050565b612a628161216c565b82525050565b6000602082019050612a7d6000830184612a59565b92915050565b7f44656c65676174696f6e2076616c7565206e6f742070726f7669646564000000600082015250565b6000612ab9601d836129dc565b9150612ac482612a83565b602082019050919050565b60006020820190508181036000830152612ae881612aac565b9050919050565b7f4e487b7100000000000000000000000000000000000000000000000000000000600052601160045260246000fd5b6000612b298261216c565b9150612b348361216c565b9250828201905080821115612b4c57612b4b612aef565b5b92915050565b7f496e76616c69642070726f6f6600000000000000000000000000000000000000600082015250565b6000612b88600d836129dc565b9150612b9382612b52565b602082019050919050565b60006020820190508181036000830152612bb781612b7b565b9050919050565b7f565246205075626c6963206b6579206e6f7420706f7276696465640000000000600082015250565b6000612bf4601b836129dc565b9150612bff82612bbe565b602082019050919050565b60006020820190508181036000830152612c2381612be7565b9050919050565b7f44504f533a2056616c696461746f7220616c726561647920726567697374657260008201527f6564000000000000000000000000000000000000000000000000000000000000602082015250565b6000612c866022836129dc565b9150612c9182612c2a565b604082019050919050565b60006020820190508181036000830152612cb581612c79565b9050919050565b7f426173652064656c65676174696f6e2076616c7565206e6f742070726f76696460008201527f6564000000000000000000000000000000000000000000000000000000000000602082015250565b6000612d186022836129dc565b9150612d2382612cbc565b604082019050919050565b60006020820190508181036000830152612d4781612d0b565b9050919050565b60008190508160005260206000209050919050565b60006020601f8301049050919050565b600082821b905092915050565b600060088302612db07fffffffffffffffffffffffffffffffffffffffffffffffffffffffffffffffff82612d73565b612dba8683612d73565b95508019841693508086168417925050509392505050565b6000819050919050565b6000612df7612df2612ded8461216c565b612dd2565b61216c565b9050919050565b6000819050919050565b612e1183612ddc565b612e25612e1d82612dfe565b848454612d80565b825550505050565b600090565b612e3a612e2d565b612e45818484612e08565b505050565b5b81811015612e6957612e5e600082612e32565b600181019050612e4b565b5050565b601f821115612eae57612e7f81612d4e565b612e8884612d63565b81016020851015612e97578190505b612eab612ea385612d63565b830182612e4a565b50505b505050565b600082821c905092915050565b6000612ed160001984600802612eb3565b1980831691505092915050565b6000612eea8383612ec0565b9150826002028217905092915050565b612f03826121d4565b67ffffffffffffffff811115612f1c57612f1b612650565b5b612f26825461297c565b612f31828285612e6d565b600060209050601f831160018114612f645760008415612f52578287015190505b612f5c8582612ede565b865550612fc4565b601f198416612f7286612d4e565b60005b82811015612f9a57848901518255600182019150602085019450602081019050612f75565b86831015612fb75784890151612fb3601f891682612ec0565b8355505b6001600288020188555050505b50505050505056fea2646970667358221220ca8d6436d5a2254066d79dc16ad1379acf93222bdf7fb11a90d59cb376acee9664736f6c63430008120033",
  "linkReferences": {},
  "deployedLinkReferences": {}
}