{
  "_format": "hh-sol-artifact-1",
  "contractName": "MockDpos",
  "sourceName": "contracts/mocks/MockDpos.sol",
  "abi": [
    {
      "inputs": [
        {
          "internalType": "address[]",
          "name": "_internalValidators",
          "type": "address[]"
        }
      ],
      "stateMutability": "payable",
      "type": "constructor"
    },
    {
      "anonymous": false,
      "inputs": [
        {
          "indexed": true,
          "internalType": "address",
          "name": "account",
          "type": "address"
        },
        {
          "indexed": true,
          "internalType": "address",
          "name": "validator",
          "type": "address"
        }
      ],
      "name": "CommissionRewardsClaimed",
      "type": "event"
    },
    {
      "anonymous": false,
      "inputs": [
        {
          "indexed": true,
          "internalType": "address",
          "name": "validator",
          "type": "address"
        },
        {
          "indexed": false,
          "internalType": "uint16",
          "name": "comission",
          "type": "uint16"
        }
      ],
      "name": "CommissionSet",
      "type": "event"
    },
    {
      "anonymous": false,
      "inputs": [
        {
          "indexed": true,
          "internalType": "address",
          "name": "delegator",
          "type": "address"
        },
        {
          "indexed": true,
          "internalType": "address",
          "name": "validator",
          "type": "address"
        },
        {
          "indexed": false,
          "internalType": "uint256",
          "name": "amount",
          "type": "uint256"
        }
      ],
      "name": "Delegated",
      "type": "event"
    },
    {
      "anonymous": false,
      "inputs": [
        {
          "indexed": true,
          "internalType": "address",
          "name": "delegator",
          "type": "address"
        },
        {
          "indexed": true,
          "internalType": "address",
          "name": "from",
          "type": "address"
        },
        {
          "indexed": true,
          "internalType": "address",
          "name": "to",
          "type": "address"
        },
        {
          "indexed": false,
          "internalType": "uint256",
          "name": "amount",
          "type": "uint256"
        }
      ],
      "name": "Redelegated",
      "type": "event"
    },
    {
      "anonymous": false,
      "inputs": [
        {
          "indexed": true,
          "internalType": "address",
          "name": "account",
          "type": "address"
        },
        {
          "indexed": true,
          "internalType": "address",
          "name": "validator",
          "type": "address"
        }
      ],
      "name": "RewardsClaimed",
      "type": "event"
    },
    {
      "anonymous": false,
      "inputs": [
        {
          "indexed": true,
          "internalType": "address",
          "name": "delegator",
          "type": "address"
        },
        {
          "indexed": true,
          "internalType": "address",
          "name": "validator",
          "type": "address"
        },
        {
          "indexed": false,
          "internalType": "uint256",
          "name": "amount",
          "type": "uint256"
        }
      ],
      "name": "UndelegateCanceled",
      "type": "event"
    },
    {
      "anonymous": false,
      "inputs": [
        {
          "indexed": true,
          "internalType": "address",
          "name": "delegator",
          "type": "address"
        },
        {
          "indexed": true,
          "internalType": "address",
          "name": "validator",
          "type": "address"
        },
        {
          "indexed": false,
          "internalType": "uint256",
          "name": "amount",
          "type": "uint256"
        }
      ],
      "name": "UndelegateConfirmed",
      "type": "event"
    },
    {
      "anonymous": false,
      "inputs": [
        {
          "indexed": true,
          "internalType": "address",
          "name": "delegator",
          "type": "address"
        },
        {
          "indexed": true,
          "internalType": "address",
          "name": "validator",
          "type": "address"
        },
        {
          "indexed": false,
          "internalType": "uint256",
          "name": "amount",
          "type": "uint256"
        }
      ],
      "name": "Undelegated",
      "type": "event"
    },
    {
      "anonymous": false,
      "inputs": [
        {
          "indexed": true,
          "internalType": "address",
          "name": "validator",
          "type": "address"
        }
      ],
      "name": "ValidatorInfoSet",
      "type": "event"
    },
    {
      "anonymous": false,
      "inputs": [
        {
          "indexed": true,
          "internalType": "address",
          "name": "validator",
          "type": "address"
        }
      ],
      "name": "ValidatorRegistered",
      "type": "event"
    },
    {
      "inputs": [
        {
          "internalType": "address",
          "name": "validator",
          "type": "address"
        }
      ],
      "name": "delegate",
      "outputs": [],
      "stateMutability": "payable",
      "type": "function"
    },
    {
      "inputs": [
        {
          "internalType": "address",
          "name": "validator",
          "type": "address"
        }
      ],
      "name": "getValidator",
      "outputs": [
        {
          "components": [
            {
              "internalType": "uint256",
              "name": "total_stake",
              "type": "uint256"
            },
            {
              "internalType": "uint256",
              "name": "commission_reward",
              "type": "uint256"
            },
            {
              "internalType": "uint16",
              "name": "commission",
              "type": "uint16"
            },
            {
              "internalType": "uint64",
              "name": "last_commission_change",
              "type": "uint64"
            },
            {
              "internalType": "address",
              "name": "owner",
              "type": "address"
            },
            {
              "internalType": "string",
              "name": "description",
              "type": "string"
            },
            {
              "internalType": "string",
              "name": "endpoint",
              "type": "string"
            }
          ],
          "internalType": "struct MockIDPOS.ValidatorBasicInfo",
          "name": "",
          "type": "tuple"
        }
      ],
      "stateMutability": "view",
      "type": "function"
    },
    {
      "inputs": [
        {
          "internalType": "uint32",
          "name": "batch",
          "type": "uint32"
        }
      ],
      "name": "getValidators",
      "outputs": [
        {
          "components": [
            {
              "internalType": "address",
              "name": "account",
              "type": "address"
            },
            {
              "components": [
                {
                  "internalType": "uint256",
                  "name": "total_stake",
                  "type": "uint256"
                },
                {
                  "internalType": "uint256",
                  "name": "commission_reward",
                  "type": "uint256"
                },
                {
                  "internalType": "uint16",
                  "name": "commission",
                  "type": "uint16"
                },
                {
                  "internalType": "uint64",
                  "name": "last_commission_change",
                  "type": "uint64"
                },
                {
                  "internalType": "address",
                  "name": "owner",
                  "type": "address"
                },
                {
                  "internalType": "string",
                  "name": "description",
                  "type": "string"
                },
                {
                  "internalType": "string",
                  "name": "endpoint",
                  "type": "string"
                }
              ],
              "internalType": "struct MockIDPOS.ValidatorBasicInfo",
              "name": "info",
              "type": "tuple"
            }
          ],
          "internalType": "struct MockIDPOS.ValidatorData[]",
          "name": "validatorsOut",
          "type": "tuple[]"
        },
        {
          "internalType": "bool",
          "name": "end",
          "type": "bool"
        }
      ],
      "stateMutability": "view",
      "type": "function"
    },
    {
      "inputs": [
        {
          "internalType": "address",
          "name": "owner",
          "type": "address"
        },
        {
          "internalType": "uint32",
          "name": "batch",
          "type": "uint32"
        }
      ],
      "name": "getValidatorsFor",
      "outputs": [
        {
          "components": [
            {
              "internalType": "address",
              "name": "account",
              "type": "address"
            },
            {
              "components": [
                {
                  "internalType": "uint256",
                  "name": "total_stake",
                  "type": "uint256"
                },
                {
                  "internalType": "uint256",
                  "name": "commission_reward",
                  "type": "uint256"
                },
                {
                  "internalType": "uint16",
                  "name": "commission",
                  "type": "uint16"
                },
                {
                  "internalType": "uint64",
                  "name": "last_commission_change",
                  "type": "uint64"
                },
                {
                  "internalType": "address",
                  "name": "owner",
                  "type": "address"
                },
                {
                  "internalType": "string",
                  "name": "description",
                  "type": "string"
                },
                {
                  "internalType": "string",
                  "name": "endpoint",
                  "type": "string"
                }
              ],
              "internalType": "struct MockIDPOS.ValidatorBasicInfo",
              "name": "info",
              "type": "tuple"
            }
          ],
          "internalType": "struct MockIDPOS.ValidatorData[]",
          "name": "validatorsOut",
          "type": "tuple[]"
        },
        {
          "internalType": "bool",
          "name": "end",
          "type": "bool"
        }
      ],
      "stateMutability": "view",
      "type": "function"
    },
    {
      "inputs": [
        {
          "internalType": "address",
          "name": "validator",
          "type": "address"
        }
      ],
      "name": "isValidatorRegistered",
      "outputs": [
        {
          "internalType": "bool",
          "name": "",
          "type": "bool"
        }
      ],
      "stateMutability": "view",
      "type": "function"
    },
    {
      "inputs": [
        {
          "internalType": "address",
          "name": "validator",
          "type": "address"
        },
        {
          "internalType": "bytes",
          "name": "proof",
          "type": "bytes"
        },
        {
          "internalType": "bytes",
          "name": "vrf_key",
          "type": "bytes"
        },
        {
          "internalType": "uint16",
          "name": "commission",
          "type": "uint16"
        },
        {
          "internalType": "string",
          "name": "description",
          "type": "string"
        },
        {
          "internalType": "string",
          "name": "endpoint",
          "type": "string"
        }
      ],
      "name": "registerValidator",
      "outputs": [],
      "stateMutability": "payable",
      "type": "function"
    },
    {
      "inputs": [
        {
          "internalType": "address",
          "name": "validator",
          "type": "address"
        },
        {
          "internalType": "uint256",
          "name": "amount",
          "type": "uint256"
        }
      ],
      "name": "undelegate",
      "outputs": [],
      "stateMutability": "nonpayable",
      "type": "function"
    },
    {
      "inputs": [
        {
          "internalType": "address",
          "name": "",
          "type": "address"
        }
      ],
      "name": "validators",
      "outputs": [
        {
          "internalType": "address",
          "name": "account",
          "type": "address"
        },
        {
          "components": [
            {
              "internalType": "uint256",
              "name": "total_stake",
              "type": "uint256"
            },
            {
              "internalType": "uint256",
              "name": "commission_reward",
              "type": "uint256"
            },
            {
              "internalType": "uint16",
              "name": "commission",
              "type": "uint16"
            },
            {
              "internalType": "uint64",
              "name": "last_commission_change",
              "type": "uint64"
            },
            {
              "internalType": "address",
              "name": "owner",
              "type": "address"
            },
            {
              "internalType": "string",
              "name": "description",
              "type": "string"
            },
            {
              "internalType": "string",
              "name": "endpoint",
              "type": "string"
            }
          ],
          "internalType": "struct MockIDPOS.ValidatorBasicInfo",
          "name": "info",
          "type": "tuple"
        }
      ],
      "stateMutability": "view",
      "type": "function"
    }
  ],
  "bytecode": "0x6080604052604051620020c0380380620020c08339810160408190526200002691620004aa565b60005b8151811015620003c35760006040518060e001604052808451346200004f919062000592565b815260200160008152602001606461ffff168152602001436001600160401b03168152602001336001600160a01b031681526020016040518060400160405280601281526020017129b0b6b83632903232b9b1b934b83a34b7b760711b81525081526020016040518060400160405280601581526020017f68747470733a2f2f656e64706f696e742e736f6d650000000000000000000000815250815250905060006040518060400160405280858581518110620001115762000111620005b5565b60200260200101516001600160a01b0316815260200183815250905080600080868681518110620001465762000146620005b5565b6020908102919091018101516001600160a01b039081168352828201939093526040918201600020845181549085166001600160a01b03199091161781558482015180516001830190815592810151600283015592830151600382018054606086015160808701519097166a010000000000000000000002600160501b600160f01b03196001600160401b0390981662010000026001600160501b031990921661ffff9094169390931717959095161790935560a082015160048401906200020f90826200065a565b5060c082015160048201906200022690826200065a565b5050600180548082018255600091909152845160069091027fb10e2d527612073b26eecdfd717e6a320cf44b4afac2b0732d9fcbe2b7fa0cf6810180546001600160a01b039384166001600160a01b031990911617815560208088015180517fb10e2d527612073b26eecdfd717e6a320cf44b4afac2b0732d9fcbe2b7fa0cf78501908155918101517fb10e2d527612073b26eecdfd717e6a320cf44b4afac2b0732d9fcbe2b7fa0cf885015560408101517fb10e2d527612073b26eecdfd717e6a320cf44b4afac2b0732d9fcbe2b7fa0cf985018054606084015160808501519098166a010000000000000000000002600160501b600160f01b03196001600160401b0390991662010000026001600160501b031990921661ffff9094169390931717969096161790945560a08401518897509195509293507fb10e2d527612073b26eecdfd717e6a320cf44b4afac2b0732d9fcbe2b7fa0cfa909101906200039190826200065a565b5060c08201516004820190620003a890826200065a565b5050505050505080620003bb9062000726565b905062000029565b5060006001600160a01b03166000808360018551620003e3919062000742565b81518110620003f657620003f6620005b5565b6020908102919091018101516001600160a01b03908116835290820192909252604001600020541603620004705760405162461bcd60e51b815260206004820152601c60248201527f4661696c656420746f20736574206f776e2076616c696461746f727300000000604482015260640160405180910390fd5b506200075e565b634e487b7160e01b600052604160045260246000fd5b80516001600160a01b0381168114620004a557600080fd5b919050565b60006020808385031215620004be57600080fd5b82516001600160401b0380821115620004d657600080fd5b818501915085601f830112620004eb57600080fd5b81518181111562000500576200050062000477565b8060051b604051601f19603f8301168101818110858211171562000528576200052862000477565b6040529182528482019250838101850191888311156200054757600080fd5b938501935b82851015620005705762000560856200048d565b845293850193928501926200054c565b98975050505050505050565b634e487b7160e01b600052601160045260246000fd5b600082620005b057634e487b7160e01b600052601260045260246000fd5b500490565b634e487b7160e01b600052603260045260246000fd5b600181811c90821680620005e057607f821691505b6020821081036200060157634e487b7160e01b600052602260045260246000fd5b50919050565b601f8211156200065557600081815260208120601f850160051c81016020861015620006305750805b601f850160051c820191505b8181101562000651578281556001016200063c565b5050505b505050565b81516001600160401b0381111562000676576200067662000477565b6200068e81620006878454620005cb565b8462000607565b602080601f831160018114620006c65760008415620006ad5750858301515b600019600386901b1c1916600185901b17855562000651565b600085815260208120601f198616915b82811015620006f757888601518255948401946001909101908401620006d6565b5085821015620007165787850151600019600388901b60f8161c191681555b5050505050600190811b01905550565b6000600182016200073b576200073b6200057c565b5060010190565b818103818111156200075857620007586200057c565b92915050565b611952806200076e6000396000f3fe60806040526004361061007b5760003560e01c8063724ac6b01161004e578063724ac6b014610119578063d04a68c714610139578063d6fdc12714610184578063fa52c7d81461019757600080fd5b80631904bb2e1461008057806319d8024f146100b65780634d99dd16146100e45780635c19a95c14610106575b600080fd5b34801561008c57600080fd5b506100a061009b36600461138d565b6101c5565b6040516100ad9190611475565b60405180910390f35b3480156100c257600080fd5b506100d66100d136600461149c565b6103bd565b6040516100ad9291906114b7565b3480156100f057600080fd5b506101046100ff36600461153e565b610683565b005b61010461011436600461138d565b6107c2565b34801561012557600080fd5b506100d6610134366004611568565b6108d8565b34801561014557600080fd5b5061017461015436600461138d565b6001600160a01b0390811660009081526020819052604090205416151590565b60405190151581526020016100ad565b610104610192366004611692565b610bec565b3480156101a357600080fd5b506101b76101b236600461138d565b611102565b6040516100ad92919061176c565b61021c6040518060e001604052806000815260200160008152602001600061ffff168152602001600067ffffffffffffffff16815260200160006001600160a01b0316815260200160608152602001606081525090565b6001600160a01b0380831660009081526020818152604091829020825160e0810184526001820180548252600283015493820193909352600382015461ffff81169482019490945267ffffffffffffffff620100008504166060820152600160501b90930490931660808301526004909201805491929160a0840191906102a290611796565b80601f01602080910402602001604051908101604052809291908181526020018280546102ce90611796565b801561031b5780601f106102f05761010080835404028352916020019161031b565b820191906000526020600020905b8154815290600101906020018083116102fe57829003601f168201915b5050505050815260200160048201805461033490611796565b80601f016020809104026020016040519081016040528092919081815260200182805461036090611796565b80156103ad5780601f10610382576101008083540402835291602001916103ad565b820191906000526020600020905b81548152906001019060200180831161039057829003601f168201915b5050505050815250509050919050565b606060008263ffffffff166000036103e957600154606411156103e45760015492506103e9565b606492505b60008363ffffffff1667ffffffffffffffff81111561040a5761040a61159b565b60405190808252806020026020018201604052801561044357816020015b6104306112a4565b8152602001906001900390816104285790505b50905060005b8463ffffffff168160ff16101561067857604051806040016040528060018360ff168154811061047b5761047b6117d0565b6000918252602091829020600690910201546001600160a01b0316825260018054929091019160ff85169081106104b4576104b46117d0565b60009182526020918290206040805160e0810182526006939093029091016001810180548452600282015494840194909452600381015461ffff81169284019290925262010000820467ffffffffffffffff166060840152600160501b9091046001600160a01b03166080830152600401805491929160a08401919061053990611796565b80601f016020809104026020016040519081016040528092919081815260200182805461056590611796565b80156105b25780601f10610587576101008083540402835291602001916105b2565b820191906000526020600020905b81548152906001019060200180831161059557829003601f168201915b505050505081526020016004820180546105cb90611796565b80601f01602080910402602001604051908101604052809291908181526020018280546105f790611796565b80156106445780601f1061061957610100808354040283529160200191610644565b820191906000526020600020905b81548152906001019060200180831161062757829003601f168201915b505050505081525050815250828260ff1681518110610665576106656117d0565b6020908102919091010152600101610449565b509360009350915050565b6001600160a01b03828116600090815260208190526040902054166106ef5760405162461bcd60e51b815260206004820152601760248201527f56616c696461746f7220646f65736e277420657869737400000000000000000060448201526064015b60405180910390fd5b6001600160a01b0382166000908152602081905260408120805473ffffffffffffffffffffffffffffffffffffffff1916815560018101828155600282018390556003820180547fffff0000000000000000000000000000000000000000000000000000000000001690559091908161076b600485018261131b565b61077960048301600061131b565b50506040518381526001600160a01b03851692503391507f4d10bd049775c77bd7f255195afba5088028ecb3c7c277d393ccff7934f2f92c906020015b60405180910390a35050565b6001600160a01b038082166000908152602081905260409020805490911661082c5760405162461bcd60e51b815260206004820152601760248201527f56616c696461746f7220646f65736e277420657869737400000000000000000060448201526064016106e6565b6000341161087c5760405162461bcd60e51b815260206004820152601d60248201527f44656c65676174696f6e2076616c7565206e6f742070726f766964656400000060448201526064016106e6565b3481600101600001600082825461089391906117e6565b909155505080546040513481526001600160a01b039091169033907fe5541a6b6103d4fa7e021ed54fad39c66f27a76bd13d374cf6240ae6bd0bb72b906020016107b6565b606060008263ffffffff1660000361090457600154606411156108ff576001549250610904565b606492505b60008363ffffffff1667ffffffffffffffff8111156109255761092561159b565b60405190808252806020026020018201604052801561095e57816020015b61094b6112a4565b8152602001906001900390816109435790505b50905060005b8463ffffffff168160ff161015610bdd57856001600160a01b031660018260ff1681548110610995576109956117d0565b6000918252602090912060069091020160030154600160501b90046001600160a01b031603610bd557604051806040016040528060018360ff16815481106109df576109df6117d0565b6000918252602091829020600690910201546001600160a01b0316825260018054929091019160ff8516908110610a1857610a186117d0565b60009182526020918290206040805160e0810182526006939093029091016001810180548452600282015494840194909452600381015461ffff81169284019290925262010000820467ffffffffffffffff166060840152600160501b9091046001600160a01b03166080830152600401805491929160a084019190610a9d90611796565b80601f0160208091040260200160405190810160405280929190818152602001828054610ac990611796565b8015610b165780601f10610aeb57610100808354040283529160200191610b16565b820191906000526020600020905b815481529060010190602001808311610af957829003601f168201915b50505050508152602001600482018054610b2f90611796565b80601f0160208091040260200160405190810160405280929190818152602001828054610b5b90611796565b8015610ba85780601f10610b7d57610100808354040283529160200191610ba8565b820191906000526020600020905b815481529060010190602001808311610b8b57829003601f168201915b505050505081525050815250828260ff1681518110610bc957610bc96117d0565b60200260200101819052505b600101610964565b509150600090505b9250929050565b8651600003610c3d5760405162461bcd60e51b815260206004820152600d60248201527f496e76616c69642070726f6f660000000000000000000000000000000000000060448201526064016106e6565b8551600003610c8e5760405162461bcd60e51b815260206004820152601b60248201527f565246205075626c6963206b6579206e6f7420706f727669646564000000000060448201526064016106e6565b6001600160a01b038881166000908152602081905260409020541615610d015760405162461bcd60e51b815260206004820152602260248201527f44504f533a2056616c696461746f7220616c7265616479207265676973746572604482015261195960f21b60648201526084016106e6565b683635c9adc5dea00000341015610d655760405162461bcd60e51b815260206004820152602260248201527f426173652064656c65676174696f6e2076616c7565206e6f742070726f766964604482015261195960f21b60648201526084016106e6565b60006040518060e00160405280348152602001600081526020018761ffff1681526020014367ffffffffffffffff168152602001336001600160a01b0316815260200186868080601f016020809104026020016040519081016040528093929190818152602001838380828437600092019190915250505090825250604080516020601f87018190048102820181019092528581529181019190869086908190840183828082843760009201829052509390945250506040805180820182526001600160a01b03808f168083526020808401888152918652858152948490208351815490841673ffffffffffffffffffffffffffffffffffffffff1990911617815590518051600183019081559581015160028301559384015160038201805460608701516080880151909516600160501b027fffff0000000000000000000000000000000000000000ffffffffffffffffffff67ffffffffffffffff909616620100000269ffffffffffffffffffff1990921661ffff9094169390931717939093161790915560a083015195965090948594509092906004840190610f0b908261185c565b5060c08201516004820190610f20908261185c565b5050600180548082018255600091909152845160069091027fb10e2d527612073b26eecdfd717e6a320cf44b4afac2b0732d9fcbe2b7fa0cf6810180546001600160a01b0393841673ffffffffffffffffffffffffffffffffffffffff1990911617815560208088015180517fb10e2d527612073b26eecdfd717e6a320cf44b4afac2b0732d9fcbe2b7fa0cf78501908155918101517fb10e2d527612073b26eecdfd717e6a320cf44b4afac2b0732d9fcbe2b7fa0cf885015560408101517fb10e2d527612073b26eecdfd717e6a320cf44b4afac2b0732d9fcbe2b7fa0cf98501805460608401516080850151909816600160501b027fffff0000000000000000000000000000000000000000ffffffffffffffffffff67ffffffffffffffff909916620100000269ffffffffffffffffffff1990921661ffff9094169390931717969096161790945560a08401518897509195509293507fb10e2d527612073b26eecdfd717e6a320cf44b4afac2b0732d9fcbe2b7fa0cfa909101906110a8908261185c565b5060c082015160048201906110bd908261185c565b50506040516001600160a01b038e1693507fd09501348473474a20c772c79c653e1fd7e8b437e418fe235d277d2c88853251925060009150a250505050505050505050565b600060208181529181526040908190208054825160e0810184526001830180548252600284015495820195909552600383015461ffff81169482019490945267ffffffffffffffff620100008504166060820152600160501b9093046001600160a01b03908116608085015260048301805491909216949293929160a084019161118b90611796565b80601f01602080910402602001604051908101604052809291908181526020018280546111b790611796565b80156112045780601f106111d957610100808354040283529160200191611204565b820191906000526020600020905b8154815290600101906020018083116111e757829003601f168201915b5050505050815260200160048201805461121d90611796565b80601f016020809104026020016040519081016040528092919081815260200182805461124990611796565b80156112965780601f1061126b57610100808354040283529160200191611296565b820191906000526020600020905b81548152906001019060200180831161127957829003601f168201915b505050505081525050905082565b604051806040016040528060006001600160a01b031681526020016113166040518060e001604052806000815260200160008152602001600061ffff168152602001600067ffffffffffffffff16815260200160006001600160a01b0316815260200160608152602001606081525090565b905290565b50805461132790611796565b6000825580601f10611337575050565b601f0160209004906000526020600020908101906113559190611358565b50565b5b8082111561136d5760008155600101611359565b5090565b80356001600160a01b038116811461138857600080fd5b919050565b60006020828403121561139f57600080fd5b6113a882611371565b9392505050565b6000815180845260005b818110156113d5576020818501810151868301820152016113b9565b506000602082860101526020601f19601f83011685010191505092915050565b805182526020810151602083015261ffff604082015116604083015267ffffffffffffffff60608201511660608301526001600160a01b036080820151166080830152600060a082015160e060a085015261145360e08501826113af565b905060c083015184820360c086015261146c82826113af565b95945050505050565b6020815260006113a860208301846113f5565b803563ffffffff8116811461138857600080fd5b6000602082840312156114ae57600080fd5b6113a882611488565b6000604080830181845280865180835260608601915060608160051b8701019250602080890160005b8381101561152857888603605f19018552815180516001600160a01b03168752830151838701889052611515888801826113f5565b96505093820193908201906001016114e0565b5050961515959096019490945295945050505050565b6000806040838503121561155157600080fd5b61155a83611371565b946020939093013593505050565b6000806040838503121561157b57600080fd5b61158483611371565b915061159260208401611488565b90509250929050565b634e487b7160e01b600052604160045260246000fd5b600082601f8301126115c257600080fd5b813567ffffffffffffffff808211156115dd576115dd61159b565b604051601f8301601f19908116603f011681019082821181831017156116055761160561159b565b8160405283815286602085880101111561161e57600080fd5b836020870160208301376000602085830101528094505050505092915050565b803561ffff8116811461138857600080fd5b60008083601f84011261166257600080fd5b50813567ffffffffffffffff81111561167a57600080fd5b602083019150836020828501011115610be557600080fd5b60008060008060008060008060c0898b0312156116ae57600080fd5b6116b789611371565b9750602089013567ffffffffffffffff808211156116d457600080fd5b6116e08c838d016115b1565b985060408b01359150808211156116f657600080fd5b6117028c838d016115b1565b975061171060608c0161163e565b965060808b013591508082111561172657600080fd5b6117328c838d01611650565b909650945060a08b013591508082111561174b57600080fd5b506117588b828c01611650565b999c989b5096995094979396929594505050565b6001600160a01b038316815260406020820152600061178e60408301846113f5565b949350505050565b600181811c908216806117aa57607f821691505b6020821081036117ca57634e487b7160e01b600052602260045260246000fd5b50919050565b634e487b7160e01b600052603260045260246000fd5b8082018082111561180757634e487b7160e01b600052601160045260246000fd5b92915050565b601f82111561185757600081815260208120601f850160051c810160208610156118345750805b601f850160051c820191505b8181101561185357828155600101611840565b5050505b505050565b815167ffffffffffffffff8111156118765761187661159b565b61188a816118848454611796565b8461180d565b602080601f8311600181146118bf57600084156118a75750858301515b600019600386901b1c1916600185901b178555611853565b600085815260208120601f198616915b828110156118ee578886015182559484019460019091019084016118cf565b508582101561190c5787850151600019600388901b60f8161c191681555b5050505050600190811b0190555056fea2646970667358221220dd5996c1a05ef6440ecbe27ace00949b774efc9d904f95516407fc935440d2d664736f6c63430008120033",
  "linkReferences": {},
  "deployedLinkReferences": {}
}