{
  "_format": "hh-sol-artifact-1",
  "contractName": "DelegationOrchestrator",
  "sourceName": "contracts/DelegationOrchestrator.sol",
  "abi": [
    {
      "inputs": [
        {
          "internalType": "address[]",
          "name": "_internalValidators",
          "type": "address[]"
        },
        {
          "internalType": "address",
          "name": "_dpos",
          "type": "address"
        }
      ],
      "stateMutability": "payable",
      "type": "constructor"
    },
    {
      "anonymous": false,
      "inputs": [
        {
          "indexed": true,
          "internalType": "address",
          "name": "wallet",
          "type": "address"
        },
        {
          "indexed": true,
          "internalType": "address",
          "name": "delegator",
          "type": "address"
        },
        {
          "indexed": false,
          "internalType": "uint256",
          "name": "tokens",
          "type": "uint256"
        }
      ],
      "name": "ExternalValidatorRegistered",
      "type": "event"
    },
    {
      "anonymous": false,
      "inputs": [
        {
          "indexed": true,
          "internalType": "address",
          "name": "wallet",
          "type": "address"
        }
      ],
      "name": "InternalValidatorAdded",
      "type": "event"
    },
    {
      "anonymous": false,
      "inputs": [
        {
          "indexed": true,
          "internalType": "address",
          "name": "validatorAddress",
          "type": "address"
        },
        {
          "indexed": false,
          "internalType": "uint256",
          "name": "delegatedValue",
          "type": "uint256"
        }
      ],
      "name": "InternalValidatorDelegationIncreased",
      "type": "event"
    },
    {
      "anonymous": false,
      "inputs": [
        {
          "indexed": true,
          "internalType": "address",
          "name": "previousOwner",
          "type": "address"
        },
        {
          "indexed": true,
          "internalType": "address",
          "name": "newOwner",
          "type": "address"
        }
      ],
      "name": "OwnershipTransferred",
      "type": "event"
    },
    {
      "anonymous": false,
      "inputs": [
        {
          "indexed": false,
          "internalType": "address",
          "name": "account",
          "type": "address"
        }
      ],
      "name": "Paused",
      "type": "event"
    },
    {
      "anonymous": false,
      "inputs": [
        {
          "indexed": false,
          "internalType": "address",
          "name": "account",
          "type": "address"
        }
      ],
      "name": "Unpaused",
      "type": "event"
    },
    {
      "inputs": [
        {
          "internalType": "address",
          "name": "_newValidator",
          "type": "address"
        }
      ],
      "name": "addInternalValidator",
      "outputs": [],
      "stateMutability": "nonpayable",
      "type": "function"
    },
    {
      "inputs": [],
      "name": "owner",
      "outputs": [
        {
          "internalType": "address",
          "name": "",
          "type": "address"
        }
      ],
      "stateMutability": "view",
      "type": "function"
    },
    {
      "inputs": [],
      "name": "paused",
      "outputs": [
        {
          "internalType": "bool",
          "name": "",
          "type": "bool"
        }
      ],
      "stateMutability": "view",
      "type": "function"
    },
    {
      "inputs": [
        {
          "internalType": "address",
          "name": "_validator",
          "type": "address"
        },
        {
          "internalType": "bytes",
          "name": "_proof",
          "type": "bytes"
        },
        {
          "internalType": "bytes",
          "name": "_vrf_key",
          "type": "bytes"
        },
        {
          "internalType": "uint16",
          "name": "_commission",
          "type": "uint16"
        },
        {
          "internalType": "string",
          "name": "_description",
          "type": "string"
        },
        {
          "internalType": "string",
          "name": "_endpoint",
          "type": "string"
        }
      ],
      "name": "registerExternalValidator",
      "outputs": [],
      "stateMutability": "payable",
      "type": "function"
    },
    {
      "inputs": [],
      "name": "renounceOwnership",
      "outputs": [],
      "stateMutability": "nonpayable",
      "type": "function"
    },
    {
      "inputs": [
        {
          "internalType": "address",
          "name": "newOwner",
          "type": "address"
        }
      ],
      "name": "transferOwnership",
      "outputs": [],
      "stateMutability": "nonpayable",
      "type": "function"
    },
    {
      "stateMutability": "payable",
      "type": "receive"
    }
  ],
  "bytecode": "0x6080604052683635c9adc5dea000006002556040516200100c3803806200100c83398101604081905262000033916200029f565b6200003e336200019b565b6000805460ff60a01b1916905560018055815162000064906004906020850190620001eb565b50600380546001600160a01b0319166001600160a01b03831617905560005b8251811015620000ed57600160056000858481518110620000a857620000a862000385565b6020908102919091018101516001600160a01b03168252810191909152604001600020805460ff1916911515919091179055620000e581620003b1565b905062000083565b50600560008360018551620001039190620003cd565b8151811062000116576200011662000385565b6020908102919091018101516001600160a01b031682528101919091526040016000205460ff161515600114620001935760405162461bcd60e51b815260206004820152601c60248201527f4661696c656420746f20736574206f776e2076616c696461746f727300000000604482015260640160405180910390fd5b5050620003e9565b600080546001600160a01b038381166001600160a01b0319831681178455604051919092169283917f8be0079c531659141344cd1fd0a4f28419497f9722a3daafe3b4186f6b6457e09190a35050565b82805482825590600052602060002090810192821562000243579160200282015b828111156200024357825182546001600160a01b0319166001600160a01b039091161782556020909201916001909101906200020c565b506200025192915062000255565b5090565b5b8082111562000251576000815560010162000256565b634e487b7160e01b600052604160045260246000fd5b80516001600160a01b03811681146200029a57600080fd5b919050565b60008060408385031215620002b357600080fd5b82516001600160401b0380821115620002cb57600080fd5b818501915085601f830112620002e057600080fd5b8151602082821115620002f757620002f76200026c565b8160051b604051601f19603f830116810181811086821117156200031f576200031f6200026c565b6040529283528183019350848101820192898411156200033e57600080fd5b948201945b838610156200036757620003578662000282565b8552948201949382019362000343565b965062000378905087820162000282565b9450505050509250929050565b634e487b7160e01b600052603260045260246000fd5b634e487b7160e01b600052601160045260246000fd5b600060018201620003c657620003c66200039b565b5060010190565b81810381811115620003e357620003e36200039b565b92915050565b610c1380620003f96000396000f3fe6080604052600436106100685760003560e01c8063715018a611610043578063715018a6146100e95780638da5cb5b146100fe578063f2fde38b1461012657600080fd5b806233f818146100745780631b49ca9c146100965780635c975abb146100a957600080fd5b3661006f57005b600080fd5b34801561008057600080fd5b5061009461008f366004610866565b610146565b005b6100946100a4366004610986565b61030b565b3480156100b557600080fd5b5060005474010000000000000000000000000000000000000000900460ff1660405190151581526020015b60405180910390f35b3480156100f557600080fd5b50610094610696565b34801561010a57600080fd5b506000546040516001600160a01b0390911681526020016100e0565b34801561013257600080fd5b50610094610141366004610866565b6106aa565b61014e61073a565b6001600160a01b03811660009081526005602052604090205460ff16156101bc5760405162461bcd60e51b815260206004820152601c60248201527f56616c696461746f7220616c726561647920726567697374657265640000000060448201526064015b60405180910390fd5b600480546001808201835560008390527f8a35acfbc15ff81a39ae7d344fd709f28e8600b4aa8c65c6b64bfe7fe36bd19b909101805473ffffffffffffffffffffffffffffffffffffffff19166001600160a01b038516908117909155825490929161022791610a76565b8154811061023757610237610a8f565b6000918252602090912001546001600160a01b0316146102bf5760405162461bcd60e51b815260206004820152602f60248201527f4661696c656420746f206164642076616c696461746f7220746f206f776e207660448201527f616c696461746f7273206172726179000000000000000000000000000000000060648201526084016101b3565b6001600160a01b038116600081815260056020526040808220805460ff19166001179055517fbfa2ccf2939ec146aeb2a2699464bf7421a2a23e55cd1268018647a9dfa9b8139190a250565b610313610794565b600454600090610324346002610aa5565b61032e9190610abc565b6001600160a01b038a1660009081526005602052604090205490915060ff161561039a5760405162461bcd60e51b815260206004820152601c60248201527f56616c696461746f7220616c726561647920726567697374657265640000000060448201526064016101b3565b6002543410156104125760405162461bcd60e51b815260206004820152603860248201527f53656e742076616c7565206c657373207468616e206d696e696d616c2064656c60448201527f65676174696f6e20666f7220726567697374726174696f6e000000000000000060648201526084016101b3565b60045461041f9082610aa5565b4710156104945760405162461bcd60e51b815260206004820152603460248201527f496e73756666696369656e742066756e647320696e20636f6e7472616374206660448201527f6f7220746573746e657420726562616c616e636500000000000000000000000060648201526084016101b3565b60005b6004548110156105b657600354600480546001600160a01b0390921691635c19a95c918591859081106104cc576104cc610a8f565b60009182526020909120015460405160e084901b7fffffffff000000000000000000000000000000000000000000000000000000001681526001600160a01b0390911660048201526024016000604051808303818588803b15801561053057600080fd5b505af1158015610544573d6000803e3d6000fd5b50505050506004818154811061055c5761055c610a8f565b600091825260209182902001546040518481526001600160a01b03909116917fdb81da2c3076a89e932e0ed0c55b123f6cbb46dd9611c38e1a5e0ef755f71028910160405180910390a26105af81610ade565b9050610497565b506003546040517fd6fdc1270000000000000000000000000000000000000000000000000000000081526001600160a01b039091169063d6fdc127903490610610908d908d908d908d908d908d908d908d90600401610b66565b6000604051808303818588803b15801561062957600080fd5b505af115801561063d573d6000803e3d6000fd5b50506040513481523393506001600160a01b038d1692507fb18da5935e7c07b652bb6ac6c3f79317231b1cc912de1524266eb17e7287baa5915060200160405180910390a35061068c60018055565b5050505050505050565b61069e61073a565b6106a860006107ed565b565b6106b261073a565b6001600160a01b03811661072e5760405162461bcd60e51b815260206004820152602660248201527f4f776e61626c653a206e6577206f776e657220697320746865207a65726f206160448201527f646472657373000000000000000000000000000000000000000000000000000060648201526084016101b3565b610737816107ed565b50565b6000546001600160a01b031633146106a85760405162461bcd60e51b815260206004820181905260248201527f4f776e61626c653a2063616c6c6572206973206e6f7420746865206f776e657260448201526064016101b3565b6002600154036107e65760405162461bcd60e51b815260206004820152601f60248201527f5265656e7472616e637947756172643a207265656e7472616e742063616c6c0060448201526064016101b3565b6002600155565b600080546001600160a01b0383811673ffffffffffffffffffffffffffffffffffffffff19831681178455604051919092169283917f8be0079c531659141344cd1fd0a4f28419497f9722a3daafe3b4186f6b6457e09190a35050565b80356001600160a01b038116811461086157600080fd5b919050565b60006020828403121561087857600080fd5b6108818261084a565b9392505050565b634e487b7160e01b600052604160045260246000fd5b600082601f8301126108af57600080fd5b813567ffffffffffffffff808211156108ca576108ca610888565b604051601f8301601f19908116603f011681019082821181831017156108f2576108f2610888565b8160405283815286602085880101111561090b57600080fd5b836020870160208301376000602085830101528094505050505092915050565b803561ffff8116811461086157600080fd5b60008083601f84011261094f57600080fd5b50813567ffffffffffffffff81111561096757600080fd5b60208301915083602082850101111561097f57600080fd5b9250929050565b60008060008060008060008060c0898b0312156109a257600080fd5b6109ab8961084a565b9750602089013567ffffffffffffffff808211156109c857600080fd5b6109d48c838d0161089e565b985060408b01359150808211156109ea57600080fd5b6109f68c838d0161089e565b9750610a0460608c0161092b565b965060808b0135915080821115610a1a57600080fd5b610a268c838d0161093d565b909650945060a08b0135915080821115610a3f57600080fd5b50610a4c8b828c0161093d565b999c989b5096995094979396929594505050565b634e487b7160e01b600052601160045260246000fd5b81810381811115610a8957610a89610a60565b92915050565b634e487b7160e01b600052603260045260246000fd5b8082028115828204841417610a8957610a89610a60565b600082610ad957634e487b7160e01b600052601260045260246000fd5b500490565b600060018201610af057610af0610a60565b5060010190565b6000815180845260005b81811015610b1d57602081850181015186830182015201610b01565b506000602082860101526020601f19601f83011685010191505092915050565b81835281816020850137506000828201602090810191909152601f909101601f19169091010190565b6001600160a01b038916815260c060208201526000610b8860c083018a610af7565b8281036040840152610b9a818a610af7565b905061ffff881660608401528281036080840152610bb9818789610b3d565b905082810360a0840152610bce818587610b3d565b9b9a505050505050505050505056fea2646970667358221220665b032b1af64dc9eb30b1bca9e369f01934f79202b732e475ae072266ede46764736f6c63430008130033",
  "linkReferences": {},
  "deployedLinkReferences": {}
}