{
  "_format": "hh-sol-artifact-1",
  "contractName": "DelegationOrchestrator",
  "sourceName": "contracts/DelegationOrchestrator.sol",
  "abi": [
    {
      "inputs": [
        {
          "internalType": "address[]",
          "name": "_internalValidators",
          "type": "address[]"
        },
        {
          "internalType": "address",
          "name": "_dpos",
          "type": "address"
        }
      ],
      "stateMutability": "payable",
      "type": "constructor"
    },
    {
      "anonymous": false,
      "inputs": [
        {
          "indexed": true,
          "internalType": "address",
          "name": "wallet",
          "type": "address"
        },
        {
          "indexed": true,
          "internalType": "address",
          "name": "delegator",
          "type": "address"
        },
        {
          "indexed": false,
          "internalType": "uint256",
          "name": "tokens",
          "type": "uint256"
        }
      ],
      "name": "ExternalValidatorRegistered",
      "type": "event"
    },
    {
      "anonymous": false,
      "inputs": [
        {
          "indexed": true,
          "internalType": "address",
          "name": "wallet",
          "type": "address"
        }
      ],
      "name": "InternalValidatorAdded",
      "type": "event"
    },
    {
      "anonymous": false,
      "inputs": [
        {
          "indexed": true,
          "internalType": "address",
          "name": "validatorAddress",
          "type": "address"
        },
        {
          "indexed": false,
          "internalType": "uint256",
          "name": "delegatedValue",
          "type": "uint256"
        }
      ],
      "name": "InternalValidatorDelegationIncreased",
      "type": "event"
    },
    {
      "anonymous": false,
      "inputs": [
        {
          "indexed": true,
          "internalType": "address",
          "name": "previousOwner",
          "type": "address"
        },
        {
          "indexed": true,
          "internalType": "address",
          "name": "newOwner",
          "type": "address"
        }
      ],
      "name": "OwnershipTransferred",
      "type": "event"
    },
    {
      "anonymous": false,
      "inputs": [
        {
          "indexed": false,
          "internalType": "address",
          "name": "account",
          "type": "address"
        }
      ],
      "name": "Paused",
      "type": "event"
    },
    {
      "anonymous": false,
      "inputs": [
        {
          "indexed": false,
          "internalType": "address",
          "name": "account",
          "type": "address"
        }
      ],
      "name": "Unpaused",
      "type": "event"
    },
    {
      "inputs": [
        {
          "internalType": "address",
          "name": "_newValidator",
          "type": "address"
        }
      ],
      "name": "addInternalValidator",
      "outputs": [],
      "stateMutability": "nonpayable",
      "type": "function"
    },
    {
      "inputs": [],
      "name": "owner",
      "outputs": [
        {
          "internalType": "address",
          "name": "",
          "type": "address"
        }
      ],
      "stateMutability": "view",
      "type": "function"
    },
    {
      "inputs": [],
      "name": "paused",
      "outputs": [
        {
          "internalType": "bool",
          "name": "",
          "type": "bool"
        }
      ],
      "stateMutability": "view",
      "type": "function"
    },
    {
      "inputs": [
        {
          "internalType": "address",
          "name": "_validator",
          "type": "address"
        },
        {
          "internalType": "bytes",
          "name": "_proof",
          "type": "bytes"
        },
        {
          "internalType": "bytes",
          "name": "_vrf_key",
          "type": "bytes"
        },
        {
          "internalType": "uint16",
          "name": "_commission",
          "type": "uint16"
        },
        {
          "internalType": "string",
          "name": "_description",
          "type": "string"
        },
        {
          "internalType": "string",
          "name": "_endpoint",
          "type": "string"
        }
      ],
      "name": "registerExternalValidator",
      "outputs": [],
      "stateMutability": "payable",
      "type": "function"
    },
    {
      "inputs": [],
      "name": "renounceOwnership",
      "outputs": [],
      "stateMutability": "nonpayable",
      "type": "function"
    },
    {
      "inputs": [
        {
          "internalType": "address",
          "name": "newOwner",
          "type": "address"
        }
      ],
      "name": "transferOwnership",
      "outputs": [],
      "stateMutability": "nonpayable",
      "type": "function"
    },
    {
      "stateMutability": "payable",
      "type": "receive"
    }
  ],
  "bytecode": "0x6080604052683635c9adc5dea0000060015560405162000f6e38038062000f6e83398101604081905262000033916200029b565b6200003e3362000197565b6000805460ff60a01b19169055815162000060906003906020850190620001e7565b50600280546001600160a01b0319166001600160a01b03831617905560005b8251811015620000e957600160046000858481518110620000a457620000a462000381565b6020908102919091018101516001600160a01b03168252810191909152604001600020805460ff1916911515919091179055620000e181620003ad565b90506200007f565b50600460008360018551620000ff9190620003c9565b8151811062000112576200011262000381565b6020908102919091018101516001600160a01b031682528101919091526040016000205460ff1615156001146200018f5760405162461bcd60e51b815260206004820152601c60248201527f4661696c656420746f20736574206f776e2076616c696461746f727300000000604482015260640160405180910390fd5b5050620003e5565b600080546001600160a01b038381166001600160a01b0319831681178455604051919092169283917f8be0079c531659141344cd1fd0a4f28419497f9722a3daafe3b4186f6b6457e09190a35050565b8280548282559060005260206000209081019282156200023f579160200282015b828111156200023f57825182546001600160a01b0319166001600160a01b0390911617825560209092019160019091019062000208565b506200024d92915062000251565b5090565b5b808211156200024d576000815560010162000252565b634e487b7160e01b600052604160045260246000fd5b80516001600160a01b03811681146200029657600080fd5b919050565b60008060408385031215620002af57600080fd5b82516001600160401b0380821115620002c757600080fd5b818501915085601f830112620002dc57600080fd5b8151602082821115620002f357620002f362000268565b8160051b604051601f19603f830116810181811086821117156200031b576200031b62000268565b6040529283528183019350848101820192898411156200033a57600080fd5b948201945b83861015620003635762000353866200027e565b855294820194938201936200033f565b96506200037490508782016200027e565b9450505050509250929050565b634e487b7160e01b600052603260045260246000fd5b634e487b7160e01b600052601160045260246000fd5b600060018201620003c257620003c262000397565b5060010190565b81810381811115620003df57620003df62000397565b92915050565b610b7980620003f56000396000f3fe6080604052600436106100685760003560e01c8063715018a611610043578063715018a6146100e95780638da5cb5b146100fe578063f2fde38b1461012657600080fd5b806233f818146100745780631b49ca9c146100965780635c975abb146100a957600080fd5b3661006f57005b600080fd5b34801561008057600080fd5b5061009461008f3660046107ee565b610146565b005b6100946100a436600461090e565b61030b565b3480156100b557600080fd5b5060005474010000000000000000000000000000000000000000900460ff1660405190151581526020015b60405180910390f35b3480156100f557600080fd5b50610094610677565b34801561010a57600080fd5b506000546040516001600160a01b0390911681526020016100e0565b34801561013257600080fd5b506100946101413660046107ee565b61068b565b61014e61071b565b6001600160a01b03811660009081526004602052604090205460ff16156101bc5760405162461bcd60e51b815260206004820152601c60248201527f56616c696461746f7220616c726561647920726567697374657265640000000060448201526064015b60405180910390fd5b600380546001808201835560008390527fc2575a0e9e593c00f959f8c92f12db2869c3395a3b0502d05e2516446f71f85b909101805473ffffffffffffffffffffffffffffffffffffffff19166001600160a01b0385169081179091558254909291610227916109fe565b8154811061023757610237610a17565b6000918252602090912001546001600160a01b0316146102bf5760405162461bcd60e51b815260206004820152602f60248201527f4661696c656420746f206164642076616c696461746f7220746f206f776e207660448201527f616c696461746f7273206172726179000000000000000000000000000000000060648201526084016101b3565b6001600160a01b038116600081815260046020526040808220805460ff19166001179055517fbfa2ccf2939ec146aeb2a2699464bf7421a2a23e55cd1268018647a9dfa9b8139190a250565b6000610318346002610a2d565b6001600160a01b038a1660009081526004602052604090205490915060ff16156103845760405162461bcd60e51b815260206004820152601c60248201527f56616c696461746f7220616c726561647920726567697374657265640000000060448201526064016101b3565b6001543410156103fc5760405162461bcd60e51b815260206004820152603860248201527f53656e742076616c7565206c657373207468616e206d696e696d616c2064656c60448201527f65676174696f6e20666f7220726567697374726174696f6e000000000000000060648201526084016101b3565b6003546104099082610a2d565b47101561047e5760405162461bcd60e51b815260206004820152603460248201527f496e73756666696369656e742066756e647320696e20636f6e7472616374206660448201527f6f7220746573746e657420726562616c616e636500000000000000000000000060648201526084016101b3565b60005b6003548110156105a057600254600380546001600160a01b0390921691635c19a95c918591859081106104b6576104b6610a17565b60009182526020909120015460405160e084901b7fffffffff000000000000000000000000000000000000000000000000000000001681526001600160a01b0390911660048201526024016000604051808303818588803b15801561051a57600080fd5b505af115801561052e573d6000803e3d6000fd5b50505050506003818154811061054657610546610a17565b600091825260209182902001546040518481526001600160a01b03909116917fdb81da2c3076a89e932e0ed0c55b123f6cbb46dd9611c38e1a5e0ef755f71028910160405180910390a261059981610a44565b9050610481565b506002546040517fd6fdc1270000000000000000000000000000000000000000000000000000000081526001600160a01b039091169063d6fdc1279034906105fa908d908d908d908d908d908d908d908d90600401610acc565b6000604051808303818588803b15801561061357600080fd5b505af1158015610627573d6000803e3d6000fd5b50506040513481523393506001600160a01b038d1692507fb18da5935e7c07b652bb6ac6c3f79317231b1cc912de1524266eb17e7287baa5915060200160405180910390a3505050505050505050565b61067f61071b565b6106896000610775565b565b61069361071b565b6001600160a01b03811661070f5760405162461bcd60e51b815260206004820152602660248201527f4f776e61626c653a206e6577206f776e657220697320746865207a65726f206160448201527f646472657373000000000000000000000000000000000000000000000000000060648201526084016101b3565b61071881610775565b50565b6000546001600160a01b031633146106895760405162461bcd60e51b815260206004820181905260248201527f4f776e61626c653a2063616c6c6572206973206e6f7420746865206f776e657260448201526064016101b3565b600080546001600160a01b0383811673ffffffffffffffffffffffffffffffffffffffff19831681178455604051919092169283917f8be0079c531659141344cd1fd0a4f28419497f9722a3daafe3b4186f6b6457e09190a35050565b80356001600160a01b03811681146107e957600080fd5b919050565b60006020828403121561080057600080fd5b610809826107d2565b9392505050565b634e487b7160e01b600052604160045260246000fd5b600082601f83011261083757600080fd5b813567ffffffffffffffff8082111561085257610852610810565b604051601f8301601f19908116603f0116810190828211818310171561087a5761087a610810565b8160405283815286602085880101111561089357600080fd5b836020870160208301376000602085830101528094505050505092915050565b803561ffff811681146107e957600080fd5b60008083601f8401126108d757600080fd5b50813567ffffffffffffffff8111156108ef57600080fd5b60208301915083602082850101111561090757600080fd5b9250929050565b60008060008060008060008060c0898b03121561092a57600080fd5b610933896107d2565b9750602089013567ffffffffffffffff8082111561095057600080fd5b61095c8c838d01610826565b985060408b013591508082111561097257600080fd5b61097e8c838d01610826565b975061098c60608c016108b3565b965060808b01359150808211156109a257600080fd5b6109ae8c838d016108c5565b909650945060a08b01359150808211156109c757600080fd5b506109d48b828c016108c5565b999c989b5096995094979396929594505050565b634e487b7160e01b600052601160045260246000fd5b81810381811115610a1157610a116109e8565b92915050565b634e487b7160e01b600052603260045260246000fd5b8082028115828204841417610a1157610a116109e8565b600060018201610a5657610a566109e8565b5060010190565b6000815180845260005b81811015610a8357602081850181015186830182015201610a67565b506000602082860101526020601f19601f83011685010191505092915050565b81835281816020850137506000828201602090810191909152601f909101601f19169091010190565b6001600160a01b038916815260c060208201526000610aee60c083018a610a5d565b8281036040840152610b00818a610a5d565b905061ffff881660608401528281036080840152610b1f818789610aa3565b905082810360a0840152610b34818587610aa3565b9b9a505050505050505050505056fea26469706673582212209af27073809f36972f708a0634ef1b3fa6bf3ac3a17611b2a638cc58fe5f7b7c64736f6c63430008130033",
  "linkReferences": {},
  "deployedLinkReferences": {}
}