{
  "_format": "hh-sol-artifact-1",
  "contractName": "DelegationOrchestrator",
  "sourceName": "contracts/DelegationOrchestrator.sol",
  "abi": [
    {
      "inputs": [
        {
          "internalType": "address[]",
          "name": "validators",
          "type": "address[]"
        },
        {
          "internalType": "address",
          "name": "dposAddress",
          "type": "address"
        }
      ],
      "stateMutability": "payable",
      "type": "constructor"
    },
    {
      "anonymous": false,
      "inputs": [
        {
          "indexed": true,
          "internalType": "address",
          "name": "wallet",
          "type": "address"
        },
        {
          "indexed": true,
          "internalType": "address",
          "name": "delegator",
          "type": "address"
        },
        {
          "indexed": false,
          "internalType": "uint256",
          "name": "tokens",
          "type": "uint256"
        }
      ],
      "name": "ExternalValidatorRegistered",
      "type": "event"
    },
    {
      "anonymous": false,
      "inputs": [
        {
          "indexed": true,
          "internalType": "address",
          "name": "wallet",
          "type": "address"
        }
      ],
      "name": "InternalValidatorAdded",
      "type": "event"
    },
    {
      "anonymous": false,
      "inputs": [
        {
          "indexed": true,
          "internalType": "address",
          "name": "validatorAddress",
          "type": "address"
        },
        {
          "indexed": false,
          "internalType": "uint256",
          "name": "delegatedValue",
          "type": "uint256"
        }
      ],
      "name": "InternalValidatorDelegationIncreased",
      "type": "event"
    },
    {
      "anonymous": false,
      "inputs": [
        {
          "indexed": true,
          "internalType": "address",
          "name": "previousOwner",
          "type": "address"
        },
        {
          "indexed": true,
          "internalType": "address",
          "name": "newOwner",
          "type": "address"
        }
      ],
      "name": "OwnershipTransferred",
      "type": "event"
    },
    {
      "anonymous": false,
      "inputs": [
        {
          "indexed": false,
          "internalType": "address",
          "name": "account",
          "type": "address"
        }
      ],
      "name": "Paused",
      "type": "event"
    },
    {
      "anonymous": false,
      "inputs": [
        {
          "indexed": false,
          "internalType": "address",
          "name": "account",
          "type": "address"
        }
      ],
      "name": "Unpaused",
      "type": "event"
    },
    {
      "stateMutability": "payable",
      "type": "fallback"
    },
    {
      "inputs": [
        {
          "internalType": "address",
          "name": "newValidator",
          "type": "address"
        }
      ],
      "name": "addInternalValidator",
      "outputs": [],
      "stateMutability": "nonpayable",
      "type": "function"
    },
    {
      "inputs": [
        {
          "internalType": "address",
          "name": "validatorOwner",
          "type": "address"
        }
      ],
      "name": "getExternalValidatorsByOwner",
      "outputs": [
        {
          "internalType": "address[]",
          "name": "validators",
          "type": "address[]"
        }
      ],
      "stateMutability": "view",
      "type": "function"
    },
    {
      "inputs": [
        {
          "internalType": "address",
          "name": "validator",
          "type": "address"
        }
      ],
      "name": "getOwnerOfExternalValidator",
      "outputs": [
        {
          "internalType": "address",
          "name": "owner",
          "type": "address"
        }
      ],
      "stateMutability": "view",
      "type": "function"
    },
    {
      "inputs": [],
      "name": "owner",
      "outputs": [
        {
          "internalType": "address",
          "name": "",
          "type": "address"
        }
      ],
      "stateMutability": "view",
      "type": "function"
    },
    {
      "inputs": [],
      "name": "paused",
      "outputs": [
        {
          "internalType": "bool",
          "name": "",
          "type": "bool"
        }
      ],
      "stateMutability": "view",
      "type": "function"
    },
    {
      "inputs": [
        {
          "internalType": "address",
          "name": "validator",
          "type": "address"
        },
        {
          "internalType": "bytes",
          "name": "proof",
          "type": "bytes"
        },
        {
          "internalType": "bytes",
          "name": "vrfKey",
          "type": "bytes"
        },
        {
          "internalType": "uint16",
          "name": "commission",
          "type": "uint16"
        },
        {
          "internalType": "string",
          "name": "description",
          "type": "string"
        },
        {
          "internalType": "string",
          "name": "endpoint",
          "type": "string"
        }
      ],
      "name": "registerExternalValidator",
      "outputs": [],
      "stateMutability": "payable",
      "type": "function"
    },
    {
      "inputs": [],
      "name": "renounceOwnership",
      "outputs": [],
      "stateMutability": "nonpayable",
      "type": "function"
    },
    {
      "inputs": [
        {
          "internalType": "address",
          "name": "newOwner",
          "type": "address"
        }
      ],
      "name": "transferOwnership",
      "outputs": [],
      "stateMutability": "nonpayable",
      "type": "function"
    },
    {
      "stateMutability": "payable",
      "type": "receive"
    }
  ],
  "bytecode": "0x60c06040526040516200168a3803806200168a833981016040819052620000269162000265565b806001600160a01b0381166200009a5760405162461bcd60e51b815260206004820152602f60248201527f5a65726f2061646472657373206e6f7420612076616c696420696d706c656d6560448201526e6e746174696f6e206164647265737360881b606482015260840160405180910390fd5b6001600160a01b0316608052620000b13362000161565b6000805460ff60a01b19169055600180558151620000d7906002906020850190620001b1565b506001600160a01b03811660a05260005b82518110156200015857620000ff81600162000361565b600660008584815181106200011857620001186200037d565b60200260200101516001600160a01b03166001600160a01b031681526020019081526020016000208190555080620001509062000393565b9050620000e8565b505050620003af565b600080546001600160a01b038381166001600160a01b0319831681178455604051919092169283917f8be0079c531659141344cd1fd0a4f28419497f9722a3daafe3b4186f6b6457e09190a35050565b82805482825590600052602060002090810192821562000209579160200282015b828111156200020957825182546001600160a01b0319166001600160a01b03909116178255602090920191600190910190620001d2565b50620002179291506200021b565b5090565b5b808211156200021757600081556001016200021c565b634e487b7160e01b600052604160045260246000fd5b80516001600160a01b03811681146200026057600080fd5b919050565b600080604083850312156200027957600080fd5b82516001600160401b03808211156200029157600080fd5b818501915085601f830112620002a657600080fd5b8151602082821115620002bd57620002bd62000232565b8160051b604051601f19603f83011681018181108682111715620002e557620002e562000232565b6040529283528183019350848101820192898411156200030457600080fd5b948201945b838610156200032d576200031d8662000248565b8552948201949382019362000309565b96506200033e905087820162000248565b9450505050509250929050565b634e487b7160e01b600052601160045260246000fd5b808201808211156200037757620003776200034b565b92915050565b634e487b7160e01b600052603260045260246000fd5b600060018201620003a857620003a86200034b565b5060010190565b60805160a0516112a0620003ea600039600081816105120152818161076d01528181610a710152610b6a015260006101de01526112a06000f3fe60806040526004361061007e5760003560e01c80635c975abb1161004e5780635c975abb1461014b578063715018a6146101865780638da5cb5b1461019b578063f2fde38b146101b95761008d565b806233f818146100955780631b49ca9c146100b55780631e0ed803146100c8578063418f362f1461011e5761008d565b3661008d5761008b6101d9565b005b61008b6101d9565b3480156100a157600080fd5b5061008b6100b0366004610d0c565b610204565b61008b6100c3366004610e82565b61030a565b3480156100d457600080fd5b506101016100e3366004610d0c565b6001600160a01b039081166000908152600460205260409020541690565b6040516001600160a01b0390911681526020015b60405180910390f35b34801561012a57600080fd5b5061013e610139366004610d0c565b61085c565b6040516101159190610f5c565b34801561015757600080fd5b5060005474010000000000000000000000000000000000000000900460ff166040519015158152602001610115565b34801561019257600080fd5b5061008b6108d2565b3480156101a757600080fd5b506000546001600160a01b0316610101565b3480156101c557600080fd5b5061008b6101d4366004610d0c565b6108e4565b6102027f0000000000000000000000000000000000000000000000000000000000000000610974565b565b61020c61099d565b6001600160a01b038116600090815260066020526040902054156102775760405162461bcd60e51b815260206004820152601c60248201527f56616c696461746f7220616c726561647920726567697374657265640000000060448201526064015b60405180910390fd5b600280546001810182557f405787fa12a823e0f2b7631cc41b3ba8828b3321ca811111fa75cd3aa3bb5ace01805473ffffffffffffffffffffffffffffffffffffffff19166001600160a01b03841690811790915590546000828152600660205260408082209290925590517fbfa2ccf2939ec146aeb2a2699464bf7421a2a23e55cd1268018647a9dfa9b8139190a250565b6103126109f7565b60028054600091610324903490610fbf565b61032e9190610fdc565b6001600160a01b038a1660009081526007602052604090205490915015801561036d57506001600160a01b038916600090815260066020526040902054155b6103b95760405162461bcd60e51b815260206004820152601c60248201527f56616c696461746f7220616c7265616479207265676973746572656400000000604482015260640161026e565b683635c9adc5dea000003410156104385760405162461bcd60e51b815260206004820152603860248201527f53656e742076616c7565206c657373207468616e206d696e696d616c2064656c60448201527f65676174696f6e20666f7220726567697374726174696f6e0000000000000000606482015260840161026e565b6002546104459082610fbf565b4710156104ba5760405162461bcd60e51b815260206004820152603460248201527f496e73756666696369656e742066756e647320696e20636f6e7472616374206660448201527f6f7220746573746e657420726562616c616e6365000000000000000000000000606482015260840161026e565b6000806104c5610a50565b90925090506000683635c9adc5dea00000346104e2846002610fbf565b6104ec9190610ffe565b6104f69190610ffe565b90508083101561063d5760005b60025460ff8216101561063b577f00000000000000000000000000000000000000000000000000000000000000006001600160a01b0316635c19a95c8660028460ff168154811061055657610556611011565b60009182526020909120015460405160e084901b7fffffffff000000000000000000000000000000000000000000000000000000001681526001600160a01b0390911660048201526024016000604051808303818588803b1580156105ba57600080fd5b505af11580156105ce573d6000803e3d6000fd5b505050505060028160ff16815481106105e9576105e9611011565b600091825260209182902001546040518781526001600160a01b03909116917fdb81da2c3076a89e932e0ed0c55b123f6cbb46dd9611c38e1a5e0ef755f71028910160405180910390a2600101610503565b505b60056000336001600160a01b03166001600160a01b031681526020019081526020016000208c9080600181540180825580915050600190039060005260206000200160009091909190916101000a8154816001600160a01b0302191690836001600160a01b0316021790555060038c9080600181540180825580915050600190039060005260206000200160009091909190916101000a8154816001600160a01b0302191690836001600160a01b03160217905550600380549050600760008e6001600160a01b03166001600160a01b031681526020019081526020016000208190555033600460008e6001600160a01b03166001600160a01b0316815260200190815260200160002060006101000a8154816001600160a01b0302191690836001600160a01b031602179055507f00000000000000000000000000000000000000000000000000000000000000006001600160a01b031663d6fdc127348e8e8e8e8e8e8e8e6040518a63ffffffff1660e01b81526004016107c69897969594939291906110a0565b6000604051808303818588803b1580156107df57600080fd5b505af11580156107f3573d6000803e3d6000fd5b5050505050336001600160a01b03168c6001600160a01b03167fb18da5935e7c07b652bb6ac6c3f79317231b1cc912de1524266eb17e7287baa53460405161083d91815260200190565b60405180910390a35050505061085260018055565b5050505050505050565b6001600160a01b0381166000908152600560209081526040918290208054835181840281018401909452808452606093928301828280156108c657602002820191906000526020600020905b81546001600160a01b031681526001909101906020018083116108a8575b50505050509050919050565b6108da61099d565b6102026000610c8a565b6108ec61099d565b6001600160a01b0381166109685760405162461bcd60e51b815260206004820152602660248201527f4f776e61626c653a206e6577206f776e657220697320746865207a65726f206160448201527f6464726573730000000000000000000000000000000000000000000000000000606482015260840161026e565b61097181610c8a565b50565b366000803760008036600034855af180610992573d6000803e3d6000fd5b503d6000803e3d6000f35b6000546001600160a01b031633146102025760405162461bcd60e51b815260206004820181905260248201527f4f776e61626c653a2063616c6c6572206973206e6f7420746865206f776e6572604482015260640161026e565b600260015403610a495760405162461bcd60e51b815260206004820152601f60248201527f5265656e7472616e637947756172643a207265656e7472616e742063616c6c00604482015260640161026e565b6002600155565b60008060018180805b8315610c7f5760025461ffff82161015610b585760007f00000000000000000000000000000000000000000000000000000000000000006001600160a01b0316631904bb2e60028461ffff1681548110610ab557610ab5611011565b60009182526020909120015460405160e083901b7fffffffff000000000000000000000000000000000000000000000000000000001681526001600160a01b039091166004820152602401600060405180830381865afa158015610b1d573d6000803e3d6000fd5b505050506040513d6000823e601f3d908101601f19168201604052610b459190810190611192565b8051909150610b549085610ffe565b9350505b60035461ffff82161015610c515760007f00000000000000000000000000000000000000000000000000000000000000006001600160a01b0316631904bb2e60038461ffff1681548110610bae57610bae611011565b60009182526020909120015460405160e083901b7fffffffff000000000000000000000000000000000000000000000000000000001681526001600160a01b039091166004820152602401600060405180830381865afa158015610c16573d6000803e3d6000fd5b505050506040513d6000823e601f3d908101601f19168201604052610c3e9190810190611192565b8051909150610c4d9084610ffe565b9250505b60025461ffff821610801590610c6d575060035461ffff821610155b15610c7757600093505b600101610a59565b509094909350915050565b600080546001600160a01b0383811673ffffffffffffffffffffffffffffffffffffffff19831681178455604051919092169283917f8be0079c531659141344cd1fd0a4f28419497f9722a3daafe3b4186f6b6457e09190a35050565b6001600160a01b038116811461097157600080fd5b8035610d0781610ce7565b919050565b600060208284031215610d1e57600080fd5b8135610d2981610ce7565b9392505050565b634e487b7160e01b600052604160045260246000fd5b60405160e0810167ffffffffffffffff81118282101715610d6957610d69610d30565b60405290565b604051601f8201601f1916810167ffffffffffffffff81118282101715610d9857610d98610d30565b604052919050565b600067ffffffffffffffff821115610dba57610dba610d30565b50601f01601f191660200190565b600082601f830112610dd957600080fd5b8135610dec610de782610da0565b610d6f565b818152846020838601011115610e0157600080fd5b816020850160208301376000918101602001919091529392505050565b61ffff8116811461097157600080fd5b8035610d0781610e1e565b60008083601f840112610e4b57600080fd5b50813567ffffffffffffffff811115610e6357600080fd5b602083019150836020828501011115610e7b57600080fd5b9250929050565b60008060008060008060008060c0898b031215610e9e57600080fd5b610ea789610cfc565b9750602089013567ffffffffffffffff80821115610ec457600080fd5b610ed08c838d01610dc8565b985060408b0135915080821115610ee657600080fd5b610ef28c838d01610dc8565b9750610f0060608c01610e2e565b965060808b0135915080821115610f1657600080fd5b610f228c838d01610e39565b909650945060a08b0135915080821115610f3b57600080fd5b50610f488b828c01610e39565b999c989b5096995094979396929594505050565b6020808252825182820181905260009190848201906040850190845b81811015610f9d5783516001600160a01b031683529284019291840191600101610f78565b50909695505050505050565b634e487b7160e01b600052601160045260246000fd5b8082028115828204841417610fd657610fd6610fa9565b92915050565b600082610ff957634e487b7160e01b600052601260045260246000fd5b500490565b80820180821115610fd657610fd6610fa9565b634e487b7160e01b600052603260045260246000fd5b60005b8381101561104257818101518382015260200161102a565b50506000910152565b60008151808452611063816020860160208601611027565b601f01601f19169290920160200192915050565b81835281816020850137506000828201602090810191909152601f909101601f19169091010190565b6001600160a01b038916815260c0602082015260006110c260c083018a61104b565b82810360408401526110d4818a61104b565b905061ffff8816606084015282810360808401526110f3818789611077565b905082810360a0840152611108818587611077565b9b9a5050505050505050505050565b8051610d0781610e1e565b805167ffffffffffffffff81168114610d0757600080fd5b8051610d0781610ce7565b600082601f83011261115657600080fd5b8151611164610de782610da0565b81815284602083860101111561117957600080fd5b61118a826020830160208701611027565b949350505050565b6000602082840312156111a457600080fd5b815167ffffffffffffffff808211156111bc57600080fd5b9083019060e082860312156111d057600080fd5b6111d8610d46565b82518152602083015160208201526111f260408401611117565b604082015261120360608401611122565b60608201526112146080840161113a565b608082015260a08301518281111561122b57600080fd5b61123787828601611145565b60a08301525060c08301518281111561124f57600080fd5b61125b87828601611145565b60c0830152509594505050505056fea2646970667358221220bc8c06ff6a428818ddfd5f2602579298f201cd1f0b79ea15638f0dc5e5a3e1e464736f6c63430008120033",
  "linkReferences": {},
  "deployedLinkReferences": {}
}