{
  "_format": "hh-sol-artifact-1",
  "contractName": "DelegationOrchestrator",
  "sourceName": "contracts/DelegationOrchestrator.sol",
  "abi": [
    {
      "inputs": [
        {
          "internalType": "address[]",
          "name": "_internalValidators",
          "type": "address[]"
        },
        {
          "internalType": "address",
          "name": "dposContract",
          "type": "address"
        }
      ],
      "stateMutability": "payable",
      "type": "constructor"
    },
    {
      "anonymous": false,
      "inputs": [
        {
          "indexed": true,
          "internalType": "address",
          "name": "wallet",
          "type": "address"
        },
        {
          "indexed": true,
          "internalType": "address",
          "name": "delegator",
          "type": "address"
        },
        {
          "indexed": false,
          "internalType": "uint256",
          "name": "tokens",
          "type": "uint256"
        }
      ],
      "name": "ExternalValidatorRegistered",
      "type": "event"
    },
    {
      "anonymous": false,
      "inputs": [
        {
          "indexed": true,
          "internalType": "address",
          "name": "wallet",
          "type": "address"
        }
      ],
      "name": "InternalValidatorAdded",
      "type": "event"
    },
    {
      "anonymous": false,
      "inputs": [
        {
          "indexed": true,
          "internalType": "address",
          "name": "validatorAddress",
          "type": "address"
        },
        {
          "indexed": false,
          "internalType": "uint256",
          "name": "delegatedValue",
          "type": "uint256"
        }
      ],
      "name": "InternalValidatorDelegationIncreased",
      "type": "event"
    },
    {
      "anonymous": false,
      "inputs": [
        {
          "indexed": true,
          "internalType": "address",
          "name": "previousOwner",
          "type": "address"
        },
        {
          "indexed": true,
          "internalType": "address",
          "name": "newOwner",
          "type": "address"
        }
      ],
      "name": "OwnershipTransferred",
      "type": "event"
    },
    {
      "anonymous": false,
      "inputs": [
        {
          "indexed": false,
          "internalType": "address",
          "name": "account",
          "type": "address"
        }
      ],
      "name": "Paused",
      "type": "event"
    },
    {
      "anonymous": false,
      "inputs": [
        {
          "indexed": false,
          "internalType": "address",
          "name": "account",
          "type": "address"
        }
      ],
      "name": "Unpaused",
      "type": "event"
    },
    {
      "inputs": [],
      "name": "owner",
      "outputs": [
        {
          "internalType": "address",
          "name": "",
          "type": "address"
        }
      ],
      "stateMutability": "view",
      "type": "function"
    },
    {
      "inputs": [],
      "name": "paused",
      "outputs": [
        {
          "internalType": "bool",
          "name": "",
          "type": "bool"
        }
      ],
      "stateMutability": "view",
      "type": "function"
    },
    {
      "inputs": [
        {
          "internalType": "address",
          "name": "_validator",
          "type": "address"
        },
        {
          "internalType": "bytes",
          "name": "_proof",
          "type": "bytes"
        },
        {
          "internalType": "bytes",
          "name": "_vrf_key",
          "type": "bytes"
        },
        {
          "internalType": "uint16",
          "name": "_commission",
          "type": "uint16"
        },
        {
          "internalType": "string",
          "name": "_description",
          "type": "string"
        },
        {
          "internalType": "string",
          "name": "_endpoint",
          "type": "string"
        }
      ],
      "name": "registerExternalValidator",
      "outputs": [],
      "stateMutability": "payable",
      "type": "function"
    },
    {
      "inputs": [],
      "name": "renounceOwnership",
      "outputs": [],
      "stateMutability": "nonpayable",
      "type": "function"
    },
    {
      "inputs": [
        {
          "internalType": "address",
          "name": "newOwner",
          "type": "address"
        }
      ],
      "name": "transferOwnership",
      "outputs": [],
      "stateMutability": "nonpayable",
      "type": "function"
    },
    {
      "stateMutability": "payable",
      "type": "receive"
    }
  ],
  "bytecode": "0x60806040819052683635c9adc5dea00000600155600280546001600160a01b03191660fe17905562000d8d388190039081908339810160408190526200004591620002ad565b6200005033620001a9565b6000805460ff60a01b19169055815162000072906004906020850190620001f9565b50600380546001600160a01b0319166001600160a01b03831617905560005b8251811015620000fb57600160056000858481518110620000b657620000b662000393565b6020908102919091018101516001600160a01b03168252810191909152604001600020805460ff1916911515919091179055620000f381620003bf565b905062000091565b50600560008360018551620001119190620003db565b8151811062000124576200012462000393565b6020908102919091018101516001600160a01b031682528101919091526040016000205460ff161515600114620001a15760405162461bcd60e51b815260206004820152601c60248201527f4661696c656420746f20736574206f776e2076616c696461746f727300000000604482015260640160405180910390fd5b5050620003f7565b600080546001600160a01b038381166001600160a01b0319831681178455604051919092169283917f8be0079c531659141344cd1fd0a4f28419497f9722a3daafe3b4186f6b6457e09190a35050565b82805482825590600052602060002090810192821562000251579160200282015b828111156200025157825182546001600160a01b0319166001600160a01b039091161782556020909201916001909101906200021a565b506200025f92915062000263565b5090565b5b808211156200025f576000815560010162000264565b634e487b7160e01b600052604160045260246000fd5b80516001600160a01b0381168114620002a857600080fd5b919050565b60008060408385031215620002c157600080fd5b82516001600160401b0380821115620002d957600080fd5b818501915085601f830112620002ee57600080fd5b81516020828211156200030557620003056200027a565b8160051b604051601f19603f830116810181811086821117156200032d576200032d6200027a565b6040529283528183019350848101820192898411156200034c57600080fd5b948201945b838610156200037557620003658662000290565b8552948201949382019362000351565b965062000386905087820162000290565b9450505050509250929050565b634e487b7160e01b600052603260045260246000fd5b634e487b7160e01b600052601160045260246000fd5b600060018201620003d457620003d4620003a9565b5060010190565b81810381811115620003f157620003f1620003a9565b92915050565b61098680620004076000396000f3fe60806040526004361061005e5760003560e01c8063715018a611610043578063715018a6146100bf5780638da5cb5b146100d4578063f2fde38b146100fc57600080fd5b80631b49ca9c1461006a5780635c975abb1461007f57600080fd5b3661006557005b600080fd5b61007d61007836600461070c565b61011c565b005b34801561008b57600080fd5b5060005474010000000000000000000000000000000000000000900460ff1660405190151581526020015b60405180910390f35b3480156100cb57600080fd5b5061007d61048c565b3480156100e057600080fd5b506000546040516001600160a01b0390911681526020016100b6565b34801561010857600080fd5b5061007d6101173660046107e6565b6104a0565b600061012934600261081e565b6001600160a01b038a1660009081526005602052604090205490915060ff161561019a5760405162461bcd60e51b815260206004820152601c60248201527f56616c696461746f7220616c726561647920726567697374657265640000000060448201526064015b60405180910390fd5b6001543410156102125760405162461bcd60e51b815260206004820152603860248201527f53656e742076616c7565206c657373207468616e206d696e696d616c2064656c60448201527f65676174696f6e20666f7220726567697374726174696f6e00000000000000006064820152608401610191565b60045461021f908261081e565b47116102935760405162461bcd60e51b815260206004820152603460248201527f496e73756666696369656e742066756e647320696e20636f6e7472616374206660448201527f6f7220746573746e657420726562616c616e63650000000000000000000000006064820152608401610191565b60005b6004548110156103b557600354600480546001600160a01b0390921691635c19a95c918591859081106102cb576102cb61083b565b60009182526020909120015460405160e084901b7fffffffff000000000000000000000000000000000000000000000000000000001681526001600160a01b0390911660048201526024016000604051808303818588803b15801561032f57600080fd5b505af1158015610343573d6000803e3d6000fd5b50505050506004818154811061035b5761035b61083b565b600091825260209182902001546040518481526001600160a01b03909116917fdb81da2c3076a89e932e0ed0c55b123f6cbb46dd9611c38e1a5e0ef755f71028910160405180910390a26103ae81610851565b9050610296565b506003546040517fd6fdc1270000000000000000000000000000000000000000000000000000000081526001600160a01b039091169063d6fdc12790349061040f908d908d908d908d908d908d908d908d906004016108d9565b6000604051808303818588803b15801561042857600080fd5b505af115801561043c573d6000803e3d6000fd5b50506040513481523393506001600160a01b038d1692507fb18da5935e7c07b652bb6ac6c3f79317231b1cc912de1524266eb17e7287baa5915060200160405180910390a3505050505050505050565b610494610530565b61049e600061058a565b565b6104a8610530565b6001600160a01b0381166105245760405162461bcd60e51b815260206004820152602660248201527f4f776e61626c653a206e6577206f776e657220697320746865207a65726f206160448201527f64647265737300000000000000000000000000000000000000000000000000006064820152608401610191565b61052d8161058a565b50565b6000546001600160a01b0316331461049e5760405162461bcd60e51b815260206004820181905260248201527f4f776e61626c653a2063616c6c6572206973206e6f7420746865206f776e65726044820152606401610191565b600080546001600160a01b038381167fffffffffffffffffffffffff0000000000000000000000000000000000000000831681178455604051919092169283917f8be0079c531659141344cd1fd0a4f28419497f9722a3daafe3b4186f6b6457e09190a35050565b80356001600160a01b038116811461060957600080fd5b919050565b634e487b7160e01b600052604160045260246000fd5b600082601f83011261063557600080fd5b813567ffffffffffffffff808211156106505761065061060e565b604051601f8301601f19908116603f011681019082821181831017156106785761067861060e565b8160405283815286602085880101111561069157600080fd5b836020870160208301376000602085830101528094505050505092915050565b803561ffff8116811461060957600080fd5b60008083601f8401126106d557600080fd5b50813567ffffffffffffffff8111156106ed57600080fd5b60208301915083602082850101111561070557600080fd5b9250929050565b60008060008060008060008060c0898b03121561072857600080fd5b610731896105f2565b9750602089013567ffffffffffffffff8082111561074e57600080fd5b61075a8c838d01610624565b985060408b013591508082111561077057600080fd5b61077c8c838d01610624565b975061078a60608c016106b1565b965060808b01359150808211156107a057600080fd5b6107ac8c838d016106c3565b909650945060a08b01359150808211156107c557600080fd5b506107d28b828c016106c3565b999c989b5096995094979396929594505050565b6000602082840312156107f857600080fd5b610801826105f2565b9392505050565b634e487b7160e01b600052601160045260246000fd5b808202811582820484141761083557610835610808565b92915050565b634e487b7160e01b600052603260045260246000fd5b60006001820161086357610863610808565b5060010190565b6000815180845260005b8181101561089057602081850181015186830182015201610874565b506000602082860101526020601f19601f83011685010191505092915050565b81835281816020850137506000828201602090810191909152601f909101601f19169091010190565b6001600160a01b038916815260c0602082015260006108fb60c083018a61086a565b828103604084015261090d818a61086a565b905061ffff88166060840152828103608084015261092c8187896108b0565b905082810360a08401526109418185876108b0565b9b9a505050505050505050505056fea26469706673582212207fa32db3ed349384108f97522dd9010eb8bc86279ba3c9064911298a66a8245564736f6c63430008130033",
  "linkReferences": {},
  "deployedLinkReferences": {}
}