{
  "_format": "hh-sol-artifact-1",
  "contractName": "DelegationOrchestrator",
  "sourceName": "contracts/DelegationOrchestrator.sol",
  "abi": [
    {
      "inputs": [
        {
          "internalType": "address[]",
          "name": "validators",
          "type": "address[]"
        },
        {
          "internalType": "address",
          "name": "dposAddress",
          "type": "address"
        }
      ],
      "stateMutability": "payable",
      "type": "constructor"
    },
    {
      "anonymous": false,
      "inputs": [
        {
          "indexed": true,
          "internalType": "address",
          "name": "wallet",
          "type": "address"
        },
        {
          "indexed": true,
          "internalType": "address",
          "name": "delegator",
          "type": "address"
        },
        {
          "indexed": false,
          "internalType": "uint256",
          "name": "tokens",
          "type": "uint256"
        }
      ],
      "name": "ExternalValidatorRegistered",
      "type": "event"
    },
    {
      "anonymous": false,
      "inputs": [
        {
          "indexed": true,
          "internalType": "address",
          "name": "wallet",
          "type": "address"
        }
      ],
      "name": "InternalValidatorAdded",
      "type": "event"
    },
    {
      "anonymous": false,
      "inputs": [
        {
          "indexed": true,
          "internalType": "address",
          "name": "validatorAddress",
          "type": "address"
        },
        {
          "indexed": false,
          "internalType": "uint256",
          "name": "delegatedValue",
          "type": "uint256"
        }
      ],
      "name": "InternalValidatorDelegationIncreased",
      "type": "event"
    },
    {
      "anonymous": false,
      "inputs": [
        {
          "indexed": true,
          "internalType": "address",
          "name": "previousOwner",
          "type": "address"
        },
        {
          "indexed": true,
          "internalType": "address",
          "name": "newOwner",
          "type": "address"
        }
      ],
      "name": "OwnershipTransferred",
      "type": "event"
    },
    {
      "anonymous": false,
      "inputs": [
        {
          "indexed": false,
          "internalType": "address",
          "name": "account",
          "type": "address"
        }
      ],
      "name": "Paused",
      "type": "event"
    },
    {
      "anonymous": false,
      "inputs": [
        {
          "indexed": false,
          "internalType": "address",
          "name": "account",
          "type": "address"
        }
      ],
      "name": "Unpaused",
      "type": "event"
    },
    {
      "stateMutability": "payable",
      "type": "fallback"
    },
    {
      "inputs": [
        {
          "internalType": "address",
          "name": "newValidator",
          "type": "address"
        }
      ],
      "name": "addInternalValidator",
      "outputs": [],
      "stateMutability": "nonpayable",
      "type": "function"
    },
    {
      "inputs": [
        {
          "internalType": "address",
          "name": "",
          "type": "address"
        }
      ],
      "name": "externalValidatorRegistered",
      "outputs": [
        {
          "internalType": "uint256",
          "name": "",
          "type": "uint256"
        }
      ],
      "stateMutability": "view",
      "type": "function"
    },
    {
      "inputs": [
        {
          "internalType": "uint256",
          "name": "",
          "type": "uint256"
        }
      ],
      "name": "externalValidators",
      "outputs": [
        {
          "internalType": "address",
          "name": "",
          "type": "address"
        }
      ],
      "stateMutability": "view",
      "type": "function"
    },
    {
      "inputs": [
        {
          "internalType": "address",
          "name": "validator",
          "type": "address"
        }
      ],
      "name": "getValidator",
      "outputs": [
        {
          "components": [
            {
              "internalType": "uint256",
              "name": "total_stake",
              "type": "uint256"
            },
            {
              "internalType": "uint256",
              "name": "commission_reward",
              "type": "uint256"
            },
            {
              "internalType": "uint16",
              "name": "commission",
              "type": "uint16"
            },
            {
              "internalType": "uint64",
              "name": "last_commission_change",
              "type": "uint64"
            },
            {
              "internalType": "address",
              "name": "owner",
              "type": "address"
            },
            {
              "internalType": "string",
              "name": "description",
              "type": "string"
            },
            {
              "internalType": "string",
              "name": "endpoint",
              "type": "string"
            }
          ],
          "internalType": "struct IDPOS.ValidatorBasicInfo",
          "name": "validatorData",
          "type": "tuple"
        }
      ],
      "stateMutability": "view",
      "type": "function"
    },
    {
      "inputs": [
        {
          "internalType": "uint32",
          "name": "batch",
          "type": "uint32"
        }
      ],
      "name": "getValidators",
      "outputs": [
        {
          "components": [
            {
              "internalType": "address",
              "name": "account",
              "type": "address"
            },
            {
              "components": [
                {
                  "internalType": "uint256",
                  "name": "total_stake",
                  "type": "uint256"
                },
                {
                  "internalType": "uint256",
                  "name": "commission_reward",
                  "type": "uint256"
                },
                {
                  "internalType": "uint16",
                  "name": "commission",
                  "type": "uint16"
                },
                {
                  "internalType": "uint64",
                  "name": "last_commission_change",
                  "type": "uint64"
                },
                {
                  "internalType": "address",
                  "name": "owner",
                  "type": "address"
                },
                {
                  "internalType": "string",
                  "name": "description",
                  "type": "string"
                },
                {
                  "internalType": "string",
                  "name": "endpoint",
                  "type": "string"
                }
              ],
              "internalType": "struct IDPOS.ValidatorBasicInfo",
              "name": "info",
              "type": "tuple"
            }
          ],
          "internalType": "struct IDPOS.ValidatorData[]",
          "name": "validators",
          "type": "tuple[]"
        },
        {
          "internalType": "bool",
          "name": "end",
          "type": "bool"
        }
      ],
      "stateMutability": "view",
      "type": "function"
    },
    {
      "inputs": [
        {
          "internalType": "address",
          "name": "owner",
          "type": "address"
        },
        {
          "internalType": "uint32",
          "name": "batch",
          "type": "uint32"
        }
      ],
      "name": "getValidatorsFor",
      "outputs": [
        {
          "components": [
            {
              "internalType": "address",
              "name": "account",
              "type": "address"
            },
            {
              "components": [
                {
                  "internalType": "uint256",
                  "name": "total_stake",
                  "type": "uint256"
                },
                {
                  "internalType": "uint256",
                  "name": "commission_reward",
                  "type": "uint256"
                },
                {
                  "internalType": "uint16",
                  "name": "commission",
                  "type": "uint16"
                },
                {
                  "internalType": "uint64",
                  "name": "last_commission_change",
                  "type": "uint64"
                },
                {
                  "internalType": "address",
                  "name": "owner",
                  "type": "address"
                },
                {
                  "internalType": "string",
                  "name": "description",
                  "type": "string"
                },
                {
                  "internalType": "string",
                  "name": "endpoint",
                  "type": "string"
                }
              ],
              "internalType": "struct IDPOS.ValidatorBasicInfo",
              "name": "info",
              "type": "tuple"
            }
          ],
          "internalType": "struct IDPOS.ValidatorData[]",
          "name": "validators",
          "type": "tuple[]"
        },
        {
          "internalType": "bool",
          "name": "end",
          "type": "bool"
        }
      ],
      "stateMutability": "view",
      "type": "function"
    },
    {
      "inputs": [
        {
          "internalType": "address",
          "name": "",
          "type": "address"
        }
      ],
      "name": "internalValidatorRegistered",
      "outputs": [
        {
          "internalType": "uint256",
          "name": "",
          "type": "uint256"
        }
      ],
      "stateMutability": "view",
      "type": "function"
    },
    {
      "inputs": [
        {
          "internalType": "uint256",
          "name": "",
          "type": "uint256"
        }
      ],
      "name": "internalValidators",
      "outputs": [
        {
          "internalType": "address",
          "name": "",
          "type": "address"
        }
      ],
      "stateMutability": "view",
      "type": "function"
    },
    {
      "inputs": [],
      "name": "owner",
      "outputs": [
        {
          "internalType": "address",
          "name": "",
          "type": "address"
        }
      ],
      "stateMutability": "view",
      "type": "function"
    },
    {
      "inputs": [],
      "name": "paused",
      "outputs": [
        {
          "internalType": "bool",
          "name": "",
          "type": "bool"
        }
      ],
      "stateMutability": "view",
      "type": "function"
    },
    {
      "inputs": [
        {
          "internalType": "address",
          "name": "validator",
          "type": "address"
        },
        {
          "internalType": "bytes",
          "name": "proof",
          "type": "bytes"
        },
        {
          "internalType": "bytes",
          "name": "vrfKey",
          "type": "bytes"
        },
        {
          "internalType": "uint16",
          "name": "commission",
          "type": "uint16"
        },
        {
          "internalType": "string",
          "name": "description",
          "type": "string"
        },
        {
          "internalType": "string",
          "name": "endpoint",
          "type": "string"
        }
      ],
      "name": "registerValidator",
      "outputs": [],
      "stateMutability": "payable",
      "type": "function"
    },
    {
      "inputs": [],
      "name": "renounceOwnership",
      "outputs": [],
      "stateMutability": "nonpayable",
      "type": "function"
    },
    {
      "inputs": [
        {
          "internalType": "address",
          "name": "newOwner",
          "type": "address"
        }
      ],
      "name": "transferOwnership",
      "outputs": [],
      "stateMutability": "nonpayable",
      "type": "function"
    },
    {
      "stateMutability": "payable",
      "type": "receive"
    }
  ],
  "bytecode": "0x60c06040526040516200219938038062002199833981016040819052620000269162000265565b806001600160a01b0381166200009a5760405162461bcd60e51b815260206004820152602f60248201527f5a65726f2061646472657373206e6f7420612076616c696420696d706c656d6560448201526e6e746174696f6e206164647265737360881b606482015260840160405180910390fd5b6001600160a01b0316608052620000b13362000161565b6000805460ff60a01b19169055600180558151620000d7906002906020850190620001b1565b506001600160a01b03811660a05260005b82518110156200015857620000ff81600162000361565b600660008584815181106200011857620001186200037d565b60200260200101516001600160a01b03166001600160a01b031681526020019081526020016000208190555080620001509062000393565b9050620000e8565b505050620003af565b600080546001600160a01b038381166001600160a01b0319831681178455604051919092169283917f8be0079c531659141344cd1fd0a4f28419497f9722a3daafe3b4186f6b6457e09190a35050565b82805482825590600052602060002090810192821562000209579160200282015b828111156200020957825182546001600160a01b0319166001600160a01b03909116178255602090920191600190910190620001d2565b50620002179291506200021b565b5090565b5b808211156200021757600081556001016200021c565b634e487b7160e01b600052604160045260246000fd5b80516001600160a01b03811681146200026057600080fd5b919050565b600080604083850312156200027957600080fd5b82516001600160401b03808211156200029157600080fd5b818501915085601f830112620002a657600080fd5b8151602082821115620002bd57620002bd62000232565b8160051b604051601f19603f83011681018181108682111715620002e557620002e562000232565b6040529283528183019350848101820192898411156200030457600080fd5b948201945b838610156200032d576200031d8662000248565b8552948201949382019362000309565b96506200033e905087820162000248565b9450505050509250929050565b634e487b7160e01b600052601160045260246000fd5b808201808211156200037757620003776200034b565b92915050565b634e487b7160e01b600052603260045260246000fd5b600060018201620003a857620003a86200034b565b5060010190565b60805160a051611da1620003f8600039600081816104c901528181610a3301528181610d7001528181610ff70152818161124d0152611346015260006103090152611da16000f3fe6080604052600436106100d55760003560e01c8063715018a61161007f578063c864e09411610059578063c864e09414610282578063d6fdc127146102a2578063e6a5d3ac146102b5578063f2fde38b146102e2576100e4565b8063715018a61461022f578063724ac6b0146102445780638da5cb5b14610264576100e4565b806348a547ea116100b057806348a547ea146101815780635c975abb146101b9578063661db647146101f4576100e4565b806233f818146100fd5780631904bb2e1461011d57806319d8024f14610153576100e4565b366100e4576100e2610302565b005b60003660606100f1610302565b50915050805190602001f35b34801561010957600080fd5b506100e26101183660046114f7565b610331565b34801561012957600080fd5b5061013d6101383660046114f7565b610437565b60405161014a91906115eb565b60405180910390f35b34801561015f57600080fd5b5061017361016e366004611612565b610584565b60405161014a92919061162d565b34801561018d57600080fd5b506101a161019c3660046116b4565b61059a565b6040516001600160a01b03909116815260200161014a565b3480156101c557600080fd5b5060005474010000000000000000000000000000000000000000900460ff16604051901515815260200161014a565b34801561020057600080fd5b5061022161020f3660046114f7565b60076020526000908152604090205481565b60405190815260200161014a565b34801561023b57600080fd5b506100e26105c4565b34801561025057600080fd5b5061017361025f3660046116cd565b6105d8565b34801561027057600080fd5b506000546001600160a01b03166101a1565b34801561028e57600080fd5b506101a161029d3660046116b4565b61079a565b6100e26102b0366004611870565b6107aa565b3480156102c157600080fd5b506102216102d03660046114f7565b60066020526000908152604090205481565b3480156102ee57600080fd5b506100e26102fd3660046114f7565b610ea0565b606061032d7f0000000000000000000000000000000000000000000000000000000000000000610f30565b5090565b610339610f57565b6001600160a01b038116600090815260066020526040902054156103a45760405162461bcd60e51b815260206004820152601c60248201527f56616c696461746f7220616c726561647920726567697374657265640000000060448201526064015b60405180910390fd5b600280546001810182557f405787fa12a823e0f2b7631cc41b3ba8828b3321ca811111fa75cd3aa3bb5ace01805473ffffffffffffffffffffffffffffffffffffffff19166001600160a01b03841690811790915590546000828152600660205260408082209290925590517fbfa2ccf2939ec146aeb2a2699464bf7421a2a23e55cd1268018647a9dfa9b8139190a250565b61048e6040518060e001604052806000815260200160008152602001600061ffff168152602001600067ffffffffffffffff16815260200160006001600160a01b0316815260200160608152602001606081525090565b6040517f1904bb2e0000000000000000000000000000000000000000000000000000000081526001600160a01b0383811660048301526000917f000000000000000000000000000000000000000000000000000000000000000090911690631904bb2e90602401600060405180830381865afa158015610512573d6000803e3d6000fd5b505050506040513d6000823e601f3d908101601f1916820160405261053a9190810190611a7b565b6001600160a01b03848116600090815260046020526040902054919250161561057e576001600160a01b038084166000908152600460205260409020541660808201525b92915050565b6060600061059183610fb1565b91509150915091565b600281815481106105aa57600080fd5b6000918252602090912001546001600160a01b0316905081565b6105cc610f57565b6105d66000611176565b565b60606000606060006105e985610fb1565b6040805160018082528183019092529294509092506000918291816020015b61061061145b565b81526020019060019003908161060857905050905060005b84518161ffff16101561078a57886001600160a01b0316858261ffff168151811061065557610655611ab0565b602002602001015160200151608001516001600160a01b0316036107825761067c83611adc565b925060008361ffff1667ffffffffffffffff81111561069d5761069d611702565b6040519080825280602002602001820160405280156106d657816020015b6106c361145b565b8152602001906001900390816106bb5790505b50905060005b83518361ffff161015610733578381815181106106fb576106fb611ab0565b602002602001015182828151811061071557610715611ab0565b6020026020010181905250808061072b90611afd565b9150506106dc565b50858261ffff168151811061074a5761074a611ab0565b6020026020010151816001866107609190611b16565b61ffff168151811061077457610774611ab0565b602090810291909101015291505b600101610628565b50945090925050505b9250929050565b600381815481106105aa57600080fd5b6107b26111d3565b600280546000916107c4903490611b38565b6107ce9190611b4f565b6001600160a01b038a1660009081526007602052604090205490915015801561080d57506001600160a01b038916600090815260066020526040902054155b6108595760405162461bcd60e51b815260206004820152601c60248201527f56616c696461746f7220616c7265616479207265676973746572656400000000604482015260640161039b565b683635c9adc5dea000003410156108d85760405162461bcd60e51b815260206004820152603860248201527f53656e742076616c7565206c657373207468616e206d696e696d616c2064656c60448201527f65676174696f6e20666f7220726567697374726174696f6e0000000000000000606482015260840161039b565b6002546108e59082611b38565b47101561095a5760405162461bcd60e51b815260206004820152603460248201527f496e73756666696369656e742066756e647320696e20636f6e7472616374206660448201527f6f7220746573746e657420726562616c616e6365000000000000000000000000606482015260840161039b565b60008061096561122c565b90925090508115158061097757508015155b6109e95760405162461bcd60e51b815260206004820152602260248201527f43616c63756c6174696e672063757272656e74207374616b6573206661696c6560448201527f6421000000000000000000000000000000000000000000000000000000000000606482015260840161039b565b6000683635c9adc5dea0000034610a01846002611b38565b610a0b9190611b71565b610a159190611b71565b905080831015610be05760005b60025460ff82161015610bde5760007f00000000000000000000000000000000000000000000000000000000000000006001600160a01b03168660028460ff1681548110610a7257610a72611ab0565b6000918252602090912001546040516001600160a01b03909116602482015260440160408051601f198184030181529181526020820180516001600160e01b03167f5c19a95c0000000000000000000000000000000000000000000000000000000017905251610ae29190611b84565b60006040518083038185875af1925050503d8060008114610b1f576040519150601f19603f3d011682016040523d82523d6000602084013e610b24565b606091505b5050905080610b755760405162461bcd60e51b815260206004820152601460248201527f44656c65676174652063616c6c206661696c6564000000000000000000000000604482015260640161039b565b60028260ff1681548110610b8b57610b8b611ab0565b600091825260209182902001546040518881526001600160a01b03909116917fdb81da2c3076a89e932e0ed0c55b123f6cbb46dd9611c38e1a5e0ef755f71028910160405180910390a250600101610a22565b505b60056000336001600160a01b03166001600160a01b031681526020019081526020016000208c9080600181540180825580915050600190039060005260206000200160009091909190916101000a8154816001600160a01b0302191690836001600160a01b0316021790555060038c9080600181540180825580915050600190039060005260206000200160009091909190916101000a8154816001600160a01b0302191690836001600160a01b03160217905550600380549050600760008e6001600160a01b03166001600160a01b031681526020019081526020016000208190555033600460008e6001600160a01b03166001600160a01b0316815260200190815260200160002060006101000a8154816001600160a01b0302191690836001600160a01b03160217905550600063d6fdc12760e01b8d8d8d8d8d8d8d8d604051602401610d37989796959493929190611bc9565b604051602081830303815290604052906001600160e01b0319166020820180516001600160e01b038381831617835250505050905060007f00000000000000000000000000000000000000000000000000000000000000006001600160a01b03163483604051610da79190611b84565b60006040518083038185875af1925050503d8060008114610de4576040519150601f19603f3d011682016040523d82523d6000602084013e610de9565b606091505b5050905080610e3a5760405162461bcd60e51b815260206004820152601e60248201527f52656769737465722076616c696461746f722063616c6c206661696c65640000604482015260640161039b565b336001600160a01b03168e6001600160a01b03167fb18da5935e7c07b652bb6ac6c3f79317231b1cc912de1524266eb17e7287baa534604051610e7f91815260200190565b60405180910390a3505050505050610e9660018055565b5050505050505050565b610ea8610f57565b6001600160a01b038116610f245760405162461bcd60e51b815260206004820152602660248201527f4f776e61626c653a206e6577206f776e657220697320746865207a65726f206160448201527f6464726573730000000000000000000000000000000000000000000000000000606482015260840161039b565b610f2d81611176565b50565b6060366000803760008036600034865af13d6000803e808015610f52573d6000f35b3d6000fd5b6000546001600160a01b031633146105d65760405162461bcd60e51b815260206004820181905260248201527f4f776e61626c653a2063616c6c6572206973206e6f7420746865206f776e6572604482015260640161039b565b6040517f19d8024f00000000000000000000000000000000000000000000000000000000815263ffffffff82166004820152606090600090829082906001600160a01b037f000000000000000000000000000000000000000000000000000000000000000016906319d8024f90602401600060405180830381865afa15801561103e573d6000803e3d6000fd5b505050506040513d6000823e601f3d908101601f191682016040526110669190810190611c50565b909250905060005b82518160ff16101561116b5760006001600160a01b031660046000858460ff168151811061109e5761109e611ab0565b602090810291909101810151516001600160a01b039081168352908201929092526040016000205416146111635760046000848360ff16815181106110e5576110e5611ab0565b6020026020010151600001516001600160a01b03166001600160a01b0316815260200190815260200160002060009054906101000a90046001600160a01b0316838260ff168151811061113a5761113a611ab0565b602002602001015160200151608001906001600160a01b031690816001600160a01b0316815250505b60010161106e565b509094909350915050565b600080546001600160a01b0383811673ffffffffffffffffffffffffffffffffffffffff19831681178455604051919092169283917f8be0079c531659141344cd1fd0a4f28419497f9722a3daafe3b4186f6b6457e09190a35050565b6002600154036112255760405162461bcd60e51b815260206004820152601f60248201527f5265656e7472616e637947756172643a207265656e7472616e742063616c6c00604482015260640161039b565b6002600155565b60008060018180805b831561116b5760025461ffff821610156113345760007f00000000000000000000000000000000000000000000000000000000000000006001600160a01b0316631904bb2e60028461ffff168154811061129157611291611ab0565b60009182526020909120015460405160e083901b7fffffffff000000000000000000000000000000000000000000000000000000001681526001600160a01b039091166004820152602401600060405180830381865afa1580156112f9573d6000803e3d6000fd5b505050506040513d6000823e601f3d908101601f191682016040526113219190810190611a7b565b80519091506113309085611b71565b9350505b60035461ffff8216101561142d5760007f00000000000000000000000000000000000000000000000000000000000000006001600160a01b0316631904bb2e60038461ffff168154811061138a5761138a611ab0565b60009182526020909120015460405160e083901b7fffffffff000000000000000000000000000000000000000000000000000000001681526001600160a01b039091166004820152602401600060405180830381865afa1580156113f2573d6000803e3d6000fd5b505050506040513d6000823e601f3d908101601f1916820160405261141a9190810190611a7b565b80519091506114299084611b71565b9250505b60025461ffff821610801590611449575060035461ffff821610155b1561145357600093505b600101611235565b604051806040016040528060006001600160a01b031681526020016114cd6040518060e001604052806000815260200160008152602001600061ffff168152602001600067ffffffffffffffff16815260200160006001600160a01b0316815260200160608152602001606081525090565b905290565b6001600160a01b0381168114610f2d57600080fd5b80356114f2816114d2565b919050565b60006020828403121561150957600080fd5b8135611514816114d2565b9392505050565b60005b8381101561153657818101518382015260200161151e565b50506000910152565b6000815180845261155781602086016020860161151b565b601f01601f19169290920160200192915050565b805182526020810151602083015261ffff604082015116604083015267ffffffffffffffff60608201511660608301526001600160a01b036080820151166080830152600060a082015160e060a08501526115c960e085018261153f565b905060c083015184820360c08601526115e2828261153f565b95945050505050565b602081526000611514602083018461156b565b803563ffffffff811681146114f257600080fd5b60006020828403121561162457600080fd5b611514826115fe565b6000604080830181845280865180835260608601915060608160051b8701019250602080890160005b8381101561169e57888603605f19018552815180516001600160a01b0316875283015183870188905261168b8888018261156b565b9650509382019390820190600101611656565b5050961515959096019490945295945050505050565b6000602082840312156116c657600080fd5b5035919050565b600080604083850312156116e057600080fd5b82356116eb816114d2565b91506116f9602084016115fe565b90509250929050565b634e487b7160e01b600052604160045260246000fd5b60405160e0810167ffffffffffffffff8111828210171561173b5761173b611702565b60405290565b6040805190810167ffffffffffffffff8111828210171561173b5761173b611702565b604051601f8201601f1916810167ffffffffffffffff8111828210171561178d5761178d611702565b604052919050565b600067ffffffffffffffff8211156117af576117af611702565b50601f01601f191660200190565b600082601f8301126117ce57600080fd5b81356117e16117dc82611795565b611764565b8181528460208386010111156117f657600080fd5b816020850160208301376000918101602001919091529392505050565b61ffff81168114610f2d57600080fd5b80356114f281611813565b60008083601f84011261184057600080fd5b50813567ffffffffffffffff81111561185857600080fd5b60208301915083602082850101111561079357600080fd5b60008060008060008060008060c0898b03121561188c57600080fd5b611895896114e7565b9750602089013567ffffffffffffffff808211156118b257600080fd5b6118be8c838d016117bd565b985060408b01359150808211156118d457600080fd5b6118e08c838d016117bd565b97506118ee60608c01611823565b965060808b013591508082111561190457600080fd5b6119108c838d0161182e565b909650945060a08b013591508082111561192957600080fd5b506119368b828c0161182e565b999c989b5096995094979396929594505050565b80516114f281611813565b805167ffffffffffffffff811681146114f257600080fd5b80516114f2816114d2565b600082601f83011261198957600080fd5b81516119976117dc82611795565b8181528460208386010111156119ac57600080fd5b6119bd82602083016020870161151b565b949350505050565b600060e082840312156119d757600080fd5b6119df611718565b905081518152602082015160208201526119fb6040830161194a565b6040820152611a0c60608301611955565b6060820152611a1d6080830161196d565b608082015260a082015167ffffffffffffffff80821115611a3d57600080fd5b611a4985838601611978565b60a084015260c0840151915080821115611a6257600080fd5b50611a6f84828501611978565b60c08301525092915050565b600060208284031215611a8d57600080fd5b815167ffffffffffffffff811115611aa457600080fd5b6119bd848285016119c5565b634e487b7160e01b600052603260045260246000fd5b634e487b7160e01b600052601160045260246000fd5b600061ffff808316818103611af357611af3611ac6565b6001019392505050565b600060018201611b0f57611b0f611ac6565b5060010190565b61ffff828116828216039080821115611b3157611b31611ac6565b5092915050565b808202811582820484141761057e5761057e611ac6565b600082611b6c57634e487b7160e01b600052601260045260246000fd5b500490565b8082018082111561057e5761057e611ac6565b60008251611b9681846020870161151b565b9190910192915050565b81835281816020850137506000828201602090810191909152601f909101601f19169091010190565b6001600160a01b038916815260c060208201526000611beb60c083018a61153f565b8281036040840152611bfd818a61153f565b905061ffff881660608401528281036080840152611c1c818789611ba0565b905082810360a0840152611c31818587611ba0565b9b9a5050505050505050505050565b805180151581146114f257600080fd5b6000806040808486031215611c6457600080fd5b835167ffffffffffffffff80821115611c7c57600080fd5b818601915086601f830112611c9057600080fd5b8151602082821115611ca457611ca4611702565b8160051b611cb3828201611764565b928352848101820192828101908b851115611ccd57600080fd5b83870192505b84831015611d4d57825186811115611ceb5760008081fd5b8701808d03601f1901891315611d015760008081fd5b611d09611741565b85820151611d16816114d2565b8152818a015188811115611d2a5760008081fd5b611d388f88838601016119c5565b82880152508352509183019190830190611cd3565b9850611d5d915050888201611c40565b95505050505050925092905056fea264697066735822122002461fc957a45cdbdf1be8a937a80325cef8b4e435205a4b329bd3d03d049bd564736f6c63430008120033",
  "linkReferences": {},
  "deployedLinkReferences": {}
}