{
  "_format": "hh-sol-artifact-1",
  "contractName": "DelegationOrchestrator",
  "sourceName": "contracts/DelegationOrchestrator.sol",
  "abi": [
    {
      "inputs": [
        {
          "internalType": "address[]",
          "name": "_internalValidators",
          "type": "address[]"
        },
        {
          "internalType": "address",
          "name": "dposContract",
          "type": "address"
        }
      ],
      "stateMutability": "payable",
      "type": "constructor"
    },
    {
      "anonymous": false,
      "inputs": [
        {
          "indexed": true,
          "internalType": "address",
          "name": "wallet",
          "type": "address"
        },
        {
          "indexed": true,
          "internalType": "address",
          "name": "delegator",
          "type": "address"
        },
        {
          "indexed": false,
          "internalType": "uint256",
          "name": "tokens",
          "type": "uint256"
        }
      ],
      "name": "ExternalValidatorRegistered",
      "type": "event"
    },
    {
      "anonymous": false,
      "inputs": [
        {
          "indexed": true,
          "internalType": "address",
          "name": "wallet",
          "type": "address"
        }
      ],
      "name": "InternalValidatorAdded",
      "type": "event"
    },
    {
      "anonymous": false,
      "inputs": [
        {
          "indexed": true,
          "internalType": "address",
          "name": "validatorAddress",
          "type": "address"
        },
        {
          "indexed": false,
          "internalType": "uint256",
          "name": "delegatedValue",
          "type": "uint256"
        }
      ],
      "name": "InternalValidatorDelegationIncreased",
      "type": "event"
    },
    {
      "anonymous": false,
      "inputs": [
        {
          "indexed": true,
          "internalType": "address",
          "name": "previousOwner",
          "type": "address"
        },
        {
          "indexed": true,
          "internalType": "address",
          "name": "newOwner",
          "type": "address"
        }
      ],
      "name": "OwnershipTransferred",
      "type": "event"
    },
    {
      "anonymous": false,
      "inputs": [
        {
          "indexed": false,
          "internalType": "address",
          "name": "account",
          "type": "address"
        }
      ],
      "name": "Paused",
      "type": "event"
    },
    {
      "anonymous": false,
      "inputs": [
        {
          "indexed": false,
          "internalType": "address",
          "name": "account",
          "type": "address"
        }
      ],
      "name": "Unpaused",
      "type": "event"
    },
    {
      "inputs": [],
      "name": "owner",
      "outputs": [
        {
          "internalType": "address",
          "name": "",
          "type": "address"
        }
      ],
      "stateMutability": "view",
      "type": "function"
    },
    {
      "inputs": [],
      "name": "paused",
      "outputs": [
        {
          "internalType": "bool",
          "name": "",
          "type": "bool"
        }
      ],
      "stateMutability": "view",
      "type": "function"
    },
    {
      "inputs": [
        {
          "internalType": "address",
          "name": "_validator",
          "type": "address"
        },
        {
          "internalType": "bytes",
          "name": "_proof",
          "type": "bytes"
        },
        {
          "internalType": "bytes",
          "name": "_vrf_key",
          "type": "bytes"
        },
        {
          "internalType": "uint16",
          "name": "_commission",
          "type": "uint16"
        },
        {
          "internalType": "string",
          "name": "_description",
          "type": "string"
        },
        {
          "internalType": "string",
          "name": "_endpoint",
          "type": "string"
        }
      ],
      "name": "registerExternalValidator",
      "outputs": [],
      "stateMutability": "payable",
      "type": "function"
    },
    {
      "inputs": [],
      "name": "renounceOwnership",
      "outputs": [],
      "stateMutability": "nonpayable",
      "type": "function"
    },
    {
      "inputs": [
        {
          "internalType": "address",
          "name": "newOwner",
          "type": "address"
        }
      ],
      "name": "transferOwnership",
      "outputs": [],
      "stateMutability": "nonpayable",
      "type": "function"
    },
    {
      "stateMutability": "payable",
      "type": "receive"
    }
  ],
  "bytecode": "0x6080604052683635c9adc5dea0000060015560fe600260006101000a81548173ffffffffffffffffffffffffffffffffffffffff021916908373ffffffffffffffffffffffffffffffffffffffff16021790555060405162001adf38038062001adf8339818101604052810190620000789190620006f0565b620000986200008c6200038560201b60201c565b6200038d60201b60201c565b60008060146101000a81548160ff021916908315150217905550620000ce675a67d5c135b9fe9b60c01b6200045160201b60201c565b620000ea67da201d6418f0a00b60c01b6200045160201b60201c565b81600490805190602001906200010292919062000454565b506200011f67d374996a4b133d7c60c01b6200045160201b60201c565b80600360006101000a81548173ffffffffffffffffffffffffffffffffffffffff021916908373ffffffffffffffffffffffffffffffffffffffff1602179055506200017c67835990f169cd7b6a60c01b6200045160201b60201c565b620001986753cc27d4dc91eb6760c01b6200045160201b60201c565b60005b82518110156200024a57620001c167eb5e79447c3ede3360c01b6200045160201b60201c565b600160056000858481518110620001dd57620001dc62000756565b5b602002602001015173ffffffffffffffffffffffffffffffffffffffff1673ffffffffffffffffffffffffffffffffffffffff16815260200190815260200160002060006101000a81548160ff021916908315150217905550806200024290620007be565b90506200019b565b5062000267675d0544214a27658360c01b6200045160201b60201c565b6200028367c6800074921d0e3960c01b6200045160201b60201c565b6200029f672b46dc749395241960c01b6200045160201b60201c565b60011515600560008460018651620002b891906200080b565b81518110620002cc57620002cb62000756565b5b602002602001015173ffffffffffffffffffffffffffffffffffffffff1673ffffffffffffffffffffffffffffffffffffffff16815260200190815260200160002060009054906101000a900460ff1615151462000361576040517f08c379a00000000000000000000000000000000000000000000000000000000081526004016200035890620008a7565b60405180910390fd5b6200037d67d01d3945add21ef360c01b6200045160201b60201c565b5050620008c9565b600033905090565b60008060009054906101000a900473ffffffffffffffffffffffffffffffffffffffff169050816000806101000a81548173ffffffffffffffffffffffffffffffffffffffff021916908373ffffffffffffffffffffffffffffffffffffffff1602179055508173ffffffffffffffffffffffffffffffffffffffff168173ffffffffffffffffffffffffffffffffffffffff167f8be0079c531659141344cd1fd0a4f28419497f9722a3daafe3b4186f6b6457e060405160405180910390a35050565b50565b828054828255906000526020600020908101928215620004d0579160200282015b82811115620004cf5782518260006101000a81548173ffffffffffffffffffffffffffffffffffffffff021916908373ffffffffffffffffffffffffffffffffffffffff1602179055509160200191906001019062000475565b5b509050620004df9190620004e3565b5090565b5b80821115620004fe576000816000905550600101620004e4565b5090565b6000604051905090565b600080fd5b600080fd5b600080fd5b6000601f19601f8301169050919050565b7f4e487b7100000000000000000000000000000000000000000000000000000000600052604160045260246000fd5b62000566826200051b565b810181811067ffffffffffffffff821117156200058857620005876200052c565b5b80604052505050565b60006200059d62000502565b9050620005ab82826200055b565b919050565b600067ffffffffffffffff821115620005ce57620005cd6200052c565b5b602082029050602081019050919050565b600080fd5b600073ffffffffffffffffffffffffffffffffffffffff82169050919050565b60006200061182620005e4565b9050919050565b620006238162000604565b81146200062f57600080fd5b50565b600081519050620006438162000618565b92915050565b6000620006606200065a84620005b0565b62000591565b90508083825260208201905060208402830185811115620006865762000685620005df565b5b835b81811015620006b357806200069e888262000632565b84526020840193505060208101905062000688565b5050509392505050565b600082601f830112620006d557620006d462000516565b5b8151620006e784826020860162000649565b91505092915050565b600080604083850312156200070a57620007096200050c565b5b600083015167ffffffffffffffff8111156200072b576200072a62000511565b5b6200073985828601620006bd565b92505060206200074c8582860162000632565b9150509250929050565b7f4e487b7100000000000000000000000000000000000000000000000000000000600052603260045260246000fd5b7f4e487b7100000000000000000000000000000000000000000000000000000000600052601160045260246000fd5b6000819050919050565b6000620007cb82620007b4565b91507fffffffffffffffffffffffffffffffffffffffffffffffffffffffffffffffff82036200080057620007ff62000785565b5b600182019050919050565b60006200081882620007b4565b91506200082583620007b4565b925082820390508181111562000840576200083f62000785565b5b92915050565b600082825260208201905092915050565b7f4661696c656420746f20736574206f776e2076616c696461746f727300000000600082015250565b60006200088f601c8362000846565b91506200089c8262000857565b602082019050919050565b60006020820190508181036000830152620008c28162000880565b9050919050565b61120680620008d96000396000f3fe60806040526004361061005e5760003560e01c8063715018a611610043578063715018a6146100b15780638da5cb5b146100c8578063f2fde38b146100f357610065565b80631b49ca9c1461006a5780635c975abb1461008657610065565b3661006557005b600080fd5b610084600480360381019061007f9190610b45565b61011c565b005b34801561009257600080fd5b5061009b6106d0565b6040516100a89190610c67565b60405180910390f35b3480156100bd57600080fd5b506100c66106e6565b005b3480156100d457600080fd5b506100dd6106fa565b6040516100ea9190610c91565b60405180910390f35b3480156100ff57600080fd5b5061011a60048036038101906101159190610cac565b610723565b005b6101306715c57c917d8edd8060c01b6107a6565b610144674455d1cbd99d513760c01b6107a6565b61015867e2d2574d1ddf95e760c01b6107a6565b60003460026101679190610d12565b905061017d6782e5e1e0685dbccb60c01b6107a6565b61019167ac7a81ee2043298560c01b6107a6565b6101a5676b28069b4242636d60c01b6107a6565b60001515600560008b73ffffffffffffffffffffffffffffffffffffffff1673ffffffffffffffffffffffffffffffffffffffff16815260200190815260200160002060009054906101000a900460ff16151514610238576040517f08c379a000000000000000000000000000000000000000000000000000000000815260040161022f90610db1565b60405180910390fd5b61024c67b4f580e75b5be2d460c01b6107a6565b61026067529c29cfb1b389c360c01b6107a6565b61027467d4739de074e7082460c01b6107a6565b610288674b504fe2166d102360c01b6107a6565b6001543410156102cd576040517f08c379a00000000000000000000000000000000000000000000000000000000081526004016102c490610e43565b60405180910390fd5b6102e16728e39fc1bfe284f060c01b6107a6565b6102f567d80d67bd78d83e7f60c01b6107a6565b61030866d7981d3d4ae3ae60c01b6107a6565b61031c6774ff50edaf9f8bba60c01b6107a6565b6004805490508161032d9190610d12565b471161036e576040517f08c379a000000000000000000000000000000000000000000000000000000000815260040161036590610ed5565b60405180910390fd5b61038267feeaa1a67af123ea60c01b6107a6565b6103966741f1e6d4de59db7360c01b6107a6565b6103aa67fc61c4a05b6c113260c01b6107a6565b60005b600480549050811015610573576103ce67b19d60c46f559eb860c01b6107a6565b6103e267fae9bf561379c9d860c01b6107a6565b600360009054906101000a900473ffffffffffffffffffffffffffffffffffffffff1673ffffffffffffffffffffffffffffffffffffffff16635c19a95c836004848154811061043557610434610ef5565b5b9060005260206000200160009054906101000a900473ffffffffffffffffffffffffffffffffffffffff166040518363ffffffff1660e01b815260040161047c9190610c91565b6000604051808303818588803b15801561049557600080fd5b505af11580156104a9573d6000803e3d6000fd5b50505050506104c267bbd2454e57b7fa2560c01b6107a6565b6104d667c2446edaf9d0f64060c01b6107a6565b600481815481106104ea576104e9610ef5565b5b9060005260206000200160009054906101000a900473ffffffffffffffffffffffffffffffffffffffff1673ffffffffffffffffffffffffffffffffffffffff167fdb81da2c3076a89e932e0ed0c55b123f6cbb46dd9611c38e1a5e0ef755f710288360405161055a9190610f33565b60405180910390a28061056c90610f4e565b90506103ad565b5061058867759d39fbe204d0e460c01b6107a6565b61059c67887045c1c459570b60c01b6107a6565b600360009054906101000a900473ffffffffffffffffffffffffffffffffffffffff1673ffffffffffffffffffffffffffffffffffffffff1663d6fdc127348b8b8b8b8b8b8b8b6040518a63ffffffff1660e01b8152600401610606989796959493929190611051565b6000604051808303818588803b15801561061f57600080fd5b505af1158015610633573d6000803e3d6000fd5b505050505061064c67386c76319e45536260c01b6107a6565b61066067b29bd6dba269796860c01b6107a6565b3373ffffffffffffffffffffffffffffffffffffffff168973ffffffffffffffffffffffffffffffffffffffff167fb18da5935e7c07b652bb6ac6c3f79317231b1cc912de1524266eb17e7287baa5346040516106bd9190610f33565b60405180910390a3505050505050505050565b60008060149054906101000a900460ff16905090565b6106ee6107a9565b6106f86000610827565b565b60008060009054906101000a900473ffffffffffffffffffffffffffffffffffffffff16905090565b61072b6107a9565b600073ffffffffffffffffffffffffffffffffffffffff168173ffffffffffffffffffffffffffffffffffffffff160361079a576040517f08c379a000000000000000000000000000000000000000000000000000000000815260040161079190611144565b60405180910390fd5b6107a381610827565b50565b50565b6107b16108eb565b73ffffffffffffffffffffffffffffffffffffffff166107cf6106fa565b73ffffffffffffffffffffffffffffffffffffffff1614610825576040517f08c379a000000000000000000000000000000000000000000000000000000000815260040161081c906111b0565b60405180910390fd5b565b60008060009054906101000a900473ffffffffffffffffffffffffffffffffffffffff169050816000806101000a81548173ffffffffffffffffffffffffffffffffffffffff021916908373ffffffffffffffffffffffffffffffffffffffff1602179055508173ffffffffffffffffffffffffffffffffffffffff168173ffffffffffffffffffffffffffffffffffffffff167f8be0079c531659141344cd1fd0a4f28419497f9722a3daafe3b4186f6b6457e060405160405180910390a35050565b600033905090565b6000604051905090565b600080fd5b600080fd5b600073ffffffffffffffffffffffffffffffffffffffff82169050919050565b600061093282610907565b9050919050565b61094281610927565b811461094d57600080fd5b50565b60008135905061095f81610939565b92915050565b600080fd5b600080fd5b6000601f19601f8301169050919050565b7f4e487b7100000000000000000000000000000000000000000000000000000000600052604160045260246000fd5b6109b88261096f565b810181811067ffffffffffffffff821117156109d7576109d6610980565b5b80604052505050565b60006109ea6108f3565b90506109f682826109af565b919050565b600067ffffffffffffffff821115610a1657610a15610980565b5b610a1f8261096f565b9050602081019050919050565b82818337600083830152505050565b6000610a4e610a49846109fb565b6109e0565b905082815260208101848484011115610a6a57610a6961096a565b5b610a75848285610a2c565b509392505050565b600082601f830112610a9257610a91610965565b5b8135610aa2848260208601610a3b565b91505092915050565b600061ffff82169050919050565b610ac281610aab565b8114610acd57600080fd5b50565b600081359050610adf81610ab9565b92915050565b600080fd5b600080fd5b60008083601f840112610b0557610b04610965565b5b8235905067ffffffffffffffff811115610b2257610b21610ae5565b5b602083019150836001820283011115610b3e57610b3d610aea565b5b9250929050565b60008060008060008060008060c0898b031215610b6557610b646108fd565b5b6000610b738b828c01610950565b985050602089013567ffffffffffffffff811115610b9457610b93610902565b5b610ba08b828c01610a7d565b975050604089013567ffffffffffffffff811115610bc157610bc0610902565b5b610bcd8b828c01610a7d565b9650506060610bde8b828c01610ad0565b955050608089013567ffffffffffffffff811115610bff57610bfe610902565b5b610c0b8b828c01610aef565b945094505060a089013567ffffffffffffffff811115610c2e57610c2d610902565b5b610c3a8b828c01610aef565b92509250509295985092959890939650565b60008115159050919050565b610c6181610c4c565b82525050565b6000602082019050610c7c6000830184610c58565b92915050565b610c8b81610927565b82525050565b6000602082019050610ca66000830184610c82565b92915050565b600060208284031215610cc257610cc16108fd565b5b6000610cd084828501610950565b91505092915050565b6000819050919050565b7f4e487b7100000000000000000000000000000000000000000000000000000000600052601160045260246000fd5b6000610d1d82610cd9565b9150610d2883610cd9565b9250828202610d3681610cd9565b91508282048414831517610d4d57610d4c610ce3565b5b5092915050565b600082825260208201905092915050565b7f56616c696461746f7220616c7265616479207265676973746572656400000000600082015250565b6000610d9b601c83610d54565b9150610da682610d65565b602082019050919050565b60006020820190508181036000830152610dca81610d8e565b9050919050565b7f53656e742076616c7565206c657373207468616e206d696e696d616c2064656c60008201527f65676174696f6e20666f7220726567697374726174696f6e0000000000000000602082015250565b6000610e2d603883610d54565b9150610e3882610dd1565b604082019050919050565b60006020820190508181036000830152610e5c81610e20565b9050919050565b7f496e73756666696369656e742066756e647320696e20636f6e7472616374206660008201527f6f7220746573746e657420726562616c616e6365000000000000000000000000602082015250565b6000610ebf603483610d54565b9150610eca82610e63565b604082019050919050565b60006020820190508181036000830152610eee81610eb2565b9050919050565b7f4e487b7100000000000000000000000000000000000000000000000000000000600052603260045260246000fd5b610f2d81610cd9565b82525050565b6000602082019050610f486000830184610f24565b92915050565b6000610f5982610cd9565b91507fffffffffffffffffffffffffffffffffffffffffffffffffffffffffffffffff8203610f8b57610f8a610ce3565b5b600182019050919050565b600081519050919050565b600082825260208201905092915050565b60005b83811015610fd0578082015181840152602081019050610fb5565b60008484015250505050565b6000610fe782610f96565b610ff18185610fa1565b9350611001818560208601610fb2565b61100a8161096f565b840191505092915050565b61101e81610aab565b82525050565b60006110308385610d54565b935061103d838584610a2c565b6110468361096f565b840190509392505050565b600060c082019050611066600083018b610c82565b8181036020830152611078818a610fdc565b9050818103604083015261108c8189610fdc565b905061109b6060830188611015565b81810360808301526110ae818688611024565b905081810360a08301526110c3818486611024565b90509998505050505050505050565b7f4f776e61626c653a206e6577206f776e657220697320746865207a65726f206160008201527f6464726573730000000000000000000000000000000000000000000000000000602082015250565b600061112e602683610d54565b9150611139826110d2565b604082019050919050565b6000602082019050818103600083015261115d81611121565b9050919050565b7f4f776e61626c653a2063616c6c6572206973206e6f7420746865206f776e6572600082015250565b600061119a602083610d54565b91506111a582611164565b602082019050919050565b600060208201905081810360008301526111c98161118d565b905091905056fea264697066735822122014941a699c4d9c63d819bd8d8624f92fd3875c5d6d9af1d7b0db0d0a2ef71a2764736f6c63430008130033",
  "linkReferences": {},
  "deployedLinkReferences": {}
}