{
  "_format": "hh-sol-artifact-1",
  "contractName": "DelegationOrchestrator",
  "sourceName": "contracts/DelegationOrchestrator.sol",
  "abi": [
    {
      "inputs": [
        {
          "internalType": "address[]",
          "name": "validators",
          "type": "address[]"
        },
        {
          "internalType": "address",
          "name": "dposAddress",
          "type": "address"
        }
      ],
      "stateMutability": "payable",
      "type": "constructor"
    },
    {
      "anonymous": false,
      "inputs": [
        {
          "indexed": true,
          "internalType": "address",
          "name": "wallet",
          "type": "address"
        },
        {
          "indexed": true,
          "internalType": "address",
          "name": "delegator",
          "type": "address"
        },
        {
          "indexed": false,
          "internalType": "uint256",
          "name": "tokens",
          "type": "uint256"
        }
      ],
      "name": "ExternalValidatorRegistered",
      "type": "event"
    },
    {
      "anonymous": false,
      "inputs": [
        {
          "indexed": true,
          "internalType": "address",
          "name": "wallet",
          "type": "address"
        }
      ],
      "name": "InternalValidatorAdded",
      "type": "event"
    },
    {
      "anonymous": false,
      "inputs": [
        {
          "indexed": true,
          "internalType": "address",
          "name": "validatorAddress",
          "type": "address"
        },
        {
          "indexed": false,
          "internalType": "uint256",
          "name": "delegatedValue",
          "type": "uint256"
        }
      ],
      "name": "InternalValidatorDelegationIncreased",
      "type": "event"
    },
    {
      "anonymous": false,
      "inputs": [
        {
          "indexed": true,
          "internalType": "address",
          "name": "previousOwner",
          "type": "address"
        },
        {
          "indexed": true,
          "internalType": "address",
          "name": "newOwner",
          "type": "address"
        }
      ],
      "name": "OwnershipTransferred",
      "type": "event"
    },
    {
      "anonymous": false,
      "inputs": [
        {
          "indexed": false,
          "internalType": "address",
          "name": "account",
          "type": "address"
        }
      ],
      "name": "Paused",
      "type": "event"
    },
    {
      "anonymous": false,
      "inputs": [
        {
          "indexed": false,
          "internalType": "address",
          "name": "account",
          "type": "address"
        }
      ],
      "name": "Unpaused",
      "type": "event"
    },
    {
      "stateMutability": "payable",
      "type": "fallback"
    },
    {
      "inputs": [
        {
          "internalType": "address",
          "name": "newValidator",
          "type": "address"
        }
      ],
      "name": "addInternalValidator",
      "outputs": [],
      "stateMutability": "nonpayable",
      "type": "function"
    },
    {
      "inputs": [
        {
          "internalType": "address",
          "name": "",
          "type": "address"
        }
      ],
      "name": "externalValidatorOwners",
      "outputs": [
        {
          "internalType": "address",
          "name": "",
          "type": "address"
        }
      ],
      "stateMutability": "view",
      "type": "function"
    },
    {
      "inputs": [
        {
          "internalType": "uint256",
          "name": "",
          "type": "uint256"
        }
      ],
      "name": "externalValidators",
      "outputs": [
        {
          "internalType": "address",
          "name": "",
          "type": "address"
        }
      ],
      "stateMutability": "view",
      "type": "function"
    },
    {
      "inputs": [
        {
          "internalType": "address",
          "name": "validator",
          "type": "address"
        }
      ],
      "name": "getValidator",
      "outputs": [
        {
          "components": [
            {
              "internalType": "uint256",
              "name": "total_stake",
              "type": "uint256"
            },
            {
              "internalType": "uint256",
              "name": "commission_reward",
              "type": "uint256"
            },
            {
              "internalType": "uint16",
              "name": "commission",
              "type": "uint16"
            },
            {
              "internalType": "uint64",
              "name": "last_commission_change",
              "type": "uint64"
            },
            {
              "internalType": "address",
              "name": "owner",
              "type": "address"
            },
            {
              "internalType": "string",
              "name": "description",
              "type": "string"
            },
            {
              "internalType": "string",
              "name": "endpoint",
              "type": "string"
            }
          ],
          "internalType": "struct IDPOS.ValidatorBasicInfo",
          "name": "validatorData",
          "type": "tuple"
        }
      ],
      "stateMutability": "view",
      "type": "function"
    },
    {
      "inputs": [
        {
          "internalType": "uint32",
          "name": "batch",
          "type": "uint32"
        }
      ],
      "name": "getValidators",
      "outputs": [
        {
          "components": [
            {
              "internalType": "address",
              "name": "account",
              "type": "address"
            },
            {
              "components": [
                {
                  "internalType": "uint256",
                  "name": "total_stake",
                  "type": "uint256"
                },
                {
                  "internalType": "uint256",
                  "name": "commission_reward",
                  "type": "uint256"
                },
                {
                  "internalType": "uint16",
                  "name": "commission",
                  "type": "uint16"
                },
                {
                  "internalType": "uint64",
                  "name": "last_commission_change",
                  "type": "uint64"
                },
                {
                  "internalType": "address",
                  "name": "owner",
                  "type": "address"
                },
                {
                  "internalType": "string",
                  "name": "description",
                  "type": "string"
                },
                {
                  "internalType": "string",
                  "name": "endpoint",
                  "type": "string"
                }
              ],
              "internalType": "struct IDPOS.ValidatorBasicInfo",
              "name": "info",
              "type": "tuple"
            }
          ],
          "internalType": "struct IDPOS.ValidatorData[]",
          "name": "validators",
          "type": "tuple[]"
        },
        {
          "internalType": "bool",
          "name": "end",
          "type": "bool"
        }
      ],
      "stateMutability": "view",
      "type": "function"
    },
    {
      "inputs": [
        {
          "internalType": "address",
          "name": "owner",
          "type": "address"
        },
        {
          "internalType": "uint32",
          "name": "batch",
          "type": "uint32"
        }
      ],
      "name": "getValidatorsFor",
      "outputs": [
        {
          "components": [
            {
              "internalType": "uint256",
              "name": "total_stake",
              "type": "uint256"
            },
            {
              "internalType": "uint256",
              "name": "commission_reward",
              "type": "uint256"
            },
            {
              "internalType": "uint16",
              "name": "commission",
              "type": "uint16"
            },
            {
              "internalType": "uint64",
              "name": "last_commission_change",
              "type": "uint64"
            },
            {
              "internalType": "address",
              "name": "owner",
              "type": "address"
            },
            {
              "internalType": "string",
              "name": "description",
              "type": "string"
            },
            {
              "internalType": "string",
              "name": "endpoint",
              "type": "string"
            }
          ],
          "internalType": "struct IDPOS.ValidatorBasicInfo[]",
          "name": "validators",
          "type": "tuple[]"
        },
        {
          "internalType": "bool",
          "name": "end",
          "type": "bool"
        }
      ],
      "stateMutability": "view",
      "type": "function"
    },
    {
      "inputs": [
        {
          "internalType": "uint256",
          "name": "",
          "type": "uint256"
        }
      ],
      "name": "internalValidators",
      "outputs": [
        {
          "internalType": "address",
          "name": "",
          "type": "address"
        }
      ],
      "stateMutability": "view",
      "type": "function"
    },
    {
      "inputs": [],
      "name": "owner",
      "outputs": [
        {
          "internalType": "address",
          "name": "",
          "type": "address"
        }
      ],
      "stateMutability": "view",
      "type": "function"
    },
    {
      "inputs": [],
      "name": "paused",
      "outputs": [
        {
          "internalType": "bool",
          "name": "",
          "type": "bool"
        }
      ],
      "stateMutability": "view",
      "type": "function"
    },
    {
      "inputs": [
        {
          "internalType": "address",
          "name": "validator",
          "type": "address"
        },
        {
          "internalType": "bytes",
          "name": "proof",
          "type": "bytes"
        },
        {
          "internalType": "bytes",
          "name": "vrfKey",
          "type": "bytes"
        },
        {
          "internalType": "uint16",
          "name": "commission",
          "type": "uint16"
        },
        {
          "internalType": "string",
          "name": "description",
          "type": "string"
        },
        {
          "internalType": "string",
          "name": "endpoint",
          "type": "string"
        }
      ],
      "name": "registerValidator",
      "outputs": [],
      "stateMutability": "nonpayable",
      "type": "function"
    },
    {
      "inputs": [],
      "name": "renounceOwnership",
      "outputs": [],
      "stateMutability": "nonpayable",
      "type": "function"
    },
    {
      "inputs": [
        {
          "internalType": "address",
          "name": "newOwner",
          "type": "address"
        }
      ],
      "name": "transferOwnership",
      "outputs": [],
      "stateMutability": "nonpayable",
      "type": "function"
    },
    {
      "stateMutability": "payable",
      "type": "receive"
    }
  ],
  "bytecode": "0x60c06040526040516200215d3803806200215d8339810160408190526200002691620001ef565b806001600160a01b0381166200009a5760405162461bcd60e51b815260206004820152602f60248201527f5a65726f2061646472657373206e6f7420612076616c696420696d706c656d6560448201526e6e746174696f6e206164647265737360881b606482015260840160405180910390fd5b6001600160a01b0316608052620000b133620000eb565b6000805460ff60a01b19169055600180558151620000d79060029060208501906200013b565b506001600160a01b031660a05250620002d5565b600080546001600160a01b038381166001600160a01b0319831681178455604051919092169283917f8be0079c531659141344cd1fd0a4f28419497f9722a3daafe3b4186f6b6457e09190a35050565b82805482825590600052602060002090810192821562000193579160200282015b828111156200019357825182546001600160a01b0319166001600160a01b039091161782556020909201916001909101906200015c565b50620001a1929150620001a5565b5090565b5b80821115620001a15760008155600101620001a6565b634e487b7160e01b600052604160045260246000fd5b80516001600160a01b0381168114620001ea57600080fd5b919050565b600080604083850312156200020357600080fd5b82516001600160401b03808211156200021b57600080fd5b818501915085601f8301126200023057600080fd5b8151602082821115620002475762000247620001bc565b8160051b604051601f19603f830116810181811086821117156200026f576200026f620001bc565b6040529283528183019350848101820192898411156200028e57600080fd5b948201945b83861015620002b757620002a786620001d2565b8552948201949382019362000293565b9650620002c89050878201620001d2565b9450505050509250929050565b60805160a051611e3862000325600039600081816104ce015281816108e801528181610bf701528181610e840152818161119101528181611324015261141d015260006102e70152611e386000f3fe6080604052600436106100ca5760003560e01c8063715018a611610074578063c864e0941161004e578063c864e09414610280578063d6fdc127146102a0578063f2fde38b146102c0576100d9565b8063715018a61461021f578063724ac6b0146102345780638da5cb5b14610262576100d9565b806348a547ea116100a557806348a547ea146101765780635c975abb146101ae57806363907567146101e9576100d9565b806233f818146100f25780631904bb2e1461011257806319d8024f14610148576100d9565b366100d9576100d76102e0565b005b60003660606100e66102e0565b50915050805190602001f35b3480156100fe57600080fd5b506100d761010d366004611557565b61030f565b34801561011e57600080fd5b5061013261012d366004611557565b61043c565b60405161013f919061164b565b60405180910390f35b34801561015457600080fd5b50610168610163366004611672565b610589565b60405161013f92919061168d565b34801561018257600080fd5b50610196610191366004611714565b61059f565b6040516001600160a01b03909116815260200161013f565b3480156101ba57600080fd5b5060005474010000000000000000000000000000000000000000900460ff16604051901515815260200161013f565b3480156101f557600080fd5b50610196610204366004611557565b6005602052600090815260409020546001600160a01b031681565b34801561022b57600080fd5b506100d76105c9565b34801561024057600080fd5b5061025461024f36600461172d565b6105dd565b60405161013f929190611762565b34801561026e57600080fd5b506000546001600160a01b0316610196565b34801561028c57600080fd5b5061019661029b366004611714565b61061c565b3480156102ac57600080fd5b506100d76102bb36600461193c565b61062c565b3480156102cc57600080fd5b506100d76102db366004611557565b610d2d565b606061030b7f0000000000000000000000000000000000000000000000000000000000000000610dbd565b5090565b610317610de4565b60005b60025460ff821610156103b657816001600160a01b031660028260ff168154811061034757610347611a16565b6000918252602090912001546001600160a01b0316036103ae5760405162461bcd60e51b815260206004820152601c60248201527f56616c696461746f7220616c726561647920726567697374657265640000000060448201526064015b60405180910390fd5b60010161031a565b506002805460018101825560009182527f405787fa12a823e0f2b7631cc41b3ba8828b3321ca811111fa75cd3aa3bb5ace01805473ffffffffffffffffffffffffffffffffffffffff19166001600160a01b03841690811790915560405190917fbfa2ccf2939ec146aeb2a2699464bf7421a2a23e55cd1268018647a9dfa9b81391a250565b6104936040518060e001604052806000815260200160008152602001600061ffff168152602001600067ffffffffffffffff16815260200160006001600160a01b0316815260200160608152602001606081525090565b6040517f1904bb2e0000000000000000000000000000000000000000000000000000000081526001600160a01b0383811660048301526000917f000000000000000000000000000000000000000000000000000000000000000090911690631904bb2e90602401600060405180830381865afa158015610517573d6000803e3d6000fd5b505050506040513d6000823e601f3d908101601f1916820160405261053f9190810190611b5d565b6001600160a01b038481166000908152600560205260409020549192501615610583576001600160a01b038084166000908152600560205260409020541660808201525b92915050565b6060600061059683610e3e565b91509150915091565b600281815481106105af57600080fd5b6000918252602090912001546001600160a01b0316905081565b6105d1610de4565b6105db6000611003565b565b60606000806105f2858563ffffffff16611060565b6001600160a01b0386166000908152600460205260409020548151919450149150505b9250929050565b600381815481106105af57600080fd5b6106346112aa565b60005b60025460ff821610156106ce57886001600160a01b031660028260ff168154811061066457610664611a16565b6000918252602090912001546001600160a01b0316036106c65760405162461bcd60e51b815260206004820152601c60248201527f56616c696461746f7220616c726561647920726567697374657265640000000060448201526064016103a5565b600101610637565b5060005b60035460ff8216101561076957886001600160a01b031660038260ff16815481106106ff576106ff611a16565b6000918252602090912001546001600160a01b0316036107615760405162461bcd60e51b815260206004820152601c60248201527f56616c696461746f7220616c726561647920726567697374657265640000000060448201526064016103a5565b6001016106d2565b506969e10de76676d08000004710156107ea5760405162461bcd60e51b815260206004820152603460248201527f496e73756666696369656e742066756e647320696e20636f6e7472616374206660448201527f6f7220746573746e657420726562616c616e636500000000000000000000000060648201526084016103a5565b6000806107f5611303565b90925090508115158061080757508015155b6108795760405162461bcd60e51b815260206004820152602260248201527f43616c63756c6174696e672063757272656e74207374616b6573206661696c6560448201527f642100000000000000000000000000000000000000000000000000000000000060648201526084016103a5565b60006969e10de76676d0800000610891836002611ba8565b61089b9190611bbf565b905080831015610a96576002546000906108c8683635c9adc5dea000006969e10de76676d0800000611bbf565b6108d29190611bd2565b905060005b60025460ff82161015610a935760007f00000000000000000000000000000000000000000000000000000000000000006001600160a01b03168360028460ff168154811061092757610927611a16565b6000918252602090912001546040516001600160a01b03909116602482015260440160408051601f198184030181529181526020820180516001600160e01b03167f5c19a95c00000000000000000000000000000000000000000000000000000000179052516109979190611bf4565b60006040518083038185875af1925050503d80600081146109d4576040519150601f19603f3d011682016040523d82523d6000602084013e6109d9565b606091505b5050905080610a2a5760405162461bcd60e51b815260206004820152601460248201527f44656c65676174652063616c6c206661696c656400000000000000000000000060448201526064016103a5565b60028260ff1681548110610a4057610a40611a16565b600091825260209182902001546040518581526001600160a01b03909116917fdb81da2c3076a89e932e0ed0c55b123f6cbb46dd9611c38e1a5e0ef755f71028910160405180910390a2506001016108d7565b50505b60046000336001600160a01b03166001600160a01b031681526020019081526020016000208b9080600181540180825580915050600190039060005260206000200160009091909190916101000a8154816001600160a01b0302191690836001600160a01b0316021790555060038b9080600181540180825580915050600190039060005260206000200160009091909190916101000a8154816001600160a01b0302191690836001600160a01b0316021790555033600560008d6001600160a01b03166001600160a01b0316815260200190815260200160002060006101000a8154816001600160a01b0302191690836001600160a01b03160217905550600063d6fdc12760e01b8c8c8c8c8c8c8c8c604051602401610bbe989796959493929190611c39565b604051602081830303815290604052906001600160e01b0319166020820180516001600160e01b038381831617835250505050905060007f00000000000000000000000000000000000000000000000000000000000000006001600160a01b03166969e10de76676d080000083604051610c389190611bf4565b60006040518083038185875af1925050503d8060008114610c75576040519150601f19603f3d011682016040523d82523d6000602084013e610c7a565b606091505b5050905080610ccb5760405162461bcd60e51b815260206004820152601e60248201527f52656769737465722076616c696461746f722063616c6c206661696c6564000060448201526064016103a5565b6040516969e10de76676d0800000815233906001600160a01b038f16907fb18da5935e7c07b652bb6ac6c3f79317231b1cc912de1524266eb17e7287baa59060200160405180910390a35050505050610d2360018055565b5050505050505050565b610d35610de4565b6001600160a01b038116610db15760405162461bcd60e51b815260206004820152602660248201527f4f776e61626c653a206e6577206f776e657220697320746865207a65726f206160448201527f646472657373000000000000000000000000000000000000000000000000000060648201526084016103a5565b610dba81611003565b50565b6060366000803760008036600034865af13d6000803e808015610ddf573d6000f35b3d6000fd5b6000546001600160a01b031633146105db5760405162461bcd60e51b815260206004820181905260248201527f4f776e61626c653a2063616c6c6572206973206e6f7420746865206f776e657260448201526064016103a5565b6040517f19d8024f00000000000000000000000000000000000000000000000000000000815263ffffffff82166004820152606090600090829082906001600160a01b037f000000000000000000000000000000000000000000000000000000000000000016906319d8024f90602401600060405180830381865afa158015610ecb573d6000803e3d6000fd5b505050506040513d6000823e601f3d908101601f19168201604052610ef39190810190611cc0565b909250905060005b82518160ff161015610ff85760006001600160a01b031660056000858460ff1681518110610f2b57610f2b611a16565b602090810291909101810151516001600160a01b03908116835290820192909252604001600020541614610ff05760056000848360ff1681518110610f7257610f72611a16565b6020026020010151600001516001600160a01b03166001600160a01b0316815260200190815260200160002060009054906101000a90046001600160a01b0316838260ff1681518110610fc757610fc7611a16565b602002602001015160200151608001906001600160a01b031690816001600160a01b0316815250505b600101610efb565b509094909350915050565b600080546001600160a01b0383811673ffffffffffffffffffffffffffffffffffffffff19831681178455604051919092169283917f8be0079c531659141344cd1fd0a4f28419497f9722a3daafe3b4186f6b6457e09190a35050565b6001600160a01b03821660009081526004602090815260408083208054825181850281018501909352808352606094938301828280156110c957602002820191906000526020600020905b81546001600160a01b031681526001909101906020018083116110ab575b505050505090506000815167ffffffffffffffff8111156110ec576110ec6117ce565b60405190808252806020026020018201604052801561117457816020015b6111616040518060e001604052806000815260200160008152602001600061ffff168152602001600067ffffffffffffffff16815260200160006001600160a01b0316815260200160608152602001606081525090565b81526020019060019003908161110a5790505b50905060005b82518167ffffffffffffffff1610156112a15760007f00000000000000000000000000000000000000000000000000000000000000006001600160a01b0316631904bb2e858467ffffffffffffffff16815181106111da576111da611a16565b60200260200101516040518263ffffffff1660e01b815260040161120d91906001600160a01b0391909116815260200190565b600060405180830381865afa15801561122a573d6000803e3d6000fd5b505050506040513d6000823e601f3d908101601f191682016040526112529190810190611b5d565b6001600160a01b038816608082015283519091508190849067ffffffffffffffff851690811061128457611284611a16565b6020026020010181905250508061129a90611ddb565b905061117a565b50949350505050565b6002600154036112fc5760405162461bcd60e51b815260206004820152601f60248201527f5265656e7472616e637947756172643a207265656e7472616e742063616c6c0060448201526064016103a5565b6002600155565b60008060018180805b8315610ff85760025461ffff8216101561140b5760007f00000000000000000000000000000000000000000000000000000000000000006001600160a01b0316631904bb2e60028461ffff168154811061136857611368611a16565b60009182526020909120015460405160e083901b7fffffffff000000000000000000000000000000000000000000000000000000001681526001600160a01b039091166004820152602401600060405180830381865afa1580156113d0573d6000803e3d6000fd5b505050506040513d6000823e601f3d908101601f191682016040526113f89190810190611b5d565b80519091506114079085611bbf565b9350505b60035461ffff821610156115045760007f00000000000000000000000000000000000000000000000000000000000000006001600160a01b0316631904bb2e60038461ffff168154811061146157611461611a16565b60009182526020909120015460405160e083901b7fffffffff000000000000000000000000000000000000000000000000000000001681526001600160a01b039091166004820152602401600060405180830381865afa1580156114c9573d6000803e3d6000fd5b505050506040513d6000823e601f3d908101601f191682016040526114f19190810190611b5d565b80519091506115009084611bbf565b9250505b60025461ffff821610801590611520575060035461ffff821610155b1561152a57600093505b60010161130c565b6001600160a01b0381168114610dba57600080fd5b803561155281611532565b919050565b60006020828403121561156957600080fd5b813561157481611532565b9392505050565b60005b8381101561159657818101518382015260200161157e565b50506000910152565b600081518084526115b781602086016020860161157b565b601f01601f19169290920160200192915050565b805182526020810151602083015261ffff604082015116604083015267ffffffffffffffff60608201511660608301526001600160a01b036080820151166080830152600060a082015160e060a085015261162960e085018261159f565b905060c083015184820360c0860152611642828261159f565b95945050505050565b60208152600061157460208301846115cb565b803563ffffffff8116811461155257600080fd5b60006020828403121561168457600080fd5b6115748261165e565b6000604080830181845280865180835260608601915060608160051b8701019250602080890160005b838110156116fe57888603605f19018552815180516001600160a01b031687528301518387018890526116eb888801826115cb565b96505093820193908201906001016116b6565b5050961515959096019490945295945050505050565b60006020828403121561172657600080fd5b5035919050565b6000806040838503121561174057600080fd5b823561174b81611532565b91506117596020840161165e565b90509250929050565b6000604082016040835280855180835260608501915060608160051b8601019250602080880160005b838110156117b957605f198887030185526117a78683516115cb565b9550938201939082019060010161178b565b50509515159490950193909352949350505050565b634e487b7160e01b600052604160045260246000fd5b60405160e0810167ffffffffffffffff81118282101715611807576118076117ce565b60405290565b6040805190810167ffffffffffffffff81118282101715611807576118076117ce565b604051601f8201601f1916810167ffffffffffffffff81118282101715611859576118596117ce565b604052919050565b600067ffffffffffffffff82111561187b5761187b6117ce565b50601f01601f191660200190565b600082601f83011261189a57600080fd5b81356118ad6118a882611861565b611830565b8181528460208386010111156118c257600080fd5b816020850160208301376000918101602001919091529392505050565b61ffff81168114610dba57600080fd5b8035611552816118df565b60008083601f84011261190c57600080fd5b50813567ffffffffffffffff81111561192457600080fd5b60208301915083602082850101111561061557600080fd5b60008060008060008060008060c0898b03121561195857600080fd5b61196189611547565b9750602089013567ffffffffffffffff8082111561197e57600080fd5b61198a8c838d01611889565b985060408b01359150808211156119a057600080fd5b6119ac8c838d01611889565b97506119ba60608c016118ef565b965060808b01359150808211156119d057600080fd5b6119dc8c838d016118fa565b909650945060a08b01359150808211156119f557600080fd5b50611a028b828c016118fa565b999c989b5096995094979396929594505050565b634e487b7160e01b600052603260045260246000fd5b8051611552816118df565b805167ffffffffffffffff8116811461155257600080fd5b805161155281611532565b600082601f830112611a6b57600080fd5b8151611a796118a882611861565b818152846020838601011115611a8e57600080fd5b611a9f82602083016020870161157b565b949350505050565b600060e08284031215611ab957600080fd5b611ac16117e4565b90508151815260208201516020820152611add60408301611a2c565b6040820152611aee60608301611a37565b6060820152611aff60808301611a4f565b608082015260a082015167ffffffffffffffff80821115611b1f57600080fd5b611b2b85838601611a5a565b60a084015260c0840151915080821115611b4457600080fd5b50611b5184828501611a5a565b60c08301525092915050565b600060208284031215611b6f57600080fd5b815167ffffffffffffffff811115611b8657600080fd5b611a9f84828501611aa7565b634e487b7160e01b600052601160045260246000fd5b808202811582820484141761058357610583611b92565b8082018082111561058357610583611b92565b600082611bef57634e487b7160e01b600052601260045260246000fd5b500490565b60008251611c0681846020870161157b565b9190910192915050565b81835281816020850137506000828201602090810191909152601f909101601f19169091010190565b6001600160a01b038916815260c060208201526000611c5b60c083018a61159f565b8281036040840152611c6d818a61159f565b905061ffff881660608401528281036080840152611c8c818789611c10565b905082810360a0840152611ca1818587611c10565b9b9a5050505050505050505050565b8051801515811461155257600080fd5b6000806040808486031215611cd457600080fd5b835167ffffffffffffffff80821115611cec57600080fd5b818601915086601f830112611d0057600080fd5b8151602082821115611d1457611d146117ce565b8160051b611d23828201611830565b928352848101820192828101908b851115611d3d57600080fd5b83870192505b84831015611dbd57825186811115611d5b5760008081fd5b8701808d03601f1901891315611d715760008081fd5b611d7961180d565b85820151611d8681611532565b8152818a015188811115611d9a5760008081fd5b611da88f8883860101611aa7565b82880152508352509183019190830190611d43565b9850611dcd915050888201611cb0565b955050505050509250929050565b600067ffffffffffffffff808316818103611df857611df8611b92565b600101939250505056fea2646970667358221220d8e661f93b05dc2d7405bd40faa77faf454456803a29f56f018e1f098170aeb464736f6c63430008120033",
  "linkReferences": {},
  "deployedLinkReferences": {}
}