{
  "_format": "hh-sol-artifact-1",
  "contractName": "DelegationOrchestrator",
  "sourceName": "contracts/DelegationOrchestrator.sol",
  "abi": [
    {
      "inputs": [
        {
          "internalType": "address[]",
          "name": "validators",
          "type": "address[]"
        },
        {
          "internalType": "address",
          "name": "dposAddress",
          "type": "address"
        }
      ],
      "stateMutability": "payable",
      "type": "constructor"
    },
    {
      "anonymous": false,
      "inputs": [
        {
          "indexed": true,
          "internalType": "address",
          "name": "wallet",
          "type": "address"
        },
        {
          "indexed": true,
          "internalType": "address",
          "name": "delegator",
          "type": "address"
        },
        {
          "indexed": false,
          "internalType": "uint256",
          "name": "tokens",
          "type": "uint256"
        }
      ],
      "name": "ExternalValidatorRegistered",
      "type": "event"
    },
    {
      "anonymous": false,
      "inputs": [
        {
          "indexed": true,
          "internalType": "address",
          "name": "wallet",
          "type": "address"
        }
      ],
      "name": "InternalValidatorAdded",
      "type": "event"
    },
    {
      "anonymous": false,
      "inputs": [
        {
          "indexed": true,
          "internalType": "address",
          "name": "validatorAddress",
          "type": "address"
        },
        {
          "indexed": false,
          "internalType": "uint256",
          "name": "delegatedValue",
          "type": "uint256"
        }
      ],
      "name": "InternalValidatorDelegationIncreased",
      "type": "event"
    },
    {
      "anonymous": false,
      "inputs": [
        {
          "indexed": true,
          "internalType": "address",
          "name": "previousOwner",
          "type": "address"
        },
        {
          "indexed": true,
          "internalType": "address",
          "name": "newOwner",
          "type": "address"
        }
      ],
      "name": "OwnershipTransferred",
      "type": "event"
    },
    {
      "anonymous": false,
      "inputs": [
        {
          "indexed": false,
          "internalType": "address",
          "name": "account",
          "type": "address"
        }
      ],
      "name": "Paused",
      "type": "event"
    },
    {
      "anonymous": false,
      "inputs": [
        {
          "indexed": false,
          "internalType": "address",
          "name": "account",
          "type": "address"
        }
      ],
      "name": "Unpaused",
      "type": "event"
    },
    {
      "stateMutability": "payable",
      "type": "fallback"
    },
    {
      "inputs": [
        {
          "internalType": "address",
          "name": "newValidator",
          "type": "address"
        }
      ],
      "name": "addInternalValidator",
      "outputs": [],
      "stateMutability": "nonpayable",
      "type": "function"
    },
    {
      "inputs": [
        {
          "internalType": "address",
          "name": "",
          "type": "address"
        }
      ],
      "name": "externalValidatorRegistered",
      "outputs": [
        {
          "internalType": "uint256",
          "name": "",
          "type": "uint256"
        }
      ],
      "stateMutability": "view",
      "type": "function"
    },
    {
      "inputs": [
        {
          "internalType": "uint256",
          "name": "",
          "type": "uint256"
        }
      ],
      "name": "externalValidators",
      "outputs": [
        {
          "internalType": "address",
          "name": "",
          "type": "address"
        }
      ],
      "stateMutability": "view",
      "type": "function"
    },
    {
      "inputs": [
        {
          "internalType": "address",
          "name": "validator",
          "type": "address"
        }
      ],
      "name": "getValidator",
      "outputs": [
        {
          "components": [
            {
              "internalType": "uint256",
              "name": "total_stake",
              "type": "uint256"
            },
            {
              "internalType": "uint256",
              "name": "commission_reward",
              "type": "uint256"
            },
            {
              "internalType": "uint16",
              "name": "commission",
              "type": "uint16"
            },
            {
              "internalType": "uint64",
              "name": "last_commission_change",
              "type": "uint64"
            },
            {
              "internalType": "address",
              "name": "owner",
              "type": "address"
            },
            {
              "internalType": "string",
              "name": "description",
              "type": "string"
            },
            {
              "internalType": "string",
              "name": "endpoint",
              "type": "string"
            }
          ],
          "internalType": "struct IDPOS.ValidatorBasicInfo",
          "name": "validatorData",
          "type": "tuple"
        }
      ],
      "stateMutability": "view",
      "type": "function"
    },
    {
      "inputs": [
        {
          "internalType": "uint32",
          "name": "batch",
          "type": "uint32"
        }
      ],
      "name": "getValidators",
      "outputs": [
        {
          "components": [
            {
              "internalType": "address",
              "name": "account",
              "type": "address"
            },
            {
              "components": [
                {
                  "internalType": "uint256",
                  "name": "total_stake",
                  "type": "uint256"
                },
                {
                  "internalType": "uint256",
                  "name": "commission_reward",
                  "type": "uint256"
                },
                {
                  "internalType": "uint16",
                  "name": "commission",
                  "type": "uint16"
                },
                {
                  "internalType": "uint64",
                  "name": "last_commission_change",
                  "type": "uint64"
                },
                {
                  "internalType": "address",
                  "name": "owner",
                  "type": "address"
                },
                {
                  "internalType": "string",
                  "name": "description",
                  "type": "string"
                },
                {
                  "internalType": "string",
                  "name": "endpoint",
                  "type": "string"
                }
              ],
              "internalType": "struct IDPOS.ValidatorBasicInfo",
              "name": "info",
              "type": "tuple"
            }
          ],
          "internalType": "struct IDPOS.ValidatorData[]",
          "name": "validators",
          "type": "tuple[]"
        },
        {
          "internalType": "bool",
          "name": "end",
          "type": "bool"
        }
      ],
      "stateMutability": "view",
      "type": "function"
    },
    {
      "inputs": [
        {
          "internalType": "address",
          "name": "owner",
          "type": "address"
        },
        {
          "internalType": "uint32",
          "name": "batch",
          "type": "uint32"
        }
      ],
      "name": "getValidatorsFor",
      "outputs": [
        {
          "components": [
            {
              "internalType": "address",
              "name": "account",
              "type": "address"
            },
            {
              "components": [
                {
                  "internalType": "uint256",
                  "name": "total_stake",
                  "type": "uint256"
                },
                {
                  "internalType": "uint256",
                  "name": "commission_reward",
                  "type": "uint256"
                },
                {
                  "internalType": "uint16",
                  "name": "commission",
                  "type": "uint16"
                },
                {
                  "internalType": "uint64",
                  "name": "last_commission_change",
                  "type": "uint64"
                },
                {
                  "internalType": "address",
                  "name": "owner",
                  "type": "address"
                },
                {
                  "internalType": "string",
                  "name": "description",
                  "type": "string"
                },
                {
                  "internalType": "string",
                  "name": "endpoint",
                  "type": "string"
                }
              ],
              "internalType": "struct IDPOS.ValidatorBasicInfo",
              "name": "info",
              "type": "tuple"
            }
          ],
          "internalType": "struct IDPOS.ValidatorData[]",
          "name": "validators",
          "type": "tuple[]"
        },
        {
          "internalType": "bool",
          "name": "end",
          "type": "bool"
        }
      ],
      "stateMutability": "view",
      "type": "function"
    },
    {
      "inputs": [
        {
          "internalType": "address",
          "name": "",
          "type": "address"
        }
      ],
      "name": "internalValidatorRegistered",
      "outputs": [
        {
          "internalType": "uint256",
          "name": "",
          "type": "uint256"
        }
      ],
      "stateMutability": "view",
      "type": "function"
    },
    {
      "inputs": [
        {
          "internalType": "uint256",
          "name": "",
          "type": "uint256"
        }
      ],
      "name": "internalValidators",
      "outputs": [
        {
          "internalType": "address",
          "name": "",
          "type": "address"
        }
      ],
      "stateMutability": "view",
      "type": "function"
    },
    {
      "inputs": [],
      "name": "owner",
      "outputs": [
        {
          "internalType": "address",
          "name": "",
          "type": "address"
        }
      ],
      "stateMutability": "view",
      "type": "function"
    },
    {
      "inputs": [],
      "name": "paused",
      "outputs": [
        {
          "internalType": "bool",
          "name": "",
          "type": "bool"
        }
      ],
      "stateMutability": "view",
      "type": "function"
    },
    {
      "inputs": [
        {
          "internalType": "address",
          "name": "validator",
          "type": "address"
        },
        {
          "internalType": "bytes",
          "name": "proof",
          "type": "bytes"
        },
        {
          "internalType": "bytes",
          "name": "vrfKey",
          "type": "bytes"
        },
        {
          "internalType": "uint16",
          "name": "commission",
          "type": "uint16"
        },
        {
          "internalType": "string",
          "name": "description",
          "type": "string"
        },
        {
          "internalType": "string",
          "name": "endpoint",
          "type": "string"
        }
      ],
      "name": "registerValidator",
      "outputs": [],
      "stateMutability": "payable",
      "type": "function"
    },
    {
      "inputs": [],
      "name": "renounceOwnership",
      "outputs": [],
      "stateMutability": "nonpayable",
      "type": "function"
    },
    {
      "inputs": [
        {
          "internalType": "address",
          "name": "newOwner",
          "type": "address"
        }
      ],
      "name": "transferOwnership",
      "outputs": [],
      "stateMutability": "nonpayable",
      "type": "function"
    },
    {
      "stateMutability": "payable",
      "type": "receive"
    }
  ],
  "bytecode": "0x60c060405260405162004640380380620046408339818101604052810190620000299190620006b6565b8062000046670556de82e6c1e9d260c01b6200034860201b60201c565b620000626774a3f9558c9cd31560c01b6200034860201b60201c565b6200007e67ad70606541c4eecc60c01b6200034860201b60201c565b6200009a67d27d05cd0ad3ce3860c01b6200034860201b60201c565b600073ffffffffffffffffffffffffffffffffffffffff168173ffffffffffffffffffffffffffffffffffffffff16036200010c576040517f08c379a00000000000000000000000000000000000000000000000000000000081526004016200010390620007a3565b60405180910390fd5b620001286768e96572193c5ef960c01b6200034860201b60201c565b62000144678f6c514fc7e6443360c01b6200034860201b60201c565b8073ffffffffffffffffffffffffffffffffffffffff1660808173ffffffffffffffffffffffffffffffffffffffff168152505050620001996200018d6200034b60201b60201c565b6200035360201b60201c565b60008060146101000a81548160ff02191690831515021790555060018081905550620001d6672d5adbb70e1d9ab160c01b6200041760201b60201c565b620001f267f94f61f2985820c860c01b6200041760201b60201c565b81600290805190602001906200020a9291906200041a565b506200022767053f93714081c3cb60c01b6200041760201b60201c565b8073ffffffffffffffffffffffffffffffffffffffff1660a08173ffffffffffffffffffffffffffffffffffffffff168152505062000277671d5df3604c02288b60c01b6200041760201b60201c565b6200029367d088fcfe0015ea2960c01b6200041760201b60201c565b60005b82518110156200033f57620002bc67170b9da8e410e90660c01b6200041760201b60201c565b600181620002cb9190620007fe565b60066000858481518110620002e557620002e462000839565b5b602002602001015173ffffffffffffffffffffffffffffffffffffffff1673ffffffffffffffffffffffffffffffffffffffff1681526020019081526020016000208190555080620003379062000868565b905062000296565b505050620008b5565b50565b600033905090565b60008060009054906101000a900473ffffffffffffffffffffffffffffffffffffffff169050816000806101000a81548173ffffffffffffffffffffffffffffffffffffffff021916908373ffffffffffffffffffffffffffffffffffffffff1602179055508173ffffffffffffffffffffffffffffffffffffffff168173ffffffffffffffffffffffffffffffffffffffff167f8be0079c531659141344cd1fd0a4f28419497f9722a3daafe3b4186f6b6457e060405160405180910390a35050565b50565b82805482825590600052602060002090810192821562000496579160200282015b82811115620004955782518260006101000a81548173ffffffffffffffffffffffffffffffffffffffff021916908373ffffffffffffffffffffffffffffffffffffffff160217905550916020019190600101906200043b565b5b509050620004a59190620004a9565b5090565b5b80821115620004c4576000816000905550600101620004aa565b5090565b6000604051905090565b600080fd5b600080fd5b600080fd5b6000601f19601f8301169050919050565b7f4e487b7100000000000000000000000000000000000000000000000000000000600052604160045260246000fd5b6200052c82620004e1565b810181811067ffffffffffffffff821117156200054e576200054d620004f2565b5b80604052505050565b600062000563620004c8565b905062000571828262000521565b919050565b600067ffffffffffffffff821115620005945762000593620004f2565b5b602082029050602081019050919050565b600080fd5b600073ffffffffffffffffffffffffffffffffffffffff82169050919050565b6000620005d782620005aa565b9050919050565b620005e981620005ca565b8114620005f557600080fd5b50565b6000815190506200060981620005de565b92915050565b600062000626620006208462000576565b62000557565b905080838252602082019050602084028301858111156200064c576200064b620005a5565b5b835b81811015620006795780620006648882620005f8565b8452602084019350506020810190506200064e565b5050509392505050565b600082601f8301126200069b576200069a620004dc565b5b8151620006ad8482602086016200060f565b91505092915050565b60008060408385031215620006d057620006cf620004d2565b5b600083015167ffffffffffffffff811115620006f157620006f0620004d7565b5b620006ff8582860162000683565b92505060206200071285828601620005f8565b9150509250929050565b600082825260208201905092915050565b7f5a65726f2061646472657373206e6f7420612076616c696420696d706c656d6560008201527f6e746174696f6e20616464726573730000000000000000000000000000000000602082015250565b60006200078b602f836200071c565b915062000798826200072d565b604082019050919050565b60006020820190508181036000830152620007be816200077c565b9050919050565b6000819050919050565b7f4e487b7100000000000000000000000000000000000000000000000000000000600052601160045260246000fd5b60006200080b82620007c5565b91506200081883620007c5565b9250828201905080821115620008335762000832620007cf565b5b92915050565b7f4e487b7100000000000000000000000000000000000000000000000000000000600052603260045260246000fd5b60006200087582620007c5565b91507fffffffffffffffffffffffffffffffffffffffffffffffffffffffffffffffff8203620008aa57620008a9620007cf565b5b600182019050919050565b60805160a051613d42620008fe6000396000818161070e0152818161142f01528181611a3a01528181611e620152818161241c01526125b701526000611cea0152613d426000f3fe6080604052600436106100d55760003560e01c8063715018a61161007f578063c864e09411610059578063c864e09414610316578063d6fdc12714610353578063e6a5d3ac1461036f578063f2fde38b146103ac576100f8565b8063715018a614610296578063724ac6b0146102ad5780638da5cb5b146102eb576100f8565b806348a547ea116100b057806348a547ea146101f15780635c975abb1461022e578063661db64714610259576100f8565b806233f8181461014d5780631904bb2e1461017657806319d8024f146101b3576100f8565b366100f8576100ee67406b4673c564fa8860c01b6103d5565b6100f66103d8565b005b60003660606101116768d36b9f4e84ca9f60c01b6103d5565b610125671f3a2122183290d360c01b6103d5565b610139672c4422dbb56802b560c01b6103d5565b6101416103d8565b50915050805190602001f35b34801561015957600080fd5b50610174600480360381019061016f91906128fc565b61045a565b005b34801561018257600080fd5b5061019d600480360381019061019891906128fc565b6106c6565b6040516101aa9190612ac4565b60405180910390f35b3480156101bf57600080fd5b506101da60048036038101906101d59190612b22565b610972565b6040516101e8929190612d0c565b60405180910390f35b3480156101fd57600080fd5b5061021860048036038101906102139190612d68565b6109c4565b6040516102259190612da4565b60405180910390f35b34801561023a57600080fd5b50610243610a03565b6040516102509190612dbf565b60405180910390f35b34801561026557600080fd5b50610280600480360381019061027b91906128fc565b610a19565b60405161028d9190612de9565b60405180910390f35b3480156102a257600080fd5b506102ab610a31565b005b3480156102b957600080fd5b506102d460048036038101906102cf9190612e04565b610a45565b6040516102e2929190612d0c565b60405180910390f35b3480156102f757600080fd5b50610300610e8b565b60405161030d9190612da4565b60405180910390f35b34801561032257600080fd5b5061033d60048036038101906103389190612d68565b610eb4565b60405161034a9190612da4565b60405180910390f35b61036d60048036038101906103689190613005565b610ef3565b005b34801561037b57600080fd5b50610396600480360381019061039191906128fc565b611bf9565b6040516103a39190612de9565b60405180910390f35b3480156103b857600080fd5b506103d360048036038101906103ce91906128fc565b611c11565b005b50565b60606103ee67cc27a697edefb66860c01b6103d5565b61040267a536ca1134a3d47260c01b6103d5565b61041667f70a1f8874e818c860c01b6103d5565b61041e611c94565b61043267ea20a3757ed1d99260c01b6103d5565b6104466705ca8543fde8e66160c01b6103d5565b610456610451611caa565b611d0e565b5090565b61046e67fe15d380a1c5e6d460c01b611d5f565b610476611d62565b61048a677837ae9633cf28f360c01b611d5f565b61049e67b09c57ed4541d51160c01b611d5f565b6104b267b1a92808f1b8d47a60c01b611d5f565b6104c667886741977d44722460c01b611d5f565b6104da67d976dd7e47ff021e60c01b611d5f565b6000600660008373ffffffffffffffffffffffffffffffffffffffff1673ffffffffffffffffffffffffffffffffffffffff168152602001908152602001600020541461055c576040517f08c379a000000000000000000000000000000000000000000000000000000000815260040161055390613169565b60405180910390fd5b61057067a21219ef6d3c96e260c01b611d5f565b6105846724788f9541fb871e60c01b611d5f565b61059867b4159aea845b59ae60c01b611d5f565b6002819080600181540180825580915050600190039060005260206000200160009091909190916101000a81548173ffffffffffffffffffffffffffffffffffffffff021916908373ffffffffffffffffffffffffffffffffffffffff16021790555061060f673135c01a0371e15d60c01b611d5f565b600280549050600660008373ffffffffffffffffffffffffffffffffffffffff1673ffffffffffffffffffffffffffffffffffffffff1681526020019081526020016000208190555061066c67430fbb727c93201d60c01b611d5f565b6106806783a9e60a9a5f7c2460c01b611d5f565b8073ffffffffffffffffffffffffffffffffffffffff167fbfa2ccf2939ec146aeb2a2699464bf7421a2a23e55cd1268018647a9dfa9b81360405160405180910390a250565b6106ce6127f3565b6106e26759964d46da748fb360c01b611d5f565b6106f667eccd8f7324bb7cad60c01b611d5f565b61070a67b11df4d70082d6b460c01b611d5f565b60007f000000000000000000000000000000000000000000000000000000000000000073ffffffffffffffffffffffffffffffffffffffff16631904bb2e846040518263ffffffff1660e01b81526004016107659190612da4565b600060405180830381865afa158015610782573d6000803e3d6000fd5b505050506040513d6000823e3d601f19601f820116820180604052508101906107ab919061338b565b90506107c1675b153c9e4116689060c01b611d5f565b6107d567c38c02d50c24e46160c01b611d5f565b600073ffffffffffffffffffffffffffffffffffffffff16600460008573ffffffffffffffffffffffffffffffffffffffff1673ffffffffffffffffffffffffffffffffffffffff16815260200190815260200160002060009054906101000a900473ffffffffffffffffffffffffffffffffffffffff1673ffffffffffffffffffffffffffffffffffffffff161461092c5761087c6717434f09a6f8acee60c01b611d5f565b61089067fe06bb6d7c56c4fb60c01b611d5f565b600460008473ffffffffffffffffffffffffffffffffffffffff1673ffffffffffffffffffffffffffffffffffffffff16815260200190815260200160002060009054906101000a900473ffffffffffffffffffffffffffffffffffffffff16816080019073ffffffffffffffffffffffffffffffffffffffff16908173ffffffffffffffffffffffffffffffffffffffff1681525050610941565b610940671d5aacf8e379bff760c01b611d5f565b5b610955671bdfd42c64e273dd60c01b611d5f565b61096967a8645b9ab109d86e60c01b611d5f565b80915050919050565b6060600061098a6770a36f689d785c6560c01b611d5f565b61099e671204a72662cab36a60c01b611d5f565b6109b26728459d74a0203ab160c01b611d5f565b6109bb83611de0565b91509150915091565b600281815481106109d457600080fd5b906000526020600020016000915054906101000a900473ffffffffffffffffffffffffffffffffffffffff1681565b60008060149054906101000a900460ff16905090565b60076020528060005260406000206000915090505481565b610a39611d62565b610a43600061219e565b565b60606000610a5d673b2ff0bed7acfc5460c01b611d5f565b610a71672fec7286f567972660c01b611d5f565b610a85672b6f09713dfe288f60c01b611d5f565b6060610a9b67623ebafdf29afafb60c01b611d5f565b610aaf67770043839eb45aff60c01b611d5f565b6000610ac567b82d7e36b447def760c01b611d5f565b610ace85611de0565b8092508193505050610aea672cdf35058991801060c01b611d5f565b610afe67f479d4e8af328c1a60c01b611d5f565b6000610b14670fdfd766695b30f560c01b611d5f565b610b286729899cd2b8a5bae260c01b611d5f565b6000600167ffffffffffffffff811115610b4557610b44612e4e565b5b604051908082528060200260200182016040528015610b7e57816020015b610b6b612854565b815260200190600190039081610b635790505b509050610b9567499a5eda29774df360c01b611d5f565b610ba967691738189a0471a760c01b611d5f565b60005b84518161ffff161015610e5157610bcd671b72fad28fd1ad2e60c01b611d5f565b610be167aa824ba75aae022460c01b611d5f565b8873ffffffffffffffffffffffffffffffffffffffff16858261ffff1681518110610c0f57610c0e6133d4565b5b6020026020010151602001516080015173ffffffffffffffffffffffffffffffffffffffff1603610e0957610c4e67a200cf98495f513460c01b611d5f565b610c626722e0d154f2bfa90e60c01b611d5f565b82610c6c90613432565b9250610c82676c695b18a7fba74a60c01b611d5f565b610c96673df3f1cb0054d29b60c01b611d5f565b60008361ffff1667ffffffffffffffff811115610cb657610cb5612e4e565b5b604051908082528060200260200182016040528015610cef57816020015b610cdc612854565b815260200190600190039081610cd45790505b509050610d06677c27e03c80d4e1bc60c01b611d5f565b610d1a67d610fe4241ee4b8f60c01b611d5f565b60005b83518361ffff161015610d8a57610d3e67c47f1dbfc0f9ed4a60c01b611d5f565b838181518110610d5157610d506133d4565b5b6020026020010151828281518110610d6c57610d6b6133d4565b5b60200260200101819052508080610d829061345c565b915050610d1d565b50610d9f6795c46568a7e0e60660c01b611d5f565b858261ffff1681518110610db657610db56133d4565b5b602002602001015181600186610dcc91906134a4565b61ffff1681518110610de157610de06133d4565b5b6020026020010181905250610e006737662bfbaedd156d60c01b611d5f565b80925050610e1e565b610e1d67588e5e47e8b6c34960c01b611d5f565b5b610e326796979bc86e661e8060c01b611d5f565b610e4667713981bbd1c6194d60c01b611d5f565b806001019050610bac565b50610e666736b19c8d6a13160b60c01b611d5f565b610e7a67e965b36ad12412c860c01b611d5f565b808395509550505050509250929050565b60008060009054906101000a900473ffffffffffffffffffffffffffffffffffffffff16905090565b60038181548110610ec457600080fd5b906000526020600020016000915054906101000a900473ffffffffffffffffffffffffffffffffffffffff1681565b610f07679d4e1d8bea3e15f860c01b611d5f565b610f0f612262565b610f2367523e8a5f3df3893b60c01b611d5f565b610f3767618b3826e279e31460c01b611d5f565b610f4b676fc09c0e4a599ea460c01b611d5f565b610f5f67b024d178c5b656d560c01b611d5f565b6000600280549050346002610f7491906134da565b610f7e919061354b565b9050610f94678c830e21e7e6637460c01b611d5f565b610fa86741cd7ff5c6487b3060c01b611d5f565b610fbc679287d8e320b3383960c01b611d5f565b6000600760008b73ffffffffffffffffffffffffffffffffffffffff1673ffffffffffffffffffffffffffffffffffffffff1681526020019081526020016000205414801561104a57506000600660008b73ffffffffffffffffffffffffffffffffffffffff1673ffffffffffffffffffffffffffffffffffffffff16815260200190815260200160002054145b611089576040517f08c379a000000000000000000000000000000000000000000000000000000000815260040161108090613169565b60405180910390fd5b61109d6740590943ac943d8d60c01b611d5f565b6110b16712d4f09abeb11b7160c01b611d5f565b6110c5677707904a810b7f5560c01b611d5f565b6110d9675990820079da06a560c01b611d5f565b683635c9adc5dea00000341015611125576040517f08c379a000000000000000000000000000000000000000000000000000000000815260040161111c906135ee565b60405180910390fd5b61113967c064b1d2d5095a1460c01b611d5f565b61114d67aa0d9bae445e7d7860c01b611d5f565b61116167b904ea1cb8d8285f60c01b611d5f565b611175679614051084b2c01b60c01b611d5f565b6002805490508161118691906134da565b4710156111c8576040517f08c379a00000000000000000000000000000000000000000000000000000000081526004016111bf90613680565b60405180910390fd5b6111dc6750fac6f2dda5409f60c01b611d5f565b6111f0670f5a7568c360b23860c01b611d5f565b61120467ad3af4f127ede21a60c01b611d5f565b600061121a67ad32585036d506a560c01b611d5f565b61122e678469522943310ab960c01b611d5f565b600061124467b8a968d2e88d713660c01b611d5f565b61124c6122b1565b809250819350505061126867b6cdc4a8c782fe4560c01b611d5f565b61127c6793f1d364c01eecdd60c01b611d5f565b6112906701d4b242a4e127e660c01b611d5f565b600082141580156112b157506112b067361d4c8257af347660c01b6127d7565b5b806112d95750600081141580156112d857506112d767e3869a4e499c0d2d60c01b6127d7565b5b5b611318576040517f08c379a000000000000000000000000000000000000000000000000000000000815260040161130f90613712565b60405180910390fd5b61132c679a82dbb863f16d8b60c01b611d5f565b611340675eb3134fd79fdde460c01b611d5f565b61135467fbc27412a14c4a2c60c01b611d5f565b6000683635c9adc5dea000003483600261136e91906134da565b6113789190613732565b6113829190613732565b905061139867b0b5c00adb89bc5060c01b611d5f565b6113ac67d9f74182c0deac6c60c01b611d5f565b80831015611708576113c867c39ed3a9cdef3f1160c01b611d5f565b6113dc67025c389ec64c8e0d60c01b611d5f565b6113f0679b7c2cd20559dc0660c01b611d5f565b60005b6002805490508160ff1610156117025761141767bf0b27f3bb0c4b1460c01b611d5f565b61142b67988175d1ce5d46b160c01b611d5f565b60007f000000000000000000000000000000000000000000000000000000000000000073ffffffffffffffffffffffffffffffffffffffff168660028460ff168154811061147c5761147b6133d4565b5b9060005260206000200160009054906101000a900473ffffffffffffffffffffffffffffffffffffffff166040516024016114b79190612da4565b6040516020818303038152906040527f5c19a95c000000000000000000000000000000000000000000000000000000007bffffffffffffffffffffffffffffffffffffffffffffffffffffffff19166020820180517bffffffffffffffffffffffffffffffffffffffffffffffffffffffff838183161783525050505060405161154191906137ad565b60006040518083038185875af1925050503d806000811461157e576040519150601f19603f3d011682016040523d82523d6000602084013e611583565b606091505b5050905061159b6785e25a2579c19fda60c01b611d5f565b6115af671654d798929fd37e60c01b611d5f565b6115c36785fb06ae47087ac460c01b611d5f565b80611603576040517f08c379a00000000000000000000000000000000000000000000000000000000081526004016115fa90613810565b60405180910390fd5b611617679e2a2546004dfd0960c01b611d5f565b61162b67d23fd5ff8e961e0460c01b611d5f565b61163f67db29a20803b3b83160c01b611d5f565b60028260ff1681548110611656576116556133d4565b5b9060005260206000200160009054906101000a900473ffffffffffffffffffffffffffffffffffffffff1673ffffffffffffffffffffffffffffffffffffffff167fdb81da2c3076a89e932e0ed0c55b123f6cbb46dd9611c38e1a5e0ef755f71028876040516116c69190612de9565b60405180910390a26116e26702b79bcf2979ad7160c01b611d5f565b6116f667351728a7b77c028a60c01b611d5f565b816001019150506113f3565b5061171c565b61171b66ecbd8256a3fa2960c01b611d5f565b5b6117306791b99112bac0a05360c01b611d5f565b611744672effe3ce284e027960c01b611d5f565b600560003373ffffffffffffffffffffffffffffffffffffffff1673ffffffffffffffffffffffffffffffffffffffff1681526020019081526020016000208c9080600181540180825580915050600190039060005260206000200160009091909190916101000a81548173ffffffffffffffffffffffffffffffffffffffff021916908373ffffffffffffffffffffffffffffffffffffffff1602179055506117f867c08eeed8548f419760c01b611d5f565b61180c6796aa6f0754e7809360c01b611d5f565b60038c9080600181540180825580915050600190039060005260206000200160009091909190916101000a81548173ffffffffffffffffffffffffffffffffffffffff021916908373ffffffffffffffffffffffffffffffffffffffff16021790555061188367296c07c5d3099de360c01b611d5f565b600380549050600760008e73ffffffffffffffffffffffffffffffffffffffff1673ffffffffffffffffffffffffffffffffffffffff168152602001908152602001600020819055506118e067d93767c0f30a48a660c01b611d5f565b33600460008e73ffffffffffffffffffffffffffffffffffffffff1673ffffffffffffffffffffffffffffffffffffffff16815260200190815260200160002060006101000a81548173ffffffffffffffffffffffffffffffffffffffff021916908373ffffffffffffffffffffffffffffffffffffffff16021790555061197267935f182b0ce02bee60c01b611d5f565b611986672204841c7238cb6060c01b611d5f565b600063d6fdc12760e01b8d8d8d8d8d8d8d8d6040516024016119af9897969594939291906138b6565b604051602081830303815290604052907bffffffffffffffffffffffffffffffffffffffffffffffffffffffff19166020820180517bffffffffffffffffffffffffffffffffffffffffffffffffffffffff83818316178352505050509050611a22679e7c565a31aad91860c01b611d5f565b611a3667523ed03ddcfb500160c01b611d5f565b60007f000000000000000000000000000000000000000000000000000000000000000073ffffffffffffffffffffffffffffffffffffffff163483604051611a7e91906137ad565b60006040518083038185875af1925050503d8060008114611abb576040519150601f19603f3d011682016040523d82523d6000602084013e611ac0565b606091505b50509050611ad867160aaa0b53bf3b8260c01b611d5f565b611aec67700343611179514460c01b611d5f565b611b0067241170a68d4303de60c01b611d5f565b80611b40576040517f08c379a0000000000000000000000000000000000000000000000000000000008152600401611b3790613983565b60405180910390fd5b611b5467b21e9818ef05e2f060c01b611d5f565b611b68670b9ed4f65c57069f60c01b611d5f565b611b7c679820fbd2f007749e60c01b611d5f565b3373ffffffffffffffffffffffffffffffffffffffff168e73ffffffffffffffffffffffffffffffffffffffff167fb18da5935e7c07b652bb6ac6c3f79317231b1cc912de1524266eb17e7287baa534604051611bd99190612de9565b60405180910390a3505050505050611bef6127e2565b5050505050505050565b60066020528060005260406000206000915090505481565b611c19611d62565b600073ffffffffffffffffffffffffffffffffffffffff168173ffffffffffffffffffffffffffffffffffffffff1603611c88576040517f08c379a0000000000000000000000000000000000000000000000000000000008152600401611c7f90613a15565b60405180910390fd5b611c918161219e565b50565b611ca867abfb5f813226c3f760c01b6103d5565b565b6000611cc067393f65fdbd53961760c01b6103d5565b611cd467a268c80e58d31f0d60c01b6103d5565b611ce8679ab9f75c210b076a60c01b6103d5565b7f0000000000000000000000000000000000000000000000000000000000000000905090565b6060611d2467dc934d99b71e9a8d60c01b6103d5565b611d3867c1a284b536f056e360c01b6103d5565b366000803760008036600034865af13d6000803e8060008114611d5a573d6000f35b3d6000fd5b50565b611d6a6127eb565b73ffffffffffffffffffffffffffffffffffffffff16611d88610e8b565b73ffffffffffffffffffffffffffffffffffffffff1614611dde576040517f08c379a0000000000000000000000000000000000000000000000000000000008152600401611dd590613a81565b60405180910390fd5b565b60606000611df86781f6b01ddeeee6fa60c01b611d5f565b611e0c6739cc498e5a524a3160c01b611d5f565b611e2067803ea3c999517c0460c01b611d5f565b6060611e36670d7a57a6204a016960c01b611d5f565b611e4a6760afe6c8e25debae60c01b611d5f565b6000611e60677ae890e56f92b3a260c01b611d5f565b7f000000000000000000000000000000000000000000000000000000000000000073ffffffffffffffffffffffffffffffffffffffff166319d8024f866040518263ffffffff1660e01b8152600401611eb99190613ab0565b600060405180830381865afa158015611ed6573d6000803e3d6000fd5b505050506040513d6000823e3d601f19601f82011682018060405250810190611eff9190613c44565b8092508193505050611f1b67988690e0606deb4960c01b611d5f565b611f2f677ac8ffd9758af7cd60c01b611d5f565b60005b82518160ff16101561216857611f52671fc7cd5e84ae0b1160c01b611d5f565b611f66676ee690d89f58440d60c01b611d5f565b600073ffffffffffffffffffffffffffffffffffffffff1660046000858460ff1681518110611f9857611f976133d4565b5b60200260200101516000015173ffffffffffffffffffffffffffffffffffffffff1673ffffffffffffffffffffffffffffffffffffffff16815260200190815260200160002060009054906101000a900473ffffffffffffffffffffffffffffffffffffffff1673ffffffffffffffffffffffffffffffffffffffff16146121205761202e67095a873e20ff360260c01b611d5f565b612042671d01f9c8571fef5960c01b611d5f565b60046000848360ff168151811061205c5761205b6133d4565b5b60200260200101516000015173ffffffffffffffffffffffffffffffffffffffff1673ffffffffffffffffffffffffffffffffffffffff16815260200190815260200160002060009054906101000a900473ffffffffffffffffffffffffffffffffffffffff16838260ff16815181106120d9576120d86133d4565b5b6020026020010151602001516080019073ffffffffffffffffffffffffffffffffffffffff16908173ffffffffffffffffffffffffffffffffffffffff1681525050612135565b61213467e22196b55ee74a8e60c01b611d5f565b5b612149677d26596b78c98a7260c01b611d5f565b61215d67eae68026bd5dd6a260c01b611d5f565b806001019050611f32565b5061217d6789b77925dd5f487360c01b611d5f565b61219167302a6df8848b7f9e60c01b611d5f565b8181935093505050915091565b60008060009054906101000a900473ffffffffffffffffffffffffffffffffffffffff169050816000806101000a81548173ffffffffffffffffffffffffffffffffffffffff021916908373ffffffffffffffffffffffffffffffffffffffff1602179055508173ffffffffffffffffffffffffffffffffffffffff168173ffffffffffffffffffffffffffffffffffffffff167f8be0079c531659141344cd1fd0a4f28419497f9722a3daafe3b4186f6b6457e060405160405180910390a35050565b6002600154036122a7576040517f08c379a000000000000000000000000000000000000000000000000000000000815260040161229e90613cec565b60405180910390fd5b6002600181905550565b6000806122c867b37a4e9821a70c2260c01b611d5f565b6122dc67ba231b29aaf6ea0d60c01b611d5f565b6122f06726f37a06abab1a2c60c01b611d5f565b60006001905061230a67fe5cb8bc5ba3630f60c01b611d5f565b61231e67d5c6c89c336b571b60c01b611d5f565b60006123346733cd754dd48c57e160c01b611d5f565b61234867b12a53acf1b3dd4360c01b611d5f565b600061235e67b455425ec496eabe60c01b611d5f565b61237267b5b47165c4c158af60c01b611d5f565b6000612388679a97669386d230fc60c01b611d5f565b61239c671e91095b236e37cf60c01b611d5f565b5b83156127a1576123b767bc1c1326589bc49b60c01b611d5f565b6123cb67c985fc4b72a8ba0460c01b611d5f565b6002805490508161ffff161015612529576123f067537bcaa7d0e0177460c01b611d5f565b612404670daa991aeb9aa9fb60c01b611d5f565b6124186740149ff6c6d30bb260c01b611d5f565b60007f000000000000000000000000000000000000000000000000000000000000000073ffffffffffffffffffffffffffffffffffffffff16631904bb2e60028461ffff168154811061246e5761246d6133d4565b5b9060005260206000200160009054906101000a900473ffffffffffffffffffffffffffffffffffffffff166040518263ffffffff1660e01b81526004016124b59190612da4565b600060405180830381865afa1580156124d2573d6000803e3d6000fd5b505050506040513d6000823e3d601f19601f820116820180604052508101906124fb919061338b565b9050612511677eb8a6239e2c42b860c01b611d5f565b8060000151846125219190613732565b93505061253e565b61253d677bb976e505ea084660c01b611d5f565b5b61255267d4b2e171321c2eff60c01b611d5f565b61256667336c01c91ae79e3660c01b611d5f565b6003805490508161ffff1610156126c45761258b67707ac5b074d6ac8460c01b611d5f565b61259f67f6579c5aeedc46f260c01b611d5f565b6125b3675feb66314f04ea1260c01b611d5f565b60007f000000000000000000000000000000000000000000000000000000000000000073ffffffffffffffffffffffffffffffffffffffff16631904bb2e60038461ffff1681548110612609576126086133d4565b5b9060005260206000200160009054906101000a900473ffffffffffffffffffffffffffffffffffffffff166040518263ffffffff1660e01b81526004016126509190612da4565b600060405180830381865afa15801561266d573d6000803e3d6000fd5b505050506040513d6000823e3d601f19601f82011682018060405250810190612696919061338b565b90506126ac67db944a04f34801ec60c01b611d5f565b8060000151836126bc9190613732565b9250506126d9565b6126d867aac1dab09383fe7c60c01b611d5f565b5b6126ed67b7f0e6f45b4cb2f560c01b611d5f565b612701674c751386fecc183860c01b611d5f565b6002805490508161ffff161015801561272357506003805490508161ffff1610155b156127595761273c671cb2e0aa0b97035b60c01b611d5f565b61275067520e8311f95fbee360c01b611d5f565b6000935061276e565b61276d6796ee131a9519a9eb60c01b611d5f565b5b612782675166f2be852a1a4c60c01b611d5f565b6127966729ff13d1c520396960c01b611d5f565b80600101905061239d565b6127b567d06d8716b4346a0a60c01b611d5f565b6127c9677caeebf3984ed7ad60c01b611d5f565b828295509550505050509091565b600060019050919050565b60018081905550565b600033905090565b6040518060e001604052806000815260200160008152602001600061ffff168152602001600067ffffffffffffffff168152602001600073ffffffffffffffffffffffffffffffffffffffff16815260200160608152602001606081525090565b6040518060400160405280600073ffffffffffffffffffffffffffffffffffffffff1681526020016128846127f3565b81525090565b6000604051905090565b600080fd5b600080fd5b600073ffffffffffffffffffffffffffffffffffffffff82169050919050565b60006128c98261289e565b9050919050565b6128d9816128be565b81146128e457600080fd5b50565b6000813590506128f6816128d0565b92915050565b60006020828403121561291257612911612894565b5b6000612920848285016128e7565b91505092915050565b6000819050919050565b61293c81612929565b82525050565b600061ffff82169050919050565b61295981612942565b82525050565b600067ffffffffffffffff82169050919050565b61297c8161295f565b82525050565b61298b816128be565b82525050565b600081519050919050565b600082825260208201905092915050565b60005b838110156129cb5780820151818401526020810190506129b0565b60008484015250505050565b6000601f19601f8301169050919050565b60006129f382612991565b6129fd818561299c565b9350612a0d8185602086016129ad565b612a16816129d7565b840191505092915050565b600060e083016000830151612a396000860182612933565b506020830151612a4c6020860182612933565b506040830151612a5f6040860182612950565b506060830151612a726060860182612973565b506080830151612a856080860182612982565b5060a083015184820360a0860152612a9d82826129e8565b91505060c083015184820360c0860152612ab782826129e8565b9150508091505092915050565b60006020820190508181036000830152612ade8184612a21565b905092915050565b600063ffffffff82169050919050565b612aff81612ae6565b8114612b0a57600080fd5b50565b600081359050612b1c81612af6565b92915050565b600060208284031215612b3857612b37612894565b5b6000612b4684828501612b0d565b91505092915050565b600081519050919050565b600082825260208201905092915050565b6000819050602082019050919050565b600060e083016000830151612b936000860182612933565b506020830151612ba66020860182612933565b506040830151612bb96040860182612950565b506060830151612bcc6060860182612973565b506080830151612bdf6080860182612982565b5060a083015184820360a0860152612bf782826129e8565b91505060c083015184820360c0860152612c1182826129e8565b9150508091505092915050565b6000604083016000830151612c366000860182612982565b5060208301518482036020860152612c4e8282612b7b565b9150508091505092915050565b6000612c678383612c1e565b905092915050565b6000602082019050919050565b6000612c8782612b4f565b612c918185612b5a565b935083602082028501612ca385612b6b565b8060005b85811015612cdf5784840389528151612cc08582612c5b565b9450612ccb83612c6f565b925060208a01995050600181019050612ca7565b50829750879550505050505092915050565b60008115159050919050565b612d0681612cf1565b82525050565b60006040820190508181036000830152612d268185612c7c565b9050612d356020830184612cfd565b9392505050565b612d4581612929565b8114612d5057600080fd5b50565b600081359050612d6281612d3c565b92915050565b600060208284031215612d7e57612d7d612894565b5b6000612d8c84828501612d53565b91505092915050565b612d9e816128be565b82525050565b6000602082019050612db96000830184612d95565b92915050565b6000602082019050612dd46000830184612cfd565b92915050565b612de381612929565b82525050565b6000602082019050612dfe6000830184612dda565b92915050565b60008060408385031215612e1b57612e1a612894565b5b6000612e29858286016128e7565b9250506020612e3a85828601612b0d565b9150509250929050565b600080fd5b600080fd5b7f4e487b7100000000000000000000000000000000000000000000000000000000600052604160045260246000fd5b612e86826129d7565b810181811067ffffffffffffffff82111715612ea557612ea4612e4e565b5b80604052505050565b6000612eb861288a565b9050612ec48282612e7d565b919050565b600067ffffffffffffffff821115612ee457612ee3612e4e565b5b612eed826129d7565b9050602081019050919050565b82818337600083830152505050565b6000612f1c612f1784612ec9565b612eae565b905082815260208101848484011115612f3857612f37612e49565b5b612f43848285612efa565b509392505050565b600082601f830112612f6057612f5f612e44565b5b8135612f70848260208601612f09565b91505092915050565b612f8281612942565b8114612f8d57600080fd5b50565b600081359050612f9f81612f79565b92915050565b600080fd5b600080fd5b60008083601f840112612fc557612fc4612e44565b5b8235905067ffffffffffffffff811115612fe257612fe1612fa5565b5b602083019150836001820283011115612ffe57612ffd612faa565b5b9250929050565b60008060008060008060008060c0898b03121561302557613024612894565b5b60006130338b828c016128e7565b985050602089013567ffffffffffffffff81111561305457613053612899565b5b6130608b828c01612f4b565b975050604089013567ffffffffffffffff81111561308157613080612899565b5b61308d8b828c01612f4b565b965050606061309e8b828c01612f90565b955050608089013567ffffffffffffffff8111156130bf576130be612899565b5b6130cb8b828c01612faf565b945094505060a089013567ffffffffffffffff8111156130ee576130ed612899565b5b6130fa8b828c01612faf565b92509250509295985092959890939650565b600082825260208201905092915050565b7f56616c696461746f7220616c7265616479207265676973746572656400000000600082015250565b6000613153601c8361310c565b915061315e8261311d565b602082019050919050565b6000602082019050818103600083015261318281613146565b9050919050565b600080fd5b600080fd5b6000815190506131a281612d3c565b92915050565b6000815190506131b781612f79565b92915050565b6131c68161295f565b81146131d157600080fd5b50565b6000815190506131e3816131bd565b92915050565b6000815190506131f8816128d0565b92915050565b600067ffffffffffffffff82111561321957613218612e4e565b5b613222826129d7565b9050602081019050919050565b600061324261323d846131fe565b612eae565b90508281526020810184848401111561325e5761325d612e49565b5b6132698482856129ad565b509392505050565b600082601f83011261328657613285612e44565b5b815161329684826020860161322f565b91505092915050565b600060e082840312156132b5576132b4613189565b5b6132bf60e0612eae565b905060006132cf84828501613193565b60008301525060206132e384828501613193565b60208301525060406132f7848285016131a8565b604083015250606061330b848285016131d4565b606083015250608061331f848285016131e9565b60808301525060a082015167ffffffffffffffff8111156133435761334261318e565b5b61334f84828501613271565b60a08301525060c082015167ffffffffffffffff8111156133735761337261318e565b5b61337f84828501613271565b60c08301525092915050565b6000602082840312156133a1576133a0612894565b5b600082015167ffffffffffffffff8111156133bf576133be612899565b5b6133cb8482850161329f565b91505092915050565b7f4e487b7100000000000000000000000000000000000000000000000000000000600052603260045260246000fd5b7f4e487b7100000000000000000000000000000000000000000000000000000000600052601160045260246000fd5b600061343d82612942565b915061ffff820361345157613450613403565b5b600182019050919050565b600061346782612929565b91507fffffffffffffffffffffffffffffffffffffffffffffffffffffffffffffffff820361349957613498613403565b5b600182019050919050565b60006134af82612942565b91506134ba83612942565b9250828203905061ffff8111156134d4576134d3613403565b5b92915050565b60006134e582612929565b91506134f083612929565b92508282026134fe81612929565b9150828204841483151761351557613514613403565b5b5092915050565b7f4e487b7100000000000000000000000000000000000000000000000000000000600052601260045260246000fd5b600061355682612929565b915061356183612929565b9250826135715761357061351c565b5b828204905092915050565b7f53656e742076616c7565206c657373207468616e206d696e696d616c2064656c60008201527f65676174696f6e20666f7220726567697374726174696f6e0000000000000000602082015250565b60006135d860388361310c565b91506135e38261357c565b604082019050919050565b60006020820190508181036000830152613607816135cb565b9050919050565b7f496e73756666696369656e742066756e647320696e20636f6e7472616374206660008201527f6f7220746573746e657420726562616c616e6365000000000000000000000000602082015250565b600061366a60348361310c565b91506136758261360e565b604082019050919050565b600060208201905081810360008301526136998161365d565b9050919050565b7f43616c63756c6174696e672063757272656e74207374616b6573206661696c6560008201527f6421000000000000000000000000000000000000000000000000000000000000602082015250565b60006136fc60228361310c565b9150613707826136a0565b604082019050919050565b6000602082019050818103600083015261372b816136ef565b9050919050565b600061373d82612929565b915061374883612929565b92508282019050808211156137605761375f613403565b5b92915050565b600081519050919050565b600081905092915050565b600061378782613766565b6137918185613771565b93506137a18185602086016129ad565b80840191505092915050565b60006137b9828461377c565b915081905092915050565b7f44656c65676174652063616c6c206661696c6564000000000000000000000000600082015250565b60006137fa60148361310c565b9150613805826137c4565b602082019050919050565b60006020820190508181036000830152613829816137ed565b9050919050565b600082825260208201905092915050565b600061384c82613766565b6138568185613830565b93506138668185602086016129ad565b61386f816129d7565b840191505092915050565b61388381612942565b82525050565b6000613895838561310c565b93506138a2838584612efa565b6138ab836129d7565b840190509392505050565b600060c0820190506138cb600083018b612d95565b81810360208301526138dd818a613841565b905081810360408301526138f18189613841565b9050613900606083018861387a565b8181036080830152613913818688613889565b905081810360a0830152613928818486613889565b90509998505050505050505050565b7f52656769737465722076616c696461746f722063616c6c206661696c65640000600082015250565b600061396d601e8361310c565b915061397882613937565b602082019050919050565b6000602082019050818103600083015261399c81613960565b9050919050565b7f4f776e61626c653a206e6577206f776e657220697320746865207a65726f206160008201527f6464726573730000000000000000000000000000000000000000000000000000602082015250565b60006139ff60268361310c565b9150613a0a826139a3565b604082019050919050565b60006020820190508181036000830152613a2e816139f2565b9050919050565b7f4f776e61626c653a2063616c6c6572206973206e6f7420746865206f776e6572600082015250565b6000613a6b60208361310c565b9150613a7682613a35565b602082019050919050565b60006020820190508181036000830152613a9a81613a5e565b9050919050565b613aaa81612ae6565b82525050565b6000602082019050613ac56000830184613aa1565b92915050565b600067ffffffffffffffff821115613ae657613ae5612e4e565b5b602082029050602081019050919050565b600060408284031215613b0d57613b0c613189565b5b613b176040612eae565b90506000613b27848285016131e9565b600083015250602082015167ffffffffffffffff811115613b4b57613b4a61318e565b5b613b578482850161329f565b60208301525092915050565b6000613b76613b7184613acb565b612eae565b90508083825260208201905060208402830185811115613b9957613b98612faa565b5b835b81811015613be057805167ffffffffffffffff811115613bbe57613bbd612e44565b5b808601613bcb8982613af7565b85526020850194505050602081019050613b9b565b5050509392505050565b600082601f830112613bff57613bfe612e44565b5b8151613c0f848260208601613b63565b91505092915050565b613c2181612cf1565b8114613c2c57600080fd5b50565b600081519050613c3e81613c18565b92915050565b60008060408385031215613c5b57613c5a612894565b5b600083015167ffffffffffffffff811115613c7957613c78612899565b5b613c8585828601613bea565b9250506020613c9685828601613c2f565b9150509250929050565b7f5265656e7472616e637947756172643a207265656e7472616e742063616c6c00600082015250565b6000613cd6601f8361310c565b9150613ce182613ca0565b602082019050919050565b60006020820190508181036000830152613d0581613cc9565b905091905056fea26469706673582212204733d1517010dab0367c7ce5c86a0c28e4bd4eed0146b50e77d457bb3a59d57464736f6c63430008120033",
  "linkReferences": {},
  "deployedLinkReferences": {}
}